{"abi":[{"inputs":[{"internalType":"uint96","name":"epc","type":"uint96"}],"name":"createProduct","outputs":[],"stateMutability":"nonpayable","type":"function"},{"inputs":[{"internalType":"uint256","name":"","type":"uint256"}],"name":"depolyedProducts","outputs":[{"internalType":"address","name":"","type":"address"}],"stateMutability":"view","type":"function"},{"inputs":[],"name":"getDeployedProducts","outputs":[{"internalType":"address[]","name":"","type":"address[]"}],"stateMutability":"view","type":"function"},{"inputs":[{"internalType":"uint96","name":"","type":"uint96"}],"name":"productsAddress","outputs":[{"internalType":"address","name":"","type":"address"}],"stateMutability":"view","type":"function"}],"devdoc":{"kind":"dev","methods":{},"version":1},"evm":{"assembly":"    /* \"Product.sol\":319:989  contract ProductFactory {... */\n  mstore(0x40, 0x80)\n  callvalue\n  dup1\n  iszero\n  tag_1\n  jumpi\n  0x00\n  dup1\n  revert\ntag_1:\n  pop\n  dataSize(sub_0)\n  dup1\n  dataOffset(sub_0)\n  0x00\n  codecopy\n  0x00\n  return\nstop\n\nsub_0: assembly {\n        /* \"Product.sol\":319:989  contract ProductFactory {... */\n      mstore(0x40, 0x80)\n      callvalue\n      dup1\n      iszero\n      tag_1\n      jumpi\n      0x00\n      dup1\n      revert\n    tag_1:\n      pop\n      jumpi(tag_2, lt(calldatasize, 0x04))\n      shr(0xe0, calldataload(0x00))\n      dup1\n      0x5b37f20a\n      eq\n      tag_3\n      jumpi\n      dup1\n      0x6f3e184c\n      eq\n      tag_4\n      jumpi\n      dup1\n      0x8718e33b\n      eq\n      tag_5\n      jumpi\n      dup1\n      0xa578861d\n      eq\n      tag_6\n      jumpi\n    tag_2:\n      0x00\n      dup1\n      revert\n        /* \"Product.sol\":482:770  function createProduct(uint96 epc) public {... */\n    tag_3:\n      tag_7\n      0x04\n      dup1\n      calldatasize\n      sub\n      dup2\n      add\n      swap1\n      tag_8\n      swap2\n      swap1\n      tag_9\n      jump\t// in\n    tag_8:\n      tag_10\n      jump\t// in\n    tag_7:\n      stop\n        /* \"Product.sol\":390:439  mapping(uint96 => address) public productsAddress */\n    tag_4:\n      tag_11\n      0x04\n      dup1\n      calldatasize\n      sub\n      dup2\n      add\n      swap1\n      tag_12\n      swap2\n      swap1\n      tag_9\n      jump\t// in\n    tag_12:\n      tag_13\n      jump\t// in\n    tag_11:\n      mload(0x40)\n      tag_14\n      swap2\n      swap1\n      tag_15\n      jump\t// in\n    tag_14:\n      mload(0x40)\n      dup1\n      swap2\n      sub\n      swap1\n      return\n        /* \"Product.sol\":350:383  address[] public depolyedProducts */\n    tag_5:\n      tag_16\n      0x04\n      dup1\n      calldatasize\n      sub\n      dup2\n      add\n      swap1\n      tag_17\n      swap2\n      swap1\n      tag_18\n      jump\t// in\n    tag_17:\n      tag_19\n      jump\t// in\n    tag_16:\n      mload(0x40)\n      tag_20\n      swap2\n      swap1\n      tag_15\n      jump\t// in\n    tag_20:\n      mload(0x40)\n      dup1\n      swap2\n      sub\n      swap1\n      return\n        /* \"Product.sol\":874:986  function getDeployedProducts() public view returns (address[] memory) {... */\n    tag_6:\n      tag_21\n      tag_22\n      jump\t// in\n    tag_21:\n      mload(0x40)\n      tag_23\n      swap2\n      swap1\n      tag_24\n      jump\t// in\n    tag_23:\n      mload(0x40)\n      dup1\n      swap2\n      sub\n      swap1\n      return\n        /* \"Product.sol\":482:770  function createProduct(uint96 epc) public {... */\n    tag_10:\n        /* \"Product.sol\":609:627  address newProduct */\n      0x00\n        /* \"Product.sol\":657:667  msg.sender */\n      caller\n        /* \"Product.sol\":669:672  epc */\n      dup3\n        /* \"Product.sol\":638:673  new ProductManager(msg.sender, epc) */\n      mload(0x40)\n      tag_26\n      swap1\n      tag_27\n      jump\t// in\n    tag_26:\n      tag_28\n      swap3\n      swap2\n      swap1\n      tag_29\n      jump\t// in\n    tag_28:\n      mload(0x40)\n      dup1\n      swap2\n      sub\n      swap1\n      0x00\n      create\n      dup1\n      iszero\n      dup1\n      iszero\n      tag_30\n      jumpi\n      returndatasize\n      0x00\n      dup1\n      returndatacopy\n      revert(0x00, returndatasize)\n    tag_30:\n      pop\n        /* \"Product.sol\":609:674  address newProduct = address(new ProductManager(msg.sender, epc)) */\n      swap1\n      pop\n        /* \"Product.sol\":685:701  depolyedProducts */\n      0x00\n        /* \"Product.sol\":707:717  newProduct */\n      dup2\n        /* \"Product.sol\":685:718  depolyedProducts.push(newProduct) */\n      swap1\n      dup1\n      0x01\n      dup2\n      sload\n      add\n      dup1\n      dup3\n      sstore\n      dup1\n      swap2\n      pop\n      pop\n      0x01\n      swap1\n      sub\n      swap1\n      0x00\n      mstore\n      keccak256(0x00, 0x20)\n      add\n      0x00\n      swap1\n      swap2\n      swap1\n      swap2\n      swap1\n      swap2\n      0x0100\n      exp\n      dup2\n      sload\n      dup2\n      0xffffffffffffffffffffffffffffffffffffffff\n      mul\n      not\n      and\n      swap1\n      dup4\n      0xffffffffffffffffffffffffffffffffffffffff\n      and\n      mul\n      or\n      swap1\n      sstore\n      pop\n        /* \"Product.sol\":752:762  newProduct */\n      dup1\n        /* \"Product.sol\":729:744  productsAddress */\n      0x01\n        /* \"Product.sol\":729:749  productsAddress[epc] */\n      0x00\n        /* \"Product.sol\":745:748  epc */\n      dup5\n        /* \"Product.sol\":729:749  productsAddress[epc] */\n      0xffffffffffffffffffffffff\n      and\n      0xffffffffffffffffffffffff\n      and\n      dup2\n      mstore\n      0x20\n      add\n      swap1\n      dup2\n      mstore\n      0x20\n      add\n      0x00\n      keccak256\n      0x00\n        /* \"Product.sol\":729:762  productsAddress[epc] = newProduct */\n      0x0100\n      exp\n      dup2\n      sload\n      dup2\n      0xffffffffffffffffffffffffffffffffffffffff\n      mul\n      not\n      and\n      swap1\n      dup4\n      0xffffffffffffffffffffffffffffffffffffffff\n      and\n      mul\n      or\n      swap1\n      sstore\n      pop\n        /* \"Product.sol\":524:770  {... */\n      pop\n        /* \"Product.sol\":482:770  function createProduct(uint96 epc) public {... */\n      pop\n      jump\t// out\n        /* \"Product.sol\":390:439  mapping(uint96 => address) public productsAddress */\n    tag_13:\n      mstore(0x20, 0x01)\n      dup1\n      0x00\n      mstore\n      keccak256(0x00, 0x40)\n      0x00\n      swap2\n      pop\n      sload\n      swap1\n      0x0100\n      exp\n      swap1\n      div\n      0xffffffffffffffffffffffffffffffffffffffff\n      and\n      dup2\n      jump\t// out\n        /* \"Product.sol\":350:383  address[] public depolyedProducts */\n    tag_19:\n      0x00\n      dup2\n      dup2\n      sload\n      dup2\n      lt\n      tag_32\n      jumpi\n      0x00\n      dup1\n      revert\n    tag_32:\n      swap1\n      0x00\n      mstore\n      keccak256(0x00, 0x20)\n      add\n      0x00\n      swap2\n      pop\n      sload\n      swap1\n      0x0100\n      exp\n      swap1\n      div\n      0xffffffffffffffffffffffffffffffffffffffff\n      and\n      dup2\n      jump\t// out\n        /* \"Product.sol\":874:986  function getDeployedProducts() public view returns (address[] memory) {... */\n    tag_22:\n        /* \"Product.sol\":926:942  address[] memory */\n      0x60\n        /* \"Product.sol\":962:978  depolyedProducts */\n      0x00\n        /* \"Product.sol\":955:978  return depolyedProducts */\n      dup1\n      sload\n      dup1\n      0x20\n      mul\n      0x20\n      add\n      mload(0x40)\n      swap1\n      dup2\n      add\n      0x40\n      mstore\n      dup1\n      swap3\n      swap2\n      swap1\n      dup2\n      dup2\n      mstore\n      0x20\n      add\n      dup3\n      dup1\n      sload\n      dup1\n      iszero\n      tag_35\n      jumpi\n      0x20\n      mul\n      dup3\n      add\n      swap2\n      swap1\n      0x00\n      mstore\n      keccak256(0x00, 0x20)\n      swap1\n    tag_36:\n      dup2\n      0x00\n      swap1\n      sload\n      swap1\n      0x0100\n      exp\n      swap1\n      div\n      0xffffffffffffffffffffffffffffffffffffffff\n      and\n      0xffffffffffffffffffffffffffffffffffffffff\n      and\n      dup2\n      mstore\n      0x20\n      add\n      swap1\n      0x01\n      add\n      swap1\n      dup1\n      dup4\n      gt\n      tag_36\n      jumpi\n    tag_35:\n      pop\n      pop\n      pop\n      pop\n      pop\n      swap1\n      pop\n        /* \"Product.sol\":874:986  function getDeployedProducts() public view returns (address[] memory) {... */\n      swap1\n      jump\t// out\n    tag_27:\n      dataSize(sub_0)\n      dup1\n      dataOffset(sub_0)\n      dup4\n      codecopy\n      add\n      swap1\n      jump\t// out\n        /* \"#utility.yul\":88:205   */\n    tag_38:\n        /* \"#utility.yul\":197:198   */\n      0x00\n        /* \"#utility.yul\":194:195   */\n      dup1\n        /* \"#utility.yul\":187:199   */\n      revert\n        /* \"#utility.yul\":334:443   */\n    tag_40:\n        /* \"#utility.yul\":370:377   */\n      0x00\n        /* \"#utility.yul\":410:436   */\n      0xffffffffffffffffffffffff\n        /* \"#utility.yul\":403:408   */\n      dup3\n        /* \"#utility.yul\":399:437   */\n      and\n        /* \"#utility.yul\":388:437   */\n      swap1\n      pop\n        /* \"#utility.yul\":334:443   */\n      swap2\n      swap1\n      pop\n      jump\t// out\n        /* \"#utility.yul\":449:569   */\n    tag_41:\n        /* \"#utility.yul\":521:544   */\n      tag_63\n        /* \"#utility.yul\":538:543   */\n      dup2\n        /* \"#utility.yul\":521:544   */\n      tag_40\n      jump\t// in\n    tag_63:\n        /* \"#utility.yul\":514:519   */\n      dup2\n        /* \"#utility.yul\":511:545   */\n      eq\n        /* \"#utility.yul\":501:563   */\n      tag_64\n      jumpi\n        /* \"#utility.yul\":559:560   */\n      0x00\n        /* \"#utility.yul\":556:557   */\n      dup1\n        /* \"#utility.yul\":549:561   */\n      revert\n        /* \"#utility.yul\":501:563   */\n    tag_64:\n        /* \"#utility.yul\":449:569   */\n      pop\n      jump\t// out\n        /* \"#utility.yul\":575:712   */\n    tag_42:\n        /* \"#utility.yul\":620:625   */\n      0x00\n        /* \"#utility.yul\":658:664   */\n      dup2\n        /* \"#utility.yul\":645:665   */\n      calldataload\n        /* \"#utility.yul\":636:665   */\n      swap1\n      pop\n        /* \"#utility.yul\":674:706   */\n      tag_66\n        /* \"#utility.yul\":700:705   */\n      dup2\n        /* \"#utility.yul\":674:706   */\n      tag_41\n      jump\t// in\n    tag_66:\n        /* \"#utility.yul\":575:712   */\n      swap3\n      swap2\n      pop\n      pop\n      jump\t// out\n        /* \"#utility.yul\":718:1045   */\n    tag_9:\n        /* \"#utility.yul\":776:782   */\n      0x00\n        /* \"#utility.yul\":825:827   */\n      0x20\n        /* \"#utility.yul\":813:822   */\n      dup3\n        /* \"#utility.yul\":804:811   */\n      dup5\n        /* \"#utility.yul\":800:823   */\n      sub\n        /* \"#utility.yul\":796:828   */\n      slt\n        /* \"#utility.yul\":793:912   */\n      iszero\n      tag_68\n      jumpi\n        /* \"#utility.yul\":831:910   */\n      tag_69\n      tag_38\n      jump\t// in\n    tag_69:\n        /* \"#utility.yul\":793:912   */\n    tag_68:\n        /* \"#utility.yul\":951:952   */\n      0x00\n        /* \"#utility.yul\":976:1028   */\n      tag_70\n        /* \"#utility.yul\":1020:1027   */\n      dup5\n        /* \"#utility.yul\":1011:1017   */\n      dup3\n        /* \"#utility.yul\":1000:1009   */\n      dup6\n        /* \"#utility.yul\":996:1018   */\n      add\n        /* \"#utility.yul\":976:1028   */\n      tag_42\n      jump\t// in\n    tag_70:\n        /* \"#utility.yul\":966:1028   */\n      swap2\n      pop\n        /* \"#utility.yul\":922:1038   */\n      pop\n        /* \"#utility.yul\":718:1045   */\n      swap3\n      swap2\n      pop\n      pop\n      jump\t// out\n        /* \"#utility.yul\":1051:1177   */\n    tag_43:\n        /* \"#utility.yul\":1088:1095   */\n      0x00\n        /* \"#utility.yul\":1128:1170   */\n      0xffffffffffffffffffffffffffffffffffffffff\n        /* \"#utility.yul\":1121:1126   */\n      dup3\n        /* \"#utility.yul\":1117:1171   */\n      and\n        /* \"#utility.yul\":1106:1171   */\n      swap1\n      pop\n        /* \"#utility.yul\":1051:1177   */\n      swap2\n      swap1\n      pop\n      jump\t// out\n        /* \"#utility.yul\":1183:1279   */\n    tag_44:\n        /* \"#utility.yul\":1220:1227   */\n      0x00\n        /* \"#utility.yul\":1249:1273   */\n      tag_73\n        /* \"#utility.yul\":1267:1272   */\n      dup3\n        /* \"#utility.yul\":1249:1273   */\n      tag_43\n      jump\t// in\n    tag_73:\n        /* \"#utility.yul\":1238:1273   */\n      swap1\n      pop\n        /* \"#utility.yul\":1183:1279   */\n      swap2\n      swap1\n      pop\n      jump\t// out\n        /* \"#utility.yul\":1285:1403   */\n    tag_45:\n        /* \"#utility.yul\":1372:1396   */\n      tag_75\n        /* \"#utility.yul\":1390:1395   */\n      dup2\n        /* \"#utility.yul\":1372:1396   */\n      tag_44\n      jump\t// in\n    tag_75:\n        /* \"#utility.yul\":1367:1370   */\n      dup3\n        /* \"#utility.yul\":1360:1397   */\n      mstore\n        /* \"#utility.yul\":1285:1403   */\n      pop\n      pop\n      jump\t// out\n        /* \"#utility.yul\":1409:1631   */\n    tag_15:\n        /* \"#utility.yul\":1502:1506   */\n      0x00\n        /* \"#utility.yul\":1540:1542   */\n      0x20\n        /* \"#utility.yul\":1529:1538   */\n      dup3\n        /* \"#utility.yul\":1525:1543   */\n      add\n        /* \"#utility.yul\":1517:1543   */\n      swap1\n      pop\n        /* \"#utility.yul\":1553:1624   */\n      tag_77\n        /* \"#utility.yul\":1621:1622   */\n      0x00\n        /* \"#utility.yul\":1610:1619   */\n      dup4\n        /* \"#utility.yul\":1606:1623   */\n      add\n        /* \"#utility.yul\":1597:1603   */\n      dup5\n        /* \"#utility.yul\":1553:1624   */\n      tag_45\n      jump\t// in\n    tag_77:\n        /* \"#utility.yul\":1409:1631   */\n      swap3\n      swap2\n      pop\n      pop\n      jump\t// out\n        /* \"#utility.yul\":1637:1714   */\n    tag_46:\n        /* \"#utility.yul\":1674:1681   */\n      0x00\n        /* \"#utility.yul\":1703:1708   */\n      dup2\n        /* \"#utility.yul\":1692:1708   */\n      swap1\n      pop\n        /* \"#utility.yul\":1637:1714   */\n      swap2\n      swap1\n      pop\n      jump\t// out\n        /* \"#utility.yul\":1720:1842   */\n    tag_47:\n        /* \"#utility.yul\":1793:1817   */\n      tag_80\n        /* \"#utility.yul\":1811:1816   */\n      dup2\n        /* \"#utility.yul\":1793:1817   */\n      tag_46\n      jump\t// in\n    tag_80:\n        /* \"#utility.yul\":1786:1791   */\n      dup2\n        /* \"#utility.yul\":1783:1818   */\n      eq\n        /* \"#utility.yul\":1773:1836   */\n      tag_81\n      jumpi\n        /* \"#utility.yul\":1832:1833   */\n      0x00\n        /* \"#utility.yul\":1829:1830   */\n      dup1\n        /* \"#utility.yul\":1822:1834   */\n      revert\n        /* \"#utility.yul\":1773:1836   */\n    tag_81:\n        /* \"#utility.yul\":1720:1842   */\n      pop\n      jump\t// out\n        /* \"#utility.yul\":1848:1987   */\n    tag_48:\n        /* \"#utility.yul\":1894:1899   */\n      0x00\n        /* \"#utility.yul\":1932:1938   */\n      dup2\n        /* \"#utility.yul\":1919:1939   */\n      calldataload\n        /* \"#utility.yul\":1910:1939   */\n      swap1\n      pop\n        /* \"#utility.yul\":1948:1981   */\n      tag_83\n        /* \"#utility.yul\":1975:1980   */\n      dup2\n        /* \"#utility.yul\":1948:1981   */\n      tag_47\n      jump\t// in\n    tag_83:\n        /* \"#utility.yul\":1848:1987   */\n      swap3\n      swap2\n      pop\n      pop\n      jump\t// out\n        /* \"#utility.yul\":1993:2322   */\n    tag_18:\n        /* \"#utility.yul\":2052:2058   */\n      0x00\n        /* \"#utility.yul\":2101:2103   */\n      0x20\n        /* \"#utility.yul\":2089:2098   */\n      dup3\n        /* \"#utility.yul\":2080:2087   */\n      dup5\n        /* \"#utility.yul\":2076:2099   */\n      sub\n        /* \"#utility.yul\":2072:2104   */\n      slt\n        /* \"#utility.yul\":2069:2188   */\n      iszero\n      tag_85\n      jumpi\n        /* \"#utility.yul\":2107:2186   */\n      tag_86\n      tag_38\n      jump\t// in\n    tag_86:\n        /* \"#utility.yul\":2069:2188   */\n    tag_85:\n        /* \"#utility.yul\":2227:2228   */\n      0x00\n        /* \"#utility.yul\":2252:2305   */\n      tag_87\n        /* \"#utility.yul\":2297:2304   */\n      dup5\n        /* \"#utility.yul\":2288:2294   */\n      dup3\n        /* \"#utility.yul\":2277:2286   */\n      dup6\n        /* \"#utility.yul\":2273:2295   */\n      add\n        /* \"#utility.yul\":2252:2305   */\n      tag_48\n      jump\t// in\n    tag_87:\n        /* \"#utility.yul\":2242:2305   */\n      swap2\n      pop\n        /* \"#utility.yul\":2198:2315   */\n      pop\n        /* \"#utility.yul\":1993:2322   */\n      swap3\n      swap2\n      pop\n      pop\n      jump\t// out\n        /* \"#utility.yul\":2328:2442   */\n    tag_49:\n        /* \"#utility.yul\":2395:2401   */\n      0x00\n        /* \"#utility.yul\":2429:2434   */\n      dup2\n        /* \"#utility.yul\":2423:2435   */\n      mload\n        /* \"#utility.yul\":2413:2435   */\n      swap1\n      pop\n        /* \"#utility.yul\":2328:2442   */\n      swap2\n      swap1\n      pop\n      jump\t// out\n        /* \"#utility.yul\":2448:2632   */\n    tag_50:\n        /* \"#utility.yul\":2547:2558   */\n      0x00\n        /* \"#utility.yul\":2581:2587   */\n      dup3\n        /* \"#utility.yul\":2576:2579   */\n      dup3\n        /* \"#utility.yul\":2569:2588   */\n      mstore\n        /* \"#utility.yul\":2621:2625   */\n      0x20\n        /* \"#utility.yul\":2616:2619   */\n      dup3\n        /* \"#utility.yul\":2612:2626   */\n      add\n        /* \"#utility.yul\":2597:2626   */\n      swap1\n      pop\n        /* \"#utility.yul\":2448:2632   */\n      swap3\n      swap2\n      pop\n      pop\n      jump\t// out\n        /* \"#utility.yul\":2638:2770   */\n    tag_51:\n        /* \"#utility.yul\":2705:2709   */\n      0x00\n        /* \"#utility.yul\":2728:2731   */\n      dup2\n        /* \"#utility.yul\":2720:2731   */\n      swap1\n      pop\n        /* \"#utility.yul\":2758:2762   */\n      0x20\n        /* \"#utility.yul\":2753:2756   */\n      dup3\n        /* \"#utility.yul\":2749:2763   */\n      add\n        /* \"#utility.yul\":2741:2763   */\n      swap1\n      pop\n        /* \"#utility.yul\":2638:2770   */\n      swap2\n      swap1\n      pop\n      jump\t// out\n        /* \"#utility.yul\":2776:2884   */\n    tag_52:\n        /* \"#utility.yul\":2853:2877   */\n      tag_92\n        /* \"#utility.yul\":2871:2876   */\n      dup2\n        /* \"#utility.yul\":2853:2877   */\n      tag_44\n      jump\t// in\n    tag_92:\n        /* \"#utility.yul\":2848:2851   */\n      dup3\n        /* \"#utility.yul\":2841:2878   */\n      mstore\n        /* \"#utility.yul\":2776:2884   */\n      pop\n      pop\n      jump\t// out\n        /* \"#utility.yul\":2890:3069   */\n    tag_53:\n        /* \"#utility.yul\":2959:2969   */\n      0x00\n        /* \"#utility.yul\":2980:3026   */\n      tag_94\n        /* \"#utility.yul\":3022:3025   */\n      dup4\n        /* \"#utility.yul\":3014:3020   */\n      dup4\n        /* \"#utility.yul\":2980:3026   */\n      tag_52\n      jump\t// in\n    tag_94:\n        /* \"#utility.yul\":3058:3062   */\n      0x20\n        /* \"#utility.yul\":3053:3056   */\n      dup4\n        /* \"#utility.yul\":3049:3063   */\n      add\n        /* \"#utility.yul\":3035:3063   */\n      swap1\n      pop\n        /* \"#utility.yul\":2890:3069   */\n      swap3\n      swap2\n      pop\n      pop\n      jump\t// out\n        /* \"#utility.yul\":3075:3188   */\n    tag_54:\n        /* \"#utility.yul\":3145:3149   */\n      0x00\n        /* \"#utility.yul\":3177:3181   */\n      0x20\n        /* \"#utility.yul\":3172:3175   */\n      dup3\n        /* \"#utility.yul\":3168:3182   */\n      add\n        /* \"#utility.yul\":3160:3182   */\n      swap1\n      pop\n        /* \"#utility.yul\":3075:3188   */\n      swap2\n      swap1\n      pop\n      jump\t// out\n        /* \"#utility.yul\":3224:3956   */\n    tag_55:\n        /* \"#utility.yul\":3343:3346   */\n      0x00\n        /* \"#utility.yul\":3372:3426   */\n      tag_97\n        /* \"#utility.yul\":3420:3425   */\n      dup3\n        /* \"#utility.yul\":3372:3426   */\n      tag_49\n      jump\t// in\n    tag_97:\n        /* \"#utility.yul\":3442:3528   */\n      tag_98\n        /* \"#utility.yul\":3521:3527   */\n      dup2\n        /* \"#utility.yul\":3516:3519   */\n      dup6\n        /* \"#utility.yul\":3442:3528   */\n      tag_50\n      jump\t// in\n    tag_98:\n        /* \"#utility.yul\":3435:3528   */\n      swap4\n      pop\n        /* \"#utility.yul\":3552:3608   */\n      tag_99\n        /* \"#utility.yul\":3602:3607   */\n      dup4\n        /* \"#utility.yul\":3552:3608   */\n      tag_51\n      jump\t// in\n    tag_99:\n        /* \"#utility.yul\":3631:3638   */\n      dup1\n        /* \"#utility.yul\":3662:3663   */\n      0x00\n        /* \"#utility.yul\":3647:3931   */\n    tag_100:\n        /* \"#utility.yul\":3672:3678   */\n      dup4\n        /* \"#utility.yul\":3669:3670   */\n      dup2\n        /* \"#utility.yul\":3666:3679   */\n      lt\n        /* \"#utility.yul\":3647:3931   */\n      iszero\n      tag_102\n      jumpi\n        /* \"#utility.yul\":3748:3754   */\n      dup2\n        /* \"#utility.yul\":3742:3755   */\n      mload\n        /* \"#utility.yul\":3775:3838   */\n      tag_103\n        /* \"#utility.yul\":3834:3837   */\n      dup9\n        /* \"#utility.yul\":3819:3832   */\n      dup3\n        /* \"#utility.yul\":3775:3838   */\n      tag_53\n      jump\t// in\n    tag_103:\n        /* \"#utility.yul\":3768:3838   */\n      swap8\n      pop\n        /* \"#utility.yul\":3861:3921   */\n      tag_104\n        /* \"#utility.yul\":3914:3920   */\n      dup4\n        /* \"#utility.yul\":3861:3921   */\n      tag_54\n      jump\t// in\n    tag_104:\n        /* \"#utility.yul\":3851:3921   */\n      swap3\n      pop\n        /* \"#utility.yul\":3707:3931   */\n      pop\n        /* \"#utility.yul\":3694:3695   */\n      0x01\n        /* \"#utility.yul\":3691:3692   */\n      dup2\n        /* \"#utility.yul\":3687:3696   */\n      add\n        /* \"#utility.yul\":3682:3696   */\n      swap1\n      pop\n        /* \"#utility.yul\":3647:3931   */\n      jump(tag_100)\n    tag_102:\n        /* \"#utility.yul\":3651:3665   */\n      pop\n        /* \"#utility.yul\":3947:3950   */\n      dup6\n        /* \"#utility.yul\":3940:3950   */\n      swap4\n      pop\n        /* \"#utility.yul\":3348:3956   */\n      pop\n      pop\n      pop\n        /* \"#utility.yul\":3224:3956   */\n      swap3\n      swap2\n      pop\n      pop\n      jump\t// out\n        /* \"#utility.yul\":3962:4335   */\n    tag_24:\n        /* \"#utility.yul\":4105:4109   */\n      0x00\n        /* \"#utility.yul\":4143:4145   */\n      0x20\n        /* \"#utility.yul\":4132:4141   */\n      dup3\n        /* \"#utility.yul\":4128:4146   */\n      add\n        /* \"#utility.yul\":4120:4146   */\n      swap1\n      pop\n        /* \"#utility.yul\":4192:4201   */\n      dup2\n        /* \"#utility.yul\":4186:4190   */\n      dup2\n        /* \"#utility.yul\":4182:4202   */\n      sub\n        /* \"#utility.yul\":4178:4179   */\n      0x00\n        /* \"#utility.yul\":4167:4176   */\n      dup4\n        /* \"#utility.yul\":4163:4180   */\n      add\n        /* \"#utility.yul\":4156:4203   */\n      mstore\n        /* \"#utility.yul\":4220:4328   */\n      tag_106\n        /* \"#utility.yul\":4323:4327   */\n      dup2\n        /* \"#utility.yul\":4314:4320   */\n      dup5\n        /* \"#utility.yul\":4220:4328   */\n      tag_55\n      jump\t// in\n    tag_106:\n        /* \"#utility.yul\":4212:4328   */\n      swap1\n      pop\n        /* \"#utility.yul\":3962:4335   */\n      swap3\n      swap2\n      pop\n      pop\n      jump\t// out\n        /* \"#utility.yul\":4341:4456   */\n    tag_56:\n        /* \"#utility.yul\":4426:4449   */\n      tag_108\n        /* \"#utility.yul\":4443:4448   */\n      dup2\n        /* \"#utility.yul\":4426:4449   */\n      tag_40\n      jump\t// in\n    tag_108:\n        /* \"#utility.yul\":4421:4424   */\n      dup3\n        /* \"#utility.yul\":4414:4450   */\n      mstore\n        /* \"#utility.yul\":4341:4456   */\n      pop\n      pop\n      jump\t// out\n        /* \"#utility.yul\":4462:4790   */\n    tag_29:\n        /* \"#utility.yul\":4581:4585   */\n      0x00\n        /* \"#utility.yul\":4619:4621   */\n      0x40\n        /* \"#utility.yul\":4608:4617   */\n      dup3\n        /* \"#utility.yul\":4604:4622   */\n      add\n        /* \"#utility.yul\":4596:4622   */\n      swap1\n      pop\n        /* \"#utility.yul\":4632:4703   */\n      tag_110\n        /* \"#utility.yul\":4700:4701   */\n      0x00\n        /* \"#utility.yul\":4689:4698   */\n      dup4\n        /* \"#utility.yul\":4685:4702   */\n      add\n        /* \"#utility.yul\":4676:4682   */\n      dup6\n        /* \"#utility.yul\":4632:4703   */\n      tag_45\n      jump\t// in\n    tag_110:\n        /* \"#utility.yul\":4713:4783   */\n      tag_111\n        /* \"#utility.yul\":4779:4781   */\n      0x20\n        /* \"#utility.yul\":4768:4777   */\n      dup4\n        /* \"#utility.yul\":4764:4782   */\n      add\n        /* \"#utility.yul\":4755:4761   */\n      dup5\n        /* \"#utility.yul\":4713:4783   */\n      tag_56\n      jump\t// in\n    tag_111:\n        /* \"#utility.yul\":4462:4790   */\n      swap4\n      swap3\n      pop\n      pop\n      pop\n      jump\t// out\n    stop\n\n    sub_0: assembly {\n            /* \"Product.sol\":993:5140  contract ProductManager {... */\n          mstore(0x40, 0x80)\n            /* \"Product.sol\":1609:1716  constructor(address creator, uint96 _epc)  {... */\n          callvalue\n          dup1\n          iszero\n          tag_1\n          jumpi\n          0x00\n          dup1\n          revert\n        tag_1:\n          pop\n          mload(0x40)\n          sub(codesize, bytecodeSize)\n          dup1\n          bytecodeSize\n          dup4\n          codecopy\n          dup2\n          dup2\n          add\n          0x40\n          mstore\n          dup2\n          add\n          swap1\n          tag_2\n          swap2\n          swap1\n          tag_3\n          jump\t// in\n        tag_2:\n            /* \"Product.sol\":1671:1678  creator */\n          dup2\n            /* \"Product.sol\":1663:1668  owner */\n          0x01\n          0x00\n            /* \"Product.sol\":1663:1678  owner = creator */\n          0x0100\n          exp\n          dup2\n          sload\n          dup2\n          0xffffffffffffffffffffffffffffffffffffffff\n          mul\n          not\n          and\n          swap1\n          dup4\n          0xffffffffffffffffffffffffffffffffffffffff\n          and\n          mul\n          or\n          swap1\n          sstore\n          pop\n            /* \"Product.sol\":1689:1708  enrollProduct(_epc) */\n          tag_6\n            /* \"Product.sol\":1703:1707  _epc */\n          dup2\n            /* \"Product.sol\":1689:1702  enrollProduct */\n          shl(0x20, tag_7)\n            /* \"Product.sol\":1689:1708  enrollProduct(_epc) */\n          0x20\n          shr\n          jump\t// in\n        tag_6:\n            /* \"Product.sol\":1609:1716  constructor(address creator, uint96 _epc)  {... */\n          pop\n          pop\n            /* \"Product.sol\":993:5140  contract ProductManager {... */\n          jump(tag_8)\n            /* \"Product.sol\":1724:2081  function enrollProduct(uint96 epc) private {... */\n        tag_7:\n            /* \"Product.sol\":1879:2038  Product({... */\n          mload(0x40)\n          dup1\n          0x80\n          add\n          0x40\n          mstore\n          dup1\n            /* \"Product.sol\":1907:1910  epc */\n          dup3\n            /* \"Product.sol\":1879:2038  Product({... */\n          0xffffffffffffffffffffffff\n          and\n          dup2\n          mstore\n          0x20\n          add\n            /* \"Product.sol\":1932:1952  ProductState.Created */\n          0x00\n            /* \"Product.sol\":1879:2038  Product({... */\n          0x03\n          dup2\n          gt\n          iszero\n          tag_10\n          jumpi\n          tag_11\n          tag_12\n          jump\t// in\n        tag_11:\n        tag_10:\n          dup2\n          mstore\n          0x20\n          add\n            /* \"Product.sol\":1974:1997  RoutePhase.Manufacturer */\n          0x00\n            /* \"Product.sol\":1879:2038  Product({... */\n          0x03\n          dup2\n          gt\n          iszero\n          tag_13\n          jumpi\n          tag_14\n          tag_12\n          jump\t// in\n        tag_14:\n        tag_13:\n          dup2\n          mstore\n          0x20\n          add\n            /* \"Product.sol\":2025:2026  0 */\n          0x00\n            /* \"Product.sol\":1879:2038  Product({... */\n          0x03\n          signextend\n          dup2\n          mstore\n          pop\n            /* \"Product.sol\":1869:1876  product */\n          0x00\n            /* \"Product.sol\":1869:2038  product = Product({... */\n          dup1\n          dup3\n          add\n          mload\n          dup2\n          0x00\n          add\n          exp(0x0100, 0x00)\n          dup2\n          sload\n          dup2\n          0xffffffffffffffffffffffff\n          mul\n          not\n          and\n          swap1\n          dup4\n          0xffffffffffffffffffffffff\n          and\n          mul\n          or\n          swap1\n          sstore\n          pop\n          0x20\n          dup3\n          add\n          mload\n          dup2\n          0x00\n          add\n          exp(0x0100, 0x0c)\n          dup2\n          sload\n          dup2\n          0xff\n          mul\n          not\n          and\n          swap1\n          dup4\n          0x03\n          dup2\n          gt\n          iszero\n          tag_15\n          jumpi\n          tag_16\n          tag_12\n          jump\t// in\n        tag_16:\n        tag_15:\n          mul\n          or\n          swap1\n          sstore\n          pop\n          0x40\n          dup3\n          add\n          mload\n          dup2\n          0x00\n          add\n          exp(0x0100, 0x0d)\n          dup2\n          sload\n          dup2\n          0xff\n          mul\n          not\n          and\n          swap1\n          dup4\n          0x03\n          dup2\n          gt\n          iszero\n          tag_17\n          jumpi\n          tag_18\n          tag_12\n          jump\t// in\n        tag_18:\n        tag_17:\n          mul\n          or\n          swap1\n          sstore\n          pop\n          0x60\n          dup3\n          add\n          mload\n          dup2\n          0x00\n          add\n          exp(0x0100, 0x0e)\n          dup2\n          sload\n          dup2\n          0xffffffff\n          mul\n          not\n          and\n          swap1\n          dup4\n          0x03\n          signextend\n          0xffffffff\n          and\n          mul\n          or\n          swap1\n          sstore\n          pop\n          swap1\n          pop\n          pop\n            /* \"Product.sol\":2067:2072  owner */\n          0x01\n          0x00\n          swap1\n          sload\n          swap1\n          0x0100\n          exp\n          swap1\n          div\n          0xffffffffffffffffffffffffffffffffffffffff\n          and\n            /* \"Product.sol\":2049:2055  seller */\n          0x02\n          0x00\n            /* \"Product.sol\":2049:2073  seller = payable (owner) */\n          0x0100\n          exp\n          dup2\n          sload\n          dup2\n          0xffffffffffffffffffffffffffffffffffffffff\n          mul\n          not\n          and\n          swap1\n          dup4\n          0xffffffffffffffffffffffffffffffffffffffff\n          and\n          mul\n          or\n          swap1\n          sstore\n          pop\n            /* \"Product.sol\":1724:2081  function enrollProduct(uint96 epc) private {... */\n          pop\n          jump\t// out\n            /* \"#utility.yul\":88:205   */\n        tag_20:\n            /* \"#utility.yul\":197:198   */\n          0x00\n            /* \"#utility.yul\":194:195   */\n          dup1\n            /* \"#utility.yul\":187:199   */\n          revert\n            /* \"#utility.yul\":334:460   */\n        tag_22:\n            /* \"#utility.yul\":371:378   */\n          0x00\n            /* \"#utility.yul\":411:453   */\n          0xffffffffffffffffffffffffffffffffffffffff\n            /* \"#utility.yul\":404:409   */\n          dup3\n            /* \"#utility.yul\":400:454   */\n          and\n            /* \"#utility.yul\":389:454   */\n          swap1\n          pop\n            /* \"#utility.yul\":334:460   */\n          swap2\n          swap1\n          pop\n          jump\t// out\n            /* \"#utility.yul\":466:562   */\n        tag_23:\n            /* \"#utility.yul\":503:510   */\n          0x00\n            /* \"#utility.yul\":532:556   */\n          tag_35\n            /* \"#utility.yul\":550:555   */\n          dup3\n            /* \"#utility.yul\":532:556   */\n          tag_22\n          jump\t// in\n        tag_35:\n            /* \"#utility.yul\":521:556   */\n          swap1\n          pop\n            /* \"#utility.yul\":466:562   */\n          swap2\n          swap1\n          pop\n          jump\t// out\n            /* \"#utility.yul\":568:690   */\n        tag_24:\n            /* \"#utility.yul\":641:665   */\n          tag_37\n            /* \"#utility.yul\":659:664   */\n          dup2\n            /* \"#utility.yul\":641:665   */\n          tag_23\n          jump\t// in\n        tag_37:\n            /* \"#utility.yul\":634:639   */\n          dup2\n            /* \"#utility.yul\":631:666   */\n          eq\n            /* \"#utility.yul\":621:684   */\n          tag_38\n          jumpi\n            /* \"#utility.yul\":680:681   */\n          0x00\n            /* \"#utility.yul\":677:678   */\n          dup1\n            /* \"#utility.yul\":670:682   */\n          revert\n            /* \"#utility.yul\":621:684   */\n        tag_38:\n            /* \"#utility.yul\":568:690   */\n          pop\n          jump\t// out\n            /* \"#utility.yul\":696:839   */\n        tag_25:\n            /* \"#utility.yul\":753:758   */\n          0x00\n            /* \"#utility.yul\":784:790   */\n          dup2\n            /* \"#utility.yul\":778:791   */\n          mload\n            /* \"#utility.yul\":769:791   */\n          swap1\n          pop\n            /* \"#utility.yul\":800:833   */\n          tag_40\n            /* \"#utility.yul\":827:832   */\n          dup2\n            /* \"#utility.yul\":800:833   */\n          tag_24\n          jump\t// in\n        tag_40:\n            /* \"#utility.yul\":696:839   */\n          swap3\n          swap2\n          pop\n          pop\n          jump\t// out\n            /* \"#utility.yul\":845:954   */\n        tag_26:\n            /* \"#utility.yul\":881:888   */\n          0x00\n            /* \"#utility.yul\":921:947   */\n          0xffffffffffffffffffffffff\n            /* \"#utility.yul\":914:919   */\n          dup3\n            /* \"#utility.yul\":910:948   */\n          and\n            /* \"#utility.yul\":899:948   */\n          swap1\n          pop\n            /* \"#utility.yul\":845:954   */\n          swap2\n          swap1\n          pop\n          jump\t// out\n            /* \"#utility.yul\":960:1080   */\n        tag_27:\n            /* \"#utility.yul\":1032:1055   */\n          tag_43\n            /* \"#utility.yul\":1049:1054   */\n          dup2\n            /* \"#utility.yul\":1032:1055   */\n          tag_26\n          jump\t// in\n        tag_43:\n            /* \"#utility.yul\":1025:1030   */\n          dup2\n            /* \"#utility.yul\":1022:1056   */\n          eq\n            /* \"#utility.yul\":1012:1074   */\n          tag_44\n          jumpi\n            /* \"#utility.yul\":1070:1071   */\n          0x00\n            /* \"#utility.yul\":1067:1068   */\n          dup1\n            /* \"#utility.yul\":1060:1072   */\n          revert\n            /* \"#utility.yul\":1012:1074   */\n        tag_44:\n            /* \"#utility.yul\":960:1080   */\n          pop\n          jump\t// out\n            /* \"#utility.yul\":1086:1227   */\n        tag_28:\n            /* \"#utility.yul\":1142:1147   */\n          0x00\n            /* \"#utility.yul\":1173:1179   */\n          dup2\n            /* \"#utility.yul\":1167:1180   */\n          mload\n            /* \"#utility.yul\":1158:1180   */\n          swap1\n          pop\n            /* \"#utility.yul\":1189:1221   */\n          tag_46\n            /* \"#utility.yul\":1215:1220   */\n          dup2\n            /* \"#utility.yul\":1189:1221   */\n          tag_27\n          jump\t// in\n        tag_46:\n            /* \"#utility.yul\":1086:1227   */\n          swap3\n          swap2\n          pop\n          pop\n          jump\t// out\n            /* \"#utility.yul\":1233:1738   */\n        tag_3:\n            /* \"#utility.yul\":1311:1317   */\n          0x00\n            /* \"#utility.yul\":1319:1325   */\n          dup1\n            /* \"#utility.yul\":1368:1370   */\n          0x40\n            /* \"#utility.yul\":1356:1365   */\n          dup4\n            /* \"#utility.yul\":1347:1354   */\n          dup6\n            /* \"#utility.yul\":1343:1366   */\n          sub\n            /* \"#utility.yul\":1339:1371   */\n          slt\n            /* \"#utility.yul\":1336:1455   */\n          iszero\n          tag_48\n          jumpi\n            /* \"#utility.yul\":1374:1453   */\n          tag_49\n          tag_20\n          jump\t// in\n        tag_49:\n            /* \"#utility.yul\":1336:1455   */\n        tag_48:\n            /* \"#utility.yul\":1494:1495   */\n          0x00\n            /* \"#utility.yul\":1519:1583   */\n          tag_50\n            /* \"#utility.yul\":1575:1582   */\n          dup6\n            /* \"#utility.yul\":1566:1572   */\n          dup3\n            /* \"#utility.yul\":1555:1564   */\n          dup7\n            /* \"#utility.yul\":1551:1573   */\n          add\n            /* \"#utility.yul\":1519:1583   */\n          tag_25\n          jump\t// in\n        tag_50:\n            /* \"#utility.yul\":1509:1583   */\n          swap3\n          pop\n            /* \"#utility.yul\":1465:1593   */\n          pop\n            /* \"#utility.yul\":1632:1634   */\n          0x20\n            /* \"#utility.yul\":1658:1721   */\n          tag_51\n            /* \"#utility.yul\":1713:1720   */\n          dup6\n            /* \"#utility.yul\":1704:1710   */\n          dup3\n            /* \"#utility.yul\":1693:1702   */\n          dup7\n            /* \"#utility.yul\":1689:1711   */\n          add\n            /* \"#utility.yul\":1658:1721   */\n          tag_28\n          jump\t// in\n        tag_51:\n            /* \"#utility.yul\":1648:1721   */\n          swap2\n          pop\n            /* \"#utility.yul\":1603:1731   */\n          pop\n            /* \"#utility.yul\":1233:1738   */\n          swap3\n          pop\n          swap3\n          swap1\n          pop\n          jump\t// out\n            /* \"#utility.yul\":1744:1924   */\n        tag_12:\n            /* \"#utility.yul\":1792:1869   */\n          0x4e487b7100000000000000000000000000000000000000000000000000000000\n            /* \"#utility.yul\":1789:1790   */\n          0x00\n            /* \"#utility.yul\":1782:1870   */\n          mstore\n            /* \"#utility.yul\":1889:1893   */\n          0x21\n            /* \"#utility.yul\":1886:1887   */\n          0x04\n            /* \"#utility.yul\":1879:1894   */\n          mstore\n            /* \"#utility.yul\":1913:1917   */\n          0x24\n            /* \"#utility.yul\":1910:1911   */\n          0x00\n            /* \"#utility.yul\":1903:1918   */\n          revert\n            /* \"Product.sol\":993:5140  contract ProductManager {... */\n        tag_8:\n          dataSize(sub_0)\n          dup1\n          dataOffset(sub_0)\n          0x00\n          codecopy\n          0x00\n          return\n        stop\n\n        sub_0: assembly {\n                /* \"Product.sol\":993:5140  contract ProductManager {... */\n              mstore(0x40, 0x80)\n              jumpi(tag_1, lt(calldatasize, 0x04))\n              shr(0xe0, calldataload(0x00))\n              dup1\n              0x5b9d413e\n              gt\n              tag_16\n              jumpi\n              dup1\n              0x8da5cb5b\n              gt\n              tag_17\n              jumpi\n              dup1\n              0x8da5cb5b\n              eq\n              tag_12\n              jumpi\n              dup1\n              0xcf40d5a6\n              eq\n              tag_13\n              jumpi\n              dup1\n              0xd02417b1\n              eq\n              tag_14\n              jumpi\n              dup1\n              0xfc72a385\n              eq\n              tag_15\n              jumpi\n              jump(tag_1)\n            tag_17:\n              dup1\n              0x5b9d413e\n              eq\n              tag_9\n              jumpi\n              dup1\n              0x7150d8ae\n              eq\n              tag_10\n              jumpi\n              dup1\n              0x755769e0\n              eq\n              tag_11\n              jumpi\n              jump(tag_1)\n            tag_16:\n              dup1\n              0x228cb733\n              gt\n              tag_18\n              jumpi\n              dup1\n              0x228cb733\n              eq\n              tag_5\n              jumpi\n              dup1\n              0x4a1f6125\n              eq\n              tag_6\n              jumpi\n              dup1\n              0x4c1249fc\n              eq\n              tag_7\n              jumpi\n              dup1\n              0x581e0882\n              eq\n              tag_8\n              jumpi\n              jump(tag_1)\n            tag_18:\n              dup1\n              0x08551a53\n              eq\n              tag_2\n              jumpi\n              dup1\n              0x1a61746e\n              eq\n              tag_3\n              jumpi\n              dup1\n              0x1e25f2df\n              eq\n              tag_4\n              jumpi\n            tag_1:\n              0x00\n              dup1\n              revert\n                /* \"Product.sol\":1096:1125  address payable public seller */\n            tag_2:\n              callvalue\n              dup1\n              iszero\n              tag_19\n              jumpi\n              0x00\n              dup1\n              revert\n            tag_19:\n              pop\n              tag_20\n              tag_21\n              jump\t// in\n            tag_20:\n              mload(0x40)\n              tag_22\n              swap2\n              swap1\n              tag_23\n              jump\t// in\n            tag_22:\n              mload(0x40)\n              dup1\n              swap2\n              sub\n              swap1\n              return\n                /* \"Product.sol\":4040:4089  function setBalance() public payable onlyOwner {} */\n            tag_3:\n              tag_24\n              tag_25\n              jump\t// in\n            tag_24:\n              stop\n                /* \"Product.sol\":4097:4200  function getBalanceToWei() public view returns(uint256) {... */\n            tag_4:\n              callvalue\n              dup1\n              iszero\n              tag_26\n              jumpi\n              0x00\n              dup1\n              revert\n            tag_26:\n              pop\n              tag_27\n              tag_28\n              jump\t// in\n            tag_27:\n              mload(0x40)\n              tag_29\n              swap2\n              swap1\n              tag_30\n              jump\t// in\n            tag_29:\n              mload(0x40)\n              dup1\n              swap2\n              sub\n              swap1\n              return\n                /* \"Product.sol\":1274:1295  uint256 public reward */\n            tag_5:\n              callvalue\n              dup1\n              iszero\n              tag_31\n              jumpi\n              0x00\n              dup1\n              revert\n            tag_31:\n              pop\n              tag_32\n              tag_33\n              jump\t// in\n            tag_32:\n              mload(0x40)\n              tag_34\n              swap2\n              swap1\n              tag_30\n              jump\t// in\n            tag_34:\n              mload(0x40)\n              dup1\n              swap2\n              sub\n              swap1\n              return\n                /* \"Product.sol\":3560:3666  function setRetailer(address finalRecipient) public onlyOwner {... */\n            tag_6:\n              callvalue\n              dup1\n              iszero\n              tag_35\n              jumpi\n              0x00\n              dup1\n              revert\n            tag_35:\n              pop\n              tag_36\n              0x04\n              dup1\n              calldatasize\n              sub\n              dup2\n              add\n              swap1\n              tag_37\n              swap2\n              swap1\n              tag_38\n              jump\t// in\n            tag_37:\n              tag_39\n              jump\t// in\n            tag_36:\n              stop\n                /* \"Product.sol\":1159:1182  address public retailer */\n            tag_7:\n              callvalue\n              dup1\n              iszero\n              tag_40\n              jumpi\n              0x00\n              dup1\n              revert\n            tag_40:\n              pop\n              tag_41\n              tag_42\n              jump\t// in\n            tag_41:\n              mload(0x40)\n              tag_43\n              swap2\n              swap1\n              tag_44\n              jump\t// in\n            tag_43:\n              mload(0x40)\n              dup1\n              swap2\n              sub\n              swap1\n              return\n                /* \"Product.sol\":2377:2694  function shipProduct(address recipient) public {... */\n            tag_8:\n              callvalue\n              dup1\n              iszero\n              tag_45\n              jumpi\n              0x00\n              dup1\n              revert\n            tag_45:\n              pop\n              tag_46\n              0x04\n              dup1\n              calldatasize\n              sub\n              dup2\n              add\n              swap1\n              tag_47\n              swap2\n              swap1\n              tag_38\n              jump\t// in\n            tag_47:\n              tag_48\n              jump\t// in\n            tag_46:\n              stop\n                /* \"Product.sol\":2702:3213  function receiveProduct() public {... */\n            tag_9:\n              callvalue\n              dup1\n              iszero\n              tag_49\n              jumpi\n              0x00\n              dup1\n              revert\n            tag_49:\n              pop\n              tag_50\n              tag_51\n              jump\t// in\n            tag_50:\n              stop\n                /* \"Product.sol\":1132:1152  address public buyer */\n            tag_10:\n              callvalue\n              dup1\n              iszero\n              tag_52\n              jumpi\n              0x00\n              dup1\n              revert\n            tag_52:\n              pop\n              tag_53\n              tag_54\n              jump\t// in\n            tag_53:\n              mload(0x40)\n              tag_55\n              swap2\n              swap1\n              tag_44\n              jump\t// in\n            tag_55:\n              mload(0x40)\n              dup1\n              swap2\n              sub\n              swap1\n              return\n                /* \"Product.sol\":4403:4665  function setLimitQualityValue(int32 min, int32 max) public onlyOwner {... */\n            tag_11:\n              callvalue\n              dup1\n              iszero\n              tag_56\n              jumpi\n              0x00\n              dup1\n              revert\n            tag_56:\n              pop\n              tag_57\n              0x04\n              dup1\n              calldatasize\n              sub\n              dup2\n              add\n              swap1\n              tag_58\n              swap2\n              swap1\n              tag_59\n              jump\t// in\n            tag_58:\n              tag_60\n              jump\t// in\n            tag_57:\n              stop\n                /* \"Product.sol\":1052:1072  address public owner */\n            tag_12:\n              callvalue\n              dup1\n              iszero\n              tag_61\n              jumpi\n              0x00\n              dup1\n              revert\n            tag_61:\n              pop\n              tag_62\n              tag_63\n              jump\t// in\n            tag_62:\n              mload(0x40)\n              tag_64\n              swap2\n              swap1\n              tag_44\n              jump\t// in\n            tag_64:\n              mload(0x40)\n              dup1\n              swap2\n              sub\n              swap1\n              return\n                /* \"Product.sol\":4673:5032  function setQualityInfo(int32 info) public {... */\n            tag_13:\n              callvalue\n              dup1\n              iszero\n              tag_65\n              jumpi\n              0x00\n              dup1\n              revert\n            tag_65:\n              pop\n              tag_66\n              0x04\n              dup1\n              calldatasize\n              sub\n              dup2\n              add\n              swap1\n              tag_67\n              swap2\n              swap1\n              tag_68\n              jump\t// in\n            tag_67:\n              tag_69\n              jump\t// in\n            tag_66:\n              stop\n                /* \"Product.sol\":2216:2369  function setRewardToWei(uint256 _reward, uint8 _maxTransfers) public onlyOwner {... */\n            tag_14:\n              callvalue\n              dup1\n              iszero\n              tag_70\n              jumpi\n              0x00\n              dup1\n              revert\n            tag_70:\n              pop\n              tag_71\n              0x04\n              dup1\n              calldatasize\n              sub\n              dup2\n              add\n              swap1\n              tag_72\n              swap2\n              swap1\n              tag_73\n              jump\t// in\n            tag_72:\n              tag_74\n              jump\t// in\n            tag_71:\n              stop\n                /* \"Product.sol\":4208:4395  function getProductInfo() public view returns... */\n            tag_15:\n              callvalue\n              dup1\n              iszero\n              tag_75\n              jumpi\n              0x00\n              dup1\n              revert\n            tag_75:\n              pop\n              tag_76\n              tag_77\n              jump\t// in\n            tag_76:\n              mload(0x40)\n              tag_78\n              swap5\n              swap4\n              swap3\n              swap2\n              swap1\n              tag_79\n              jump\t// in\n            tag_78:\n              mload(0x40)\n              dup1\n              swap2\n              sub\n              swap1\n              return\n                /* \"Product.sol\":1096:1125  address payable public seller */\n            tag_21:\n              0x02\n              0x00\n              swap1\n              sload\n              swap1\n              0x0100\n              exp\n              swap1\n              div\n              0xffffffffffffffffffffffffffffffffffffffff\n              and\n              dup2\n              jump\t// out\n                /* \"Product.sol\":4040:4089  function setBalance() public payable onlyOwner {} */\n            tag_25:\n                /* \"Product.sol\":1575:1580  owner */\n              0x01\n              0x00\n              swap1\n              sload\n              swap1\n              0x0100\n              exp\n              swap1\n              div\n              0xffffffffffffffffffffffffffffffffffffffff\n              and\n                /* \"Product.sol\":1561:1580  msg.sender == owner */\n              0xffffffffffffffffffffffffffffffffffffffff\n              and\n                /* \"Product.sol\":1561:1571  msg.sender */\n              caller\n                /* \"Product.sol\":1561:1580  msg.sender == owner */\n              0xffffffffffffffffffffffffffffffffffffffff\n              and\n              eq\n                /* \"Product.sol\":1553:1581  require(msg.sender == owner) */\n              tag_81\n              jumpi\n              0x00\n              dup1\n              revert\n            tag_81:\n                /* \"Product.sol\":4040:4089  function setBalance() public payable onlyOwner {} */\n              jump\t// out\n                /* \"Product.sol\":4097:4200  function getBalanceToWei() public view returns(uint256) {... */\n            tag_28:\n                /* \"Product.sol\":4144:4151  uint256 */\n              0x00\n                /* \"Product.sol\":4171:4192  address(this).balance */\n              selfbalance\n                /* \"Product.sol\":4164:4192  return address(this).balance */\n              swap1\n              pop\n                /* \"Product.sol\":4097:4200  function getBalanceToWei() public view returns(uint256) {... */\n              swap1\n              jump\t// out\n                /* \"Product.sol\":1274:1295  uint256 public reward */\n            tag_33:\n              sload(0x05)\n              dup2\n              jump\t// out\n                /* \"Product.sol\":3560:3666  function setRetailer(address finalRecipient) public onlyOwner {... */\n            tag_39:\n                /* \"Product.sol\":1575:1580  owner */\n              0x01\n              0x00\n              swap1\n              sload\n              swap1\n              0x0100\n              exp\n              swap1\n              div\n              0xffffffffffffffffffffffffffffffffffffffff\n              and\n                /* \"Product.sol\":1561:1580  msg.sender == owner */\n              0xffffffffffffffffffffffffffffffffffffffff\n              and\n                /* \"Product.sol\":1561:1571  msg.sender */\n              caller\n                /* \"Product.sol\":1561:1580  msg.sender == owner */\n              0xffffffffffffffffffffffffffffffffffffffff\n              and\n              eq\n                /* \"Product.sol\":1553:1581  require(msg.sender == owner) */\n              tag_85\n              jumpi\n              0x00\n              dup1\n              revert\n            tag_85:\n                /* \"Product.sol\":3644:3658  finalRecipient */\n              dup1\n                /* \"Product.sol\":3633:3641  retailer */\n              0x04\n              0x00\n                /* \"Product.sol\":3633:3658  retailer = finalRecipient */\n              0x0100\n              exp\n              dup2\n              sload\n              dup2\n              0xffffffffffffffffffffffffffffffffffffffff\n              mul\n              not\n              and\n              swap1\n              dup4\n              0xffffffffffffffffffffffffffffffffffffffff\n              and\n              mul\n              or\n              swap1\n              sstore\n              pop\n                /* \"Product.sol\":3560:3666  function setRetailer(address finalRecipient) public onlyOwner {... */\n              pop\n              jump\t// out\n                /* \"Product.sol\":1159:1182  address public retailer */\n            tag_42:\n              0x04\n              0x00\n              swap1\n              sload\n              swap1\n              0x0100\n              exp\n              swap1\n              div\n              0xffffffffffffffffffffffffffffffffffffffff\n              and\n              dup2\n              jump\t// out\n                /* \"Product.sol\":2377:2694  function shipProduct(address recipient) public {... */\n            tag_48:\n                /* \"Product.sol\":2453:2463  msg.sender */\n              caller\n                /* \"Product.sol\":2443:2463  seller == msg.sender */\n              0xffffffffffffffffffffffffffffffffffffffff\n              and\n                /* \"Product.sol\":2443:2449  seller */\n              0x02\n              0x00\n              swap1\n              sload\n              swap1\n              0x0100\n              exp\n              swap1\n              div\n              0xffffffffffffffffffffffffffffffffffffffff\n              and\n                /* \"Product.sol\":2443:2463  seller == msg.sender */\n              0xffffffffffffffffffffffffffffffffffffffff\n              and\n              eq\n                /* \"Product.sol\":2443:2486  seller == msg.sender && seller != recipient */\n              dup1\n              iszero\n              tag_88\n              jumpi\n              pop\n                /* \"Product.sol\":2477:2486  recipient */\n              dup1\n                /* \"Product.sol\":2467:2486  seller != recipient */\n              0xffffffffffffffffffffffffffffffffffffffff\n              and\n                /* \"Product.sol\":2467:2473  seller */\n              0x02\n              0x00\n              swap1\n              sload\n              swap1\n              0x0100\n              exp\n              swap1\n              div\n              0xffffffffffffffffffffffffffffffffffffffff\n              and\n                /* \"Product.sol\":2467:2486  seller != recipient */\n              0xffffffffffffffffffffffffffffffffffffffff\n              and\n              eq\n              iszero\n                /* \"Product.sol\":2443:2486  seller == msg.sender && seller != recipient */\n            tag_88:\n                /* \"Product.sol\":2435:2563  require(seller == msg.sender && seller != recipient,... */\n              tag_89\n              jumpi\n              mload(0x40)\n              0x08c379a000000000000000000000000000000000000000000000000000000000\n              dup2\n              mstore\n              0x04\n              add\n              tag_90\n              swap1\n              tag_91\n              jump\t// in\n            tag_90:\n              mload(0x40)\n              dup1\n              swap2\n              sub\n              swap1\n              revert\n            tag_89:\n                /* \"Product.sol\":2590:2610  ProductState.Shipped */\n              0x01\n                /* \"Product.sol\":2574:2581  product */\n              0x00\n                /* \"Product.sol\":2574:2587  product.state */\n              dup1\n              add\n              0x0c\n                /* \"Product.sol\":2574:2610  product.state = ProductState.Shipped */\n              0x0100\n              exp\n              dup2\n              sload\n              dup2\n              0xff\n              mul\n              not\n              and\n              swap1\n              dup4\n              0x03\n              dup2\n              gt\n              iszero\n              tag_92\n              jumpi\n              tag_93\n              tag_94\n              jump\t// in\n            tag_93:\n            tag_92:\n              mul\n              or\n              swap1\n              sstore\n              pop\n                /* \"Product.sol\":2639:2648  recipient */\n              dup1\n                /* \"Product.sol\":2631:2636  buyer */\n              0x03\n              0x00\n                /* \"Product.sol\":2631:2648  buyer = recipient */\n              0x0100\n              exp\n              dup2\n              sload\n              dup2\n              0xffffffffffffffffffffffffffffffffffffffff\n              mul\n              not\n              and\n              swap1\n              dup4\n              0xffffffffffffffffffffffffffffffffffffffff\n              and\n              mul\n              or\n              swap1\n              sstore\n              pop\n                /* \"Product.sol\":2664:2686  Shipped(seller, buyer) */\n              0x4cda03c40a91251de090a894ea66b12aab81e02ae100aa362c7f1800b3fb3af0\n                /* \"Product.sol\":2672:2678  seller */\n              0x02\n              0x00\n              swap1\n              sload\n              swap1\n              0x0100\n              exp\n              swap1\n              div\n              0xffffffffffffffffffffffffffffffffffffffff\n              and\n                /* \"Product.sol\":2680:2685  buyer */\n              0x03\n              0x00\n              swap1\n              sload\n              swap1\n              0x0100\n              exp\n              swap1\n              div\n              0xffffffffffffffffffffffffffffffffffffffff\n              and\n                /* \"Product.sol\":2664:2686  Shipped(seller, buyer) */\n              mload(0x40)\n              tag_95\n              swap3\n              swap2\n              swap1\n              tag_96\n              jump\t// in\n            tag_95:\n              mload(0x40)\n              dup1\n              swap2\n              sub\n              swap1\n              log1\n                /* \"Product.sol\":2377:2694  function shipProduct(address recipient) public {... */\n              pop\n              jump\t// out\n                /* \"Product.sol\":2702:3213  function receiveProduct() public {... */\n            tag_51:\n                /* \"Product.sol\":2763:2773  msg.sender */\n              caller\n                /* \"Product.sol\":2754:2773  buyer == msg.sender */\n              0xffffffffffffffffffffffffffffffffffffffff\n              and\n                /* \"Product.sol\":2754:2759  buyer */\n              0x03\n              0x00\n              swap1\n              sload\n              swap1\n              0x0100\n              exp\n              swap1\n              div\n              0xffffffffffffffffffffffffffffffffffffffff\n              and\n                /* \"Product.sol\":2754:2773  buyer == msg.sender */\n              0xffffffffffffffffffffffffffffffffffffffff\n              and\n              eq\n                /* \"Product.sol\":2746:2814  require(buyer == msg.sender,... */\n              tag_98\n              jumpi\n              mload(0x40)\n              0x08c379a000000000000000000000000000000000000000000000000000000000\n              dup2\n              mstore\n              0x04\n              add\n              tag_99\n              swap1\n              tag_100\n              jump\t// in\n            tag_99:\n              mload(0x40)\n              dup1\n              swap2\n              sub\n              swap1\n              revert\n            tag_98:\n                /* \"Product.sol\":2841:2862  ProductState.Received */\n              0x02\n                /* \"Product.sol\":2825:2832  product */\n              0x00\n                /* \"Product.sol\":2825:2838  product.state */\n              dup1\n              add\n              0x0c\n                /* \"Product.sol\":2825:2862  product.state = ProductState.Received */\n              0x0100\n              exp\n              dup2\n              sload\n              dup2\n              0xff\n              mul\n              not\n              and\n              swap1\n              dup4\n              0x03\n              dup2\n              gt\n              iszero\n              tag_101\n              jumpi\n              tag_102\n              tag_94\n              jump\t// in\n            tag_102:\n            tag_101:\n              mul\n              or\n              swap1\n              sstore\n              pop\n                /* \"Product.sol\":2873:2893  sendRewardToSeller() */\n              tag_103\n                /* \"Product.sol\":2873:2891  sendRewardToSeller */\n              tag_104\n                /* \"Product.sol\":2873:2893  sendRewardToSeller() */\n              jump\t// in\n            tag_103:\n                /* \"Product.sol\":2911:2934  Received(seller, buyer) */\n              0xed18e4ff9a34ca798175f13860716b45ab01a68d54e9f4bc73ebd8eb15939b04\n                /* \"Product.sol\":2920:2926  seller */\n              0x02\n              0x00\n              swap1\n              sload\n              swap1\n              0x0100\n              exp\n              swap1\n              div\n              0xffffffffffffffffffffffffffffffffffffffff\n              and\n                /* \"Product.sol\":2928:2933  buyer */\n              0x03\n              0x00\n              swap1\n              sload\n              swap1\n              0x0100\n              exp\n              swap1\n              div\n              0xffffffffffffffffffffffffffffffffffffffff\n              and\n                /* \"Product.sol\":2911:2934  Received(seller, buyer) */\n              mload(0x40)\n              tag_105\n              swap3\n              swap2\n              swap1\n              tag_96\n              jump\t// in\n            tag_105:\n              mload(0x40)\n              dup1\n              swap2\n              sub\n              swap1\n              log1\n                /* \"Product.sol\":2963:2968  buyer */\n              0x03\n              0x00\n              swap1\n              sload\n              swap1\n              0x0100\n              exp\n              swap1\n              div\n              0xffffffffffffffffffffffffffffffffffffffff\n              and\n                /* \"Product.sol\":2945:2951  seller */\n              0x02\n              0x00\n                /* \"Product.sol\":2945:2969  seller = payable (buyer) */\n              0x0100\n              exp\n              dup2\n              sload\n              dup2\n              0xffffffffffffffffffffffffffffffffffffffff\n              mul\n              not\n              and\n              swap1\n              dup4\n              0xffffffffffffffffffffffffffffffffffffffff\n              and\n              mul\n              or\n              swap1\n              sstore\n              pop\n                /* \"Product.sol\":2996:2997  0 */\n              0x00\n                /* \"Product.sol\":2980:2985  buyer */\n              0x03\n              0x00\n                /* \"Product.sol\":2980:2998  buyer = address(0) */\n              0x0100\n              exp\n              dup2\n              sload\n              dup2\n              0xffffffffffffffffffffffffffffffffffffffff\n              mul\n              not\n              and\n              swap1\n              dup4\n              0xffffffffffffffffffffffffffffffffffffffff\n              and\n              mul\n              or\n              swap1\n              sstore\n              pop\n                /* \"Product.sol\":3025:3030  owner */\n              0x01\n              0x00\n              swap1\n              sload\n              swap1\n              0x0100\n              exp\n              swap1\n              div\n              0xffffffffffffffffffffffffffffffffffffffff\n              and\n                /* \"Product.sol\":3015:3030  seller != owner */\n              0xffffffffffffffffffffffffffffffffffffffff\n              and\n                /* \"Product.sol\":3015:3021  seller */\n              0x02\n              0x00\n              swap1\n              sload\n              swap1\n              0x0100\n              exp\n              swap1\n              div\n              0xffffffffffffffffffffffffffffffffffffffff\n              and\n                /* \"Product.sol\":3015:3030  seller != owner */\n              0xffffffffffffffffffffffffffffffffffffffff\n              and\n              eq\n              iszero\n                /* \"Product.sol\":3015:3052  seller != owner && seller != retailer */\n              dup1\n              iszero\n              tag_106\n              jumpi\n              pop\n                /* \"Product.sol\":3044:3052  retailer */\n              0x04\n              0x00\n              swap1\n              sload\n              swap1\n              0x0100\n              exp\n              swap1\n              div\n              0xffffffffffffffffffffffffffffffffffffffff\n              and\n                /* \"Product.sol\":3034:3052  seller != retailer */\n              0xffffffffffffffffffffffffffffffffffffffff\n              and\n                /* \"Product.sol\":3034:3040  seller */\n              0x02\n              0x00\n              swap1\n              sload\n              swap1\n              0x0100\n              exp\n              swap1\n              div\n              0xffffffffffffffffffffffffffffffffffffffff\n              and\n                /* \"Product.sol\":3034:3052  seller != retailer */\n              0xffffffffffffffffffffffffffffffffffffffff\n              and\n              eq\n              iszero\n                /* \"Product.sol\":3015:3052  seller != owner && seller != retailer */\n            tag_106:\n                /* \"Product.sol\":3011:3116  if (seller != owner && seller != retailer) {... */\n              iszero\n              tag_107\n              jumpi\n                /* \"Product.sol\":3069:3104  setPhase(RoutePhase.Intra_Logistic) */\n              tag_108\n                /* \"Product.sol\":3078:3103  RoutePhase.Intra_Logistic */\n              0x01\n                /* \"Product.sol\":3069:3077  setPhase */\n              tag_109\n                /* \"Product.sol\":3069:3104  setPhase(RoutePhase.Intra_Logistic) */\n              jump\t// in\n            tag_108:\n                /* \"Product.sol\":3011:3116  if (seller != owner && seller != retailer) {... */\n            tag_107:\n                /* \"Product.sol\":3150:3158  retailer */\n              0x04\n              0x00\n              swap1\n              sload\n              swap1\n              0x0100\n              exp\n              swap1\n              div\n              0xffffffffffffffffffffffffffffffffffffffff\n              and\n                /* \"Product.sol\":3140:3158  seller == retailer */\n              0xffffffffffffffffffffffffffffffffffffffff\n              and\n                /* \"Product.sol\":3140:3146  seller */\n              0x02\n              0x00\n              swap1\n              sload\n              swap1\n              0x0100\n              exp\n              swap1\n              div\n              0xffffffffffffffffffffffffffffffffffffffff\n              and\n                /* \"Product.sol\":3140:3158  seller == retailer */\n              0xffffffffffffffffffffffffffffffffffffffff\n              and\n              eq\n                /* \"Product.sol\":3136:3206  if (seller == retailer) {... */\n              iszero\n              tag_110\n              jumpi\n                /* \"Product.sol\":3175:3194  CompleteProcedure() */\n              tag_111\n                /* \"Product.sol\":3175:3192  CompleteProcedure */\n              tag_112\n                /* \"Product.sol\":3175:3194  CompleteProcedure() */\n              jump\t// in\n            tag_111:\n                /* \"Product.sol\":3136:3206  if (seller == retailer) {... */\n            tag_110:\n                /* \"Product.sol\":2702:3213  function receiveProduct() public {... */\n              jump\t// out\n                /* \"Product.sol\":1132:1152  address public buyer */\n            tag_54:\n              0x03\n              0x00\n              swap1\n              sload\n              swap1\n              0x0100\n              exp\n              swap1\n              div\n              0xffffffffffffffffffffffffffffffffffffffff\n              and\n              dup2\n              jump\t// out\n                /* \"Product.sol\":4403:4665  function setLimitQualityValue(int32 min, int32 max) public onlyOwner {... */\n            tag_60:\n                /* \"Product.sol\":1575:1580  owner */\n              0x01\n              0x00\n              swap1\n              sload\n              swap1\n              0x0100\n              exp\n              swap1\n              div\n              0xffffffffffffffffffffffffffffffffffffffff\n              and\n                /* \"Product.sol\":1561:1580  msg.sender == owner */\n              0xffffffffffffffffffffffffffffffffffffffff\n              and\n                /* \"Product.sol\":1561:1571  msg.sender */\n              caller\n                /* \"Product.sol\":1561:1580  msg.sender == owner */\n              0xffffffffffffffffffffffffffffffffffffffff\n              and\n              eq\n                /* \"Product.sol\":1553:1581  require(msg.sender == owner) */\n              tag_114\n              jumpi\n              0x00\n              dup1\n              revert\n            tag_114:\n                /* \"Product.sol\":4510:4511  0 */\n              0x00\n                /* \"Product.sol\":4491:4506  minQualityValue */\n              0x04\n              0x14\n              swap1\n              sload\n              swap1\n              0x0100\n              exp\n              swap1\n              div\n              0x03\n              signextend\n                /* \"Product.sol\":4491:4511  minQualityValue == 0 */\n              0x03\n              signextend\n              eq\n                /* \"Product.sol\":4491:4535  minQualityValue == 0 && maxQualityValue == 0 */\n              dup1\n              iszero\n              tag_116\n              jumpi\n              pop\n                /* \"Product.sol\":4534:4535  0 */\n              0x00\n                /* \"Product.sol\":4515:4530  maxQualityValue */\n              0x04\n              0x18\n              swap1\n              sload\n              swap1\n              0x0100\n              exp\n              swap1\n              div\n              0x03\n              signextend\n                /* \"Product.sol\":4515:4535  maxQualityValue == 0 */\n              0x03\n              signextend\n              eq\n                /* \"Product.sol\":4491:4535  minQualityValue == 0 && maxQualityValue == 0 */\n            tag_116:\n                /* \"Product.sol\":4483:4593  require(minQualityValue == 0 && maxQualityValue == 0,... */\n              tag_117\n              jumpi\n              mload(0x40)\n              0x08c379a000000000000000000000000000000000000000000000000000000000\n              dup2\n              mstore\n              0x04\n              add\n              tag_118\n              swap1\n              tag_119\n              jump\t// in\n            tag_118:\n              mload(0x40)\n              dup1\n              swap2\n              sub\n              swap1\n              revert\n            tag_117:\n                /* \"Product.sol\":4622:4625  min */\n              dup2\n                /* \"Product.sol\":4604:4619  minQualityValue */\n              0x04\n              0x14\n                /* \"Product.sol\":4604:4625  minQualityValue = min */\n              0x0100\n              exp\n              dup2\n              sload\n              dup2\n              0xffffffff\n              mul\n              not\n              and\n              swap1\n              dup4\n              0x03\n              signextend\n              0xffffffff\n              and\n              mul\n              or\n              swap1\n              sstore\n              pop\n                /* \"Product.sol\":4654:4657  max */\n              dup1\n                /* \"Product.sol\":4636:4651  maxQualityValue */\n              0x04\n              0x18\n                /* \"Product.sol\":4636:4657  maxQualityValue = max */\n              0x0100\n              exp\n              dup2\n              sload\n              dup2\n              0xffffffff\n              mul\n              not\n              and\n              swap1\n              dup4\n              0x03\n              signextend\n              0xffffffff\n              and\n              mul\n              or\n              swap1\n              sstore\n              pop\n                /* \"Product.sol\":4403:4665  function setLimitQualityValue(int32 min, int32 max) public onlyOwner {... */\n              pop\n              pop\n              jump\t// out\n                /* \"Product.sol\":1052:1072  address public owner */\n            tag_63:\n              0x01\n              0x00\n              swap1\n              sload\n              swap1\n              0x0100\n              exp\n              swap1\n              div\n              0xffffffffffffffffffffffffffffffffffffffff\n              and\n              dup2\n              jump\t// out\n                /* \"Product.sol\":4673:5032  function setQualityInfo(int32 info) public {... */\n            tag_69:\n                /* \"Product.sol\":4749:4755  seller */\n              0x02\n              0x00\n              swap1\n              sload\n              swap1\n              0x0100\n              exp\n              swap1\n              div\n              0xffffffffffffffffffffffffffffffffffffffff\n              and\n                /* \"Product.sol\":4735:4755  msg.sender == seller */\n              0xffffffffffffffffffffffffffffffffffffffff\n              and\n                /* \"Product.sol\":4735:4745  msg.sender */\n              caller\n                /* \"Product.sol\":4735:4755  msg.sender == seller */\n              0xffffffffffffffffffffffffffffffffffffffff\n              and\n              eq\n                /* \"Product.sol\":4727:4784  require(msg.sender == seller, \"The caller is not sender\") */\n              tag_121\n              jumpi\n              mload(0x40)\n              0x08c379a000000000000000000000000000000000000000000000000000000000\n              dup2\n              mstore\n              0x04\n              add\n              tag_122\n              swap1\n              tag_123\n              jump\t// in\n            tag_122:\n              mload(0x40)\n              dup1\n              swap2\n              sub\n              swap1\n              revert\n            tag_121:\n                /* \"Product.sol\":4817:4821  info */\n              dup1\n                /* \"Product.sol\":4795:4802  product */\n              0x00\n                /* \"Product.sol\":4795:4814  product.qualityInfo */\n              dup1\n              add\n              0x0e\n                /* \"Product.sol\":4795:4821  product.qualityInfo = info */\n              0x0100\n              exp\n              dup2\n              sload\n              dup2\n              0xffffffff\n              mul\n              not\n              and\n              swap1\n              dup4\n              0x03\n              signextend\n              0xffffffff\n              and\n              mul\n              or\n              swap1\n              sstore\n              pop\n                /* \"Product.sol\":4844:4859  minQualityValue */\n              0x04\n              0x14\n              swap1\n              sload\n              swap1\n              0x0100\n              exp\n              swap1\n              div\n              0x03\n              signextend\n                /* \"Product.sol\":4836:4859  info <= minQualityValue */\n              0x03\n              signextend\n                /* \"Product.sol\":4836:4840  info */\n              dup2\n                /* \"Product.sol\":4836:4859  info <= minQualityValue */\n              0x03\n              signextend\n              sgt\n              iszero\n                /* \"Product.sol\":4836:4886  info <= minQualityValue || info >= maxQualityValue */\n              dup1\n              tag_124\n              jumpi\n              pop\n                /* \"Product.sol\":4871:4886  maxQualityValue */\n              0x04\n              0x18\n              swap1\n              sload\n              swap1\n              0x0100\n              exp\n              swap1\n              div\n              0x03\n              signextend\n                /* \"Product.sol\":4863:4886  info >= maxQualityValue */\n              0x03\n              signextend\n                /* \"Product.sol\":4863:4867  info */\n              dup2\n                /* \"Product.sol\":4863:4886  info >= maxQualityValue */\n              0x03\n              signextend\n              slt\n              iszero\n                /* \"Product.sol\":4836:4886  info <= minQualityValue || info >= maxQualityValue */\n            tag_124:\n                /* \"Product.sol\":4832:5025  if (info <= minQualityValue || info >= maxQualityValue) {... */\n              iszero\n              tag_125\n              jumpi\n                /* \"Product.sol\":4908:5013  QualityFailure(\"Recording limit Value from specific party\",... */\n              0xf91a4f4e12808473bd39419f8a0d055e6fb5c105ffefcd21ca53c36e387ccfb7\n                /* \"Product.sol\":4985:4991  seller */\n              0x02\n              0x00\n              swap1\n              sload\n              swap1\n              0x0100\n              exp\n              swap1\n              div\n              0xffffffffffffffffffffffffffffffffffffffff\n              and\n                /* \"Product.sol\":4993:5000  product */\n              0x00\n                /* \"Product.sol\":4993:5012  product.qualityInfo */\n              dup1\n              add\n              0x0e\n              swap1\n              sload\n              swap1\n              0x0100\n              exp\n              swap1\n              div\n              0x03\n              signextend\n                /* \"Product.sol\":4908:5013  QualityFailure(\"Recording limit Value from specific party\",... */\n              mload(0x40)\n              tag_126\n              swap3\n              swap2\n              swap1\n              tag_127\n              jump\t// in\n            tag_126:\n              mload(0x40)\n              dup1\n              swap2\n              sub\n              swap1\n              log1\n                /* \"Product.sol\":4832:5025  if (info <= minQualityValue || info >= maxQualityValue) {... */\n            tag_125:\n                /* \"Product.sol\":4673:5032  function setQualityInfo(int32 info) public {... */\n              pop\n              jump\t// out\n                /* \"Product.sol\":2216:2369  function setRewardToWei(uint256 _reward, uint8 _maxTransfers) public onlyOwner {... */\n            tag_74:\n                /* \"Product.sol\":1575:1580  owner */\n              0x01\n              0x00\n              swap1\n              sload\n              swap1\n              0x0100\n              exp\n              swap1\n              div\n              0xffffffffffffffffffffffffffffffffffffffff\n              and\n                /* \"Product.sol\":1561:1580  msg.sender == owner */\n              0xffffffffffffffffffffffffffffffffffffffff\n              and\n                /* \"Product.sol\":1561:1571  msg.sender */\n              caller\n                /* \"Product.sol\":1561:1580  msg.sender == owner */\n              0xffffffffffffffffffffffffffffffffffffffff\n              and\n              eq\n                /* \"Product.sol\":1553:1581  require(msg.sender == owner) */\n              tag_129\n              jumpi\n              0x00\n              dup1\n              revert\n            tag_129:\n                /* \"Product.sol\":2315:2322  _reward */\n              dup2\n                /* \"Product.sol\":2306:2312  reward */\n              0x05\n                /* \"Product.sol\":2306:2322  reward = _reward */\n              dup2\n              swap1\n              sstore\n              pop\n                /* \"Product.sol\":2348:2361  _maxTransfers */\n              dup1\n                /* \"Product.sol\":2333:2345  maxTransfers */\n              0x04\n              0x1c\n                /* \"Product.sol\":2333:2361  maxTransfers = _maxTransfers */\n              0x0100\n              exp\n              dup2\n              sload\n              dup2\n              0xff\n              mul\n              not\n              and\n              swap1\n              dup4\n              0xff\n              and\n              mul\n              or\n              swap1\n              sstore\n              pop\n                /* \"Product.sol\":2216:2369  function setRewardToWei(uint256 _reward, uint8 _maxTransfers) public onlyOwner {... */\n              pop\n              pop\n              jump\t// out\n                /* \"Product.sol\":4208:4395  function getProductInfo() public view returns... */\n            tag_77:\n                /* \"Product.sol\":4264:4270  uint96 */\n              0x00\n                /* \"Product.sol\":4272:4284  ProductState */\n              dup1\n                /* \"Product.sol\":4286:4296  RoutePhase */\n              0x00\n                /* \"Product.sol\":4298:4303  int32 */\n              dup1\n                /* \"Product.sol\":4324:4331  product */\n              0x00\n                /* \"Product.sol\":4324:4335  product.epc */\n              dup1\n              add\n              0x00\n              swap1\n              sload\n              swap1\n              0x0100\n              exp\n              swap1\n              div\n              0xffffffffffffffffffffffff\n              and\n                /* \"Product.sol\":4337:4344  product */\n              0x00\n                /* \"Product.sol\":4337:4350  product.state */\n              dup1\n              add\n              0x0c\n              swap1\n              sload\n              swap1\n              0x0100\n              exp\n              swap1\n              div\n              0xff\n              and\n                /* \"Product.sol\":4352:4359  product */\n              0x00\n                /* \"Product.sol\":4352:4365  product.phase */\n              dup1\n              add\n              0x0d\n              swap1\n              sload\n              swap1\n              0x0100\n              exp\n              swap1\n              div\n              0xff\n              and\n                /* \"Product.sol\":4367:4374  product */\n              0x00\n                /* \"Product.sol\":4367:4386  product.qualityInfo */\n              dup1\n              add\n              0x0e\n              swap1\n              sload\n              swap1\n              0x0100\n              exp\n              swap1\n              div\n              0x03\n              signextend\n                /* \"Product.sol\":4316:4387  return (product.epc, product.state, product.phase, product.qualityInfo) */\n              swap4\n              pop\n              swap4\n              pop\n              swap4\n              pop\n              swap4\n              pop\n                /* \"Product.sol\":4208:4395  function getProductInfo() public view returns... */\n              swap1\n              swap2\n              swap3\n              swap4\n              jump\t// out\n                /* \"Product.sol\":3221:3460  function sendRewardToSeller() private {... */\n            tag_104:\n                /* \"Product.sol\":3289:3290  0 */\n              0x00\n                /* \"Product.sol\":3274:3286  maxTransfers */\n              0x04\n              0x1c\n              swap1\n              sload\n              swap1\n              0x0100\n              exp\n              swap1\n              div\n              0xff\n              and\n                /* \"Product.sol\":3274:3290  maxTransfers > 0 */\n              0xff\n              and\n              gt\n                /* \"Product.sol\":3274:3320  maxTransfers > 0 && reward < getBalanceToWei() */\n              dup1\n              iszero\n              tag_133\n              jumpi\n              pop\n                /* \"Product.sol\":3303:3320  getBalanceToWei() */\n              tag_134\n                /* \"Product.sol\":3303:3318  getBalanceToWei */\n              tag_28\n                /* \"Product.sol\":3303:3320  getBalanceToWei() */\n              jump\t// in\n            tag_134:\n                /* \"Product.sol\":3294:3300  reward */\n              sload(0x05)\n                /* \"Product.sol\":3294:3320  reward < getBalanceToWei() */\n              lt\n                /* \"Product.sol\":3274:3320  maxTransfers > 0 && reward < getBalanceToWei() */\n            tag_133:\n                /* \"Product.sol\":3274:3368  maxTransfers > 0 && reward < getBalanceToWei()... */\n              dup1\n              iszero\n              tag_135\n              jumpi\n              pop\n                /* \"Product.sol\":3356:3368  maxTransfers */\n              0x04\n              0x1c\n              swap1\n              sload\n              swap1\n              0x0100\n              exp\n              swap1\n              div\n              0xff\n              and\n                /* \"Product.sol\":3337:3368  rewarded[seller] < maxTransfers */\n              0xff\n              and\n                /* \"Product.sol\":3337:3345  rewarded */\n              0x06\n                /* \"Product.sol\":3337:3353  rewarded[seller] */\n              0x00\n                /* \"Product.sol\":3346:3352  seller */\n              0x02\n              0x00\n              swap1\n              sload\n              swap1\n              0x0100\n              exp\n              swap1\n              div\n              0xffffffffffffffffffffffffffffffffffffffff\n              and\n                /* \"Product.sol\":3337:3353  rewarded[seller] */\n              0xffffffffffffffffffffffffffffffffffffffff\n              and\n              0xffffffffffffffffffffffffffffffffffffffff\n              and\n              dup2\n              mstore\n              0x20\n              add\n              swap1\n              dup2\n              mstore\n              0x20\n              add\n              0x00\n              keccak256\n              0x00\n              swap1\n              sload\n              swap1\n              0x0100\n              exp\n              swap1\n              div\n              0xff\n              and\n                /* \"Product.sol\":3337:3368  rewarded[seller] < maxTransfers */\n              0xff\n              and\n              lt\n                /* \"Product.sol\":3274:3368  maxTransfers > 0 && reward < getBalanceToWei()... */\n            tag_135:\n                /* \"Product.sol\":3270:3453  if (maxTransfers > 0 && reward < getBalanceToWei()... */\n              iszero\n              tag_136\n              jumpi\n                /* \"Product.sol\":3385:3391  seller */\n              0x02\n              0x00\n              swap1\n              sload\n              swap1\n              0x0100\n              exp\n              swap1\n              div\n              0xffffffffffffffffffffffffffffffffffffffff\n              and\n                /* \"Product.sol\":3385:3400  seller.transfer */\n              0xffffffffffffffffffffffffffffffffffffffff\n              and\n                /* \"Product.sol\":3385:3408  seller.transfer(reward) */\n              0x08fc\n                /* \"Product.sol\":3401:3407  reward */\n              sload(0x05)\n                /* \"Product.sol\":3385:3408  seller.transfer(reward) */\n              swap1\n              dup2\n              iszero\n              mul\n              swap1\n              mload(0x40)\n              0x00\n              mload(0x40)\n              dup1\n              dup4\n              sub\n              dup2\n              dup6\n              dup9\n              dup9\n              call\n              swap4\n              pop\n              pop\n              pop\n              pop\n              iszero\n              dup1\n              iszero\n              tag_138\n              jumpi\n              returndatasize\n              0x00\n              dup1\n              returndatacopy\n              revert(0x00, returndatasize)\n            tag_138:\n              pop\n                /* \"Product.sol\":3423:3431  rewarded */\n              0x06\n                /* \"Product.sol\":3423:3439  rewarded[seller] */\n              0x00\n                /* \"Product.sol\":3432:3438  seller */\n              0x02\n              0x00\n              swap1\n              sload\n              swap1\n              0x0100\n              exp\n              swap1\n              div\n              0xffffffffffffffffffffffffffffffffffffffff\n              and\n                /* \"Product.sol\":3423:3439  rewarded[seller] */\n              0xffffffffffffffffffffffffffffffffffffffff\n              and\n              0xffffffffffffffffffffffffffffffffffffffff\n              and\n              dup2\n              mstore\n              0x20\n              add\n              swap1\n              dup2\n              mstore\n              0x20\n              add\n              0x00\n              keccak256\n              0x00\n                /* \"Product.sol\":3423:3441  rewarded[seller]++ */\n              dup2\n              dup2\n              swap1\n              sload\n              swap1\n              0x0100\n              exp\n              swap1\n              div\n              0xff\n              and\n              dup1\n              swap3\n              swap2\n              swap1\n              tag_139\n              swap1\n              tag_140\n              jump\t// in\n            tag_139:\n              swap2\n              swap1\n              0x0100\n              exp\n              dup2\n              sload\n              dup2\n              0xff\n              mul\n              not\n              and\n              swap1\n              dup4\n              0xff\n              and\n              mul\n              or\n              swap1\n              sstore\n              pop\n              pop\n                /* \"Product.sol\":3270:3453  if (maxTransfers > 0 && reward < getBalanceToWei()... */\n            tag_136:\n                /* \"Product.sol\":3221:3460  function sendRewardToSeller() private {... */\n              jump\t// out\n                /* \"Product.sol\":3468:3552  function setPhase(RoutePhase phase) private {... */\n            tag_109:\n                /* \"Product.sol\":3539:3544  phase */\n              dup1\n                /* \"Product.sol\":3523:3530  product */\n              0x00\n                /* \"Product.sol\":3523:3536  product.phase */\n              dup1\n              add\n              0x0d\n                /* \"Product.sol\":3523:3544  product.phase = phase */\n              0x0100\n              exp\n              dup2\n              sload\n              dup2\n              0xff\n              mul\n              not\n              and\n              swap1\n              dup4\n              0x03\n              dup2\n              gt\n              iszero\n              tag_142\n              jumpi\n              tag_143\n              tag_94\n              jump\t// in\n            tag_143:\n            tag_142:\n              mul\n              or\n              swap1\n              sstore\n              pop\n                /* \"Product.sol\":3468:3552  function setPhase(RoutePhase phase) private {... */\n              pop\n              jump\t// out\n                /* \"Product.sol\":3674:3966  function CompleteProcedure() private {... */\n            tag_112:\n                /* \"Product.sol\":3738:3759  ProductState.Complete */\n              0x03\n                /* \"Product.sol\":3722:3729  product */\n              0x00\n                /* \"Product.sol\":3722:3735  product.state */\n              dup1\n              add\n              0x0c\n                /* \"Product.sol\":3722:3759  product.state = ProductState.Complete */\n              0x0100\n              exp\n              dup2\n              sload\n              dup2\n              0xff\n              mul\n              not\n              and\n              swap1\n              dup4\n              0x03\n              dup2\n              gt\n              iszero\n              tag_145\n              jumpi\n              tag_146\n              tag_94\n              jump\t// in\n            tag_146:\n            tag_145:\n              mul\n              or\n              swap1\n              sstore\n              pop\n                /* \"Product.sol\":3770:3799  setPhase(RoutePhase.Retailer) */\n              tag_147\n                /* \"Product.sol\":3779:3798  RoutePhase.Retailer */\n              0x02\n                /* \"Product.sol\":3770:3778  setPhase */\n              tag_109\n                /* \"Product.sol\":3770:3799  setPhase(RoutePhase.Retailer) */\n              jump\t// in\n            tag_147:\n                /* \"Product.sol\":3815:3899  ServiceCompleted(... */\n              0xdcde1585e07c17affe7826d5641edcbcf609c0fcd6c088d3596f0a53c890775d\n                /* \"Product.sol\":3890:3898  retailer */\n              0x04\n              0x00\n              swap1\n              sload\n              swap1\n              0x0100\n              exp\n              swap1\n              div\n              0xffffffffffffffffffffffffffffffffffffffff\n              and\n                /* \"Product.sol\":3815:3899  ServiceCompleted(... */\n              mload(0x40)\n              tag_148\n              swap2\n              swap1\n              tag_149\n              jump\t// in\n            tag_148:\n              mload(0x40)\n              dup1\n              swap2\n              sub\n              swap1\n              log1\n                /* \"Product.sol\":3918:3926  retailer */\n              0x04\n              0x00\n              swap1\n              sload\n              swap1\n              0x0100\n              exp\n              swap1\n              div\n              0xffffffffffffffffffffffffffffffffffffffff\n              and\n                /* \"Product.sol\":3910:3915  owner */\n              0x01\n              0x00\n                /* \"Product.sol\":3910:3926  owner = retailer */\n              0x0100\n              exp\n              dup2\n              sload\n              dup2\n              0xffffffffffffffffffffffffffffffffffffffff\n              mul\n              not\n              and\n              swap1\n              dup4\n              0xffffffffffffffffffffffffffffffffffffffff\n              and\n              mul\n              or\n              swap1\n              sstore\n              pop\n                /* \"Product.sol\":3956:3957  0 */\n              0x00\n                /* \"Product.sol\":3937:3945  retailer */\n              0x04\n              0x00\n                /* \"Product.sol\":3937:3958  retailer = address(0) */\n              0x0100\n              exp\n              dup2\n              sload\n              dup2\n              0xffffffffffffffffffffffffffffffffffffffff\n              mul\n              not\n              and\n              swap1\n              dup4\n              0xffffffffffffffffffffffffffffffffffffffff\n              and\n              mul\n              or\n              swap1\n              sstore\n              pop\n                /* \"Product.sol\":3674:3966  function CompleteProcedure() private {... */\n              jump\t// out\n                /* \"#utility.yul\":7:133   */\n            tag_150:\n                /* \"#utility.yul\":44:51   */\n              0x00\n                /* \"#utility.yul\":84:126   */\n              0xffffffffffffffffffffffffffffffffffffffff\n                /* \"#utility.yul\":77:82   */\n              dup3\n                /* \"#utility.yul\":73:127   */\n              and\n                /* \"#utility.yul\":62:127   */\n              swap1\n              pop\n                /* \"#utility.yul\":7:133   */\n              swap2\n              swap1\n              pop\n              jump\t// out\n                /* \"#utility.yul\":139:243   */\n            tag_151:\n                /* \"#utility.yul\":184:191   */\n              0x00\n                /* \"#utility.yul\":213:237   */\n              tag_203\n                /* \"#utility.yul\":231:236   */\n              dup3\n                /* \"#utility.yul\":213:237   */\n              tag_150\n              jump\t// in\n            tag_203:\n                /* \"#utility.yul\":202:237   */\n              swap1\n              pop\n                /* \"#utility.yul\":139:243   */\n              swap2\n              swap1\n              pop\n              jump\t// out\n                /* \"#utility.yul\":249:391   */\n            tag_152:\n                /* \"#utility.yul\":352:384   */\n              tag_205\n                /* \"#utility.yul\":378:383   */\n              dup2\n                /* \"#utility.yul\":352:384   */\n              tag_151\n              jump\t// in\n            tag_205:\n                /* \"#utility.yul\":347:350   */\n              dup3\n                /* \"#utility.yul\":340:385   */\n              mstore\n                /* \"#utility.yul\":249:391   */\n              pop\n              pop\n              jump\t// out\n                /* \"#utility.yul\":397:651   */\n            tag_23:\n                /* \"#utility.yul\":506:510   */\n              0x00\n                /* \"#utility.yul\":544:546   */\n              0x20\n                /* \"#utility.yul\":533:542   */\n              dup3\n                /* \"#utility.yul\":529:547   */\n              add\n                /* \"#utility.yul\":521:547   */\n              swap1\n              pop\n                /* \"#utility.yul\":557:644   */\n              tag_207\n                /* \"#utility.yul\":641:642   */\n              0x00\n                /* \"#utility.yul\":630:639   */\n              dup4\n                /* \"#utility.yul\":626:643   */\n              add\n                /* \"#utility.yul\":617:623   */\n              dup5\n                /* \"#utility.yul\":557:644   */\n              tag_152\n              jump\t// in\n            tag_207:\n                /* \"#utility.yul\":397:651   */\n              swap3\n              swap2\n              pop\n              pop\n              jump\t// out\n                /* \"#utility.yul\":657:734   */\n            tag_153:\n                /* \"#utility.yul\":694:701   */\n              0x00\n                /* \"#utility.yul\":723:728   */\n              dup2\n                /* \"#utility.yul\":712:728   */\n              swap1\n              pop\n                /* \"#utility.yul\":657:734   */\n              swap2\n              swap1\n              pop\n              jump\t// out\n                /* \"#utility.yul\":740:858   */\n            tag_154:\n                /* \"#utility.yul\":827:851   */\n              tag_210\n                /* \"#utility.yul\":845:850   */\n              dup2\n                /* \"#utility.yul\":827:851   */\n              tag_153\n              jump\t// in\n            tag_210:\n                /* \"#utility.yul\":822:825   */\n              dup3\n                /* \"#utility.yul\":815:852   */\n              mstore\n                /* \"#utility.yul\":740:858   */\n              pop\n              pop\n              jump\t// out\n                /* \"#utility.yul\":864:1086   */\n            tag_30:\n                /* \"#utility.yul\":957:961   */\n              0x00\n                /* \"#utility.yul\":995:997   */\n              0x20\n                /* \"#utility.yul\":984:993   */\n              dup3\n                /* \"#utility.yul\":980:998   */\n              add\n                /* \"#utility.yul\":972:998   */\n              swap1\n              pop\n                /* \"#utility.yul\":1008:1079   */\n              tag_212\n                /* \"#utility.yul\":1076:1077   */\n              0x00\n                /* \"#utility.yul\":1065:1074   */\n              dup4\n                /* \"#utility.yul\":1061:1078   */\n              add\n                /* \"#utility.yul\":1052:1058   */\n              dup5\n                /* \"#utility.yul\":1008:1079   */\n              tag_154\n              jump\t// in\n            tag_212:\n                /* \"#utility.yul\":864:1086   */\n              swap3\n              swap2\n              pop\n              pop\n              jump\t// out\n                /* \"#utility.yul\":1173:1290   */\n            tag_156:\n                /* \"#utility.yul\":1282:1283   */\n              0x00\n                /* \"#utility.yul\":1279:1280   */\n              dup1\n                /* \"#utility.yul\":1272:1284   */\n              revert\n                /* \"#utility.yul\":1419:1515   */\n            tag_158:\n                /* \"#utility.yul\":1456:1463   */\n              0x00\n                /* \"#utility.yul\":1485:1509   */\n              tag_217\n                /* \"#utility.yul\":1503:1508   */\n              dup3\n                /* \"#utility.yul\":1485:1509   */\n              tag_150\n              jump\t// in\n            tag_217:\n                /* \"#utility.yul\":1474:1509   */\n              swap1\n              pop\n                /* \"#utility.yul\":1419:1515   */\n              swap2\n              swap1\n              pop\n              jump\t// out\n                /* \"#utility.yul\":1521:1643   */\n            tag_159:\n                /* \"#utility.yul\":1594:1618   */\n              tag_219\n                /* \"#utility.yul\":1612:1617   */\n              dup2\n                /* \"#utility.yul\":1594:1618   */\n              tag_158\n              jump\t// in\n            tag_219:\n                /* \"#utility.yul\":1587:1592   */\n              dup2\n                /* \"#utility.yul\":1584:1619   */\n              eq\n                /* \"#utility.yul\":1574:1637   */\n              tag_220\n              jumpi\n                /* \"#utility.yul\":1633:1634   */\n              0x00\n                /* \"#utility.yul\":1630:1631   */\n              dup1\n                /* \"#utility.yul\":1623:1635   */\n              revert\n                /* \"#utility.yul\":1574:1637   */\n            tag_220:\n                /* \"#utility.yul\":1521:1643   */\n              pop\n              jump\t// out\n                /* \"#utility.yul\":1649:1788   */\n            tag_160:\n                /* \"#utility.yul\":1695:1700   */\n              0x00\n                /* \"#utility.yul\":1733:1739   */\n              dup2\n                /* \"#utility.yul\":1720:1740   */\n              calldataload\n                /* \"#utility.yul\":1711:1740   */\n              swap1\n              pop\n                /* \"#utility.yul\":1749:1782   */\n              tag_222\n                /* \"#utility.yul\":1776:1781   */\n              dup2\n                /* \"#utility.yul\":1749:1782   */\n              tag_159\n              jump\t// in\n            tag_222:\n                /* \"#utility.yul\":1649:1788   */\n              swap3\n              swap2\n              pop\n              pop\n              jump\t// out\n                /* \"#utility.yul\":1794:2123   */\n            tag_38:\n                /* \"#utility.yul\":1853:1859   */\n              0x00\n                /* \"#utility.yul\":1902:1904   */\n              0x20\n                /* \"#utility.yul\":1890:1899   */\n              dup3\n                /* \"#utility.yul\":1881:1888   */\n              dup5\n                /* \"#utility.yul\":1877:1900   */\n              sub\n                /* \"#utility.yul\":1873:1905   */\n              slt\n                /* \"#utility.yul\":1870:1989   */\n              iszero\n              tag_224\n              jumpi\n                /* \"#utility.yul\":1908:1987   */\n              tag_225\n              tag_156\n              jump\t// in\n            tag_225:\n                /* \"#utility.yul\":1870:1989   */\n            tag_224:\n                /* \"#utility.yul\":2028:2029   */\n              0x00\n                /* \"#utility.yul\":2053:2106   */\n              tag_226\n                /* \"#utility.yul\":2098:2105   */\n              dup5\n                /* \"#utility.yul\":2089:2095   */\n              dup3\n                /* \"#utility.yul\":2078:2087   */\n              dup6\n                /* \"#utility.yul\":2074:2096   */\n              add\n                /* \"#utility.yul\":2053:2106   */\n              tag_160\n              jump\t// in\n            tag_226:\n                /* \"#utility.yul\":2043:2106   */\n              swap2\n              pop\n                /* \"#utility.yul\":1999:2116   */\n              pop\n                /* \"#utility.yul\":1794:2123   */\n              swap3\n              swap2\n              pop\n              pop\n              jump\t// out\n                /* \"#utility.yul\":2129:2247   */\n            tag_161:\n                /* \"#utility.yul\":2216:2240   */\n              tag_228\n                /* \"#utility.yul\":2234:2239   */\n              dup2\n                /* \"#utility.yul\":2216:2240   */\n              tag_158\n              jump\t// in\n            tag_228:\n                /* \"#utility.yul\":2211:2214   */\n              dup3\n                /* \"#utility.yul\":2204:2241   */\n              mstore\n                /* \"#utility.yul\":2129:2247   */\n              pop\n              pop\n              jump\t// out\n                /* \"#utility.yul\":2253:2475   */\n            tag_44:\n                /* \"#utility.yul\":2346:2350   */\n              0x00\n                /* \"#utility.yul\":2384:2386   */\n              0x20\n                /* \"#utility.yul\":2373:2382   */\n              dup3\n                /* \"#utility.yul\":2369:2387   */\n              add\n                /* \"#utility.yul\":2361:2387   */\n              swap1\n              pop\n                /* \"#utility.yul\":2397:2468   */\n              tag_230\n                /* \"#utility.yul\":2465:2466   */\n              0x00\n                /* \"#utility.yul\":2454:2463   */\n              dup4\n                /* \"#utility.yul\":2450:2467   */\n              add\n                /* \"#utility.yul\":2441:2447   */\n              dup5\n                /* \"#utility.yul\":2397:2468   */\n              tag_161\n              jump\t// in\n            tag_230:\n                /* \"#utility.yul\":2253:2475   */\n              swap3\n              swap2\n              pop\n              pop\n              jump\t// out\n                /* \"#utility.yul\":2481:2571   */\n            tag_162:\n                /* \"#utility.yul\":2516:2523   */\n              0x00\n                /* \"#utility.yul\":2559:2564   */\n              dup2\n                /* \"#utility.yul\":2556:2557   */\n              0x03\n                /* \"#utility.yul\":2545:2565   */\n              signextend\n                /* \"#utility.yul\":2534:2565   */\n              swap1\n              pop\n                /* \"#utility.yul\":2481:2571   */\n              swap2\n              swap1\n              pop\n              jump\t// out\n                /* \"#utility.yul\":2577:2695   */\n            tag_163:\n                /* \"#utility.yul\":2648:2670   */\n              tag_233\n                /* \"#utility.yul\":2664:2669   */\n              dup2\n                /* \"#utility.yul\":2648:2670   */\n              tag_162\n              jump\t// in\n            tag_233:\n                /* \"#utility.yul\":2641:2646   */\n              dup2\n                /* \"#utility.yul\":2638:2671   */\n              eq\n                /* \"#utility.yul\":2628:2689   */\n              tag_234\n              jumpi\n                /* \"#utility.yul\":2685:2686   */\n              0x00\n                /* \"#utility.yul\":2682:2683   */\n              dup1\n                /* \"#utility.yul\":2675:2687   */\n              revert\n                /* \"#utility.yul\":2628:2689   */\n            tag_234:\n                /* \"#utility.yul\":2577:2695   */\n              pop\n              jump\t// out\n                /* \"#utility.yul\":2701:2836   */\n            tag_164:\n                /* \"#utility.yul\":2745:2750   */\n              0x00\n                /* \"#utility.yul\":2783:2789   */\n              dup2\n                /* \"#utility.yul\":2770:2790   */\n              calldataload\n                /* \"#utility.yul\":2761:2790   */\n              swap1\n              pop\n                /* \"#utility.yul\":2799:2830   */\n              tag_236\n                /* \"#utility.yul\":2824:2829   */\n              dup2\n                /* \"#utility.yul\":2799:2830   */\n              tag_163\n              jump\t// in\n            tag_236:\n                /* \"#utility.yul\":2701:2836   */\n              swap3\n              swap2\n              pop\n              pop\n              jump\t// out\n                /* \"#utility.yul\":2842:3308   */\n            tag_59:\n                /* \"#utility.yul\":2906:2912   */\n              0x00\n                /* \"#utility.yul\":2914:2920   */\n              dup1\n                /* \"#utility.yul\":2963:2965   */\n              0x40\n                /* \"#utility.yul\":2951:2960   */\n              dup4\n                /* \"#utility.yul\":2942:2949   */\n              dup6\n                /* \"#utility.yul\":2938:2961   */\n              sub\n                /* \"#utility.yul\":2934:2966   */\n              slt\n                /* \"#utility.yul\":2931:3050   */\n              iszero\n              tag_238\n              jumpi\n                /* \"#utility.yul\":2969:3048   */\n              tag_239\n              tag_156\n              jump\t// in\n            tag_239:\n                /* \"#utility.yul\":2931:3050   */\n            tag_238:\n                /* \"#utility.yul\":3089:3090   */\n              0x00\n                /* \"#utility.yul\":3114:3165   */\n              tag_240\n                /* \"#utility.yul\":3157:3164   */\n              dup6\n                /* \"#utility.yul\":3148:3154   */\n              dup3\n                /* \"#utility.yul\":3137:3146   */\n              dup7\n                /* \"#utility.yul\":3133:3155   */\n              add\n                /* \"#utility.yul\":3114:3165   */\n              tag_164\n              jump\t// in\n            tag_240:\n                /* \"#utility.yul\":3104:3165   */\n              swap3\n              pop\n                /* \"#utility.yul\":3060:3175   */\n              pop\n                /* \"#utility.yul\":3214:3216   */\n              0x20\n                /* \"#utility.yul\":3240:3291   */\n              tag_241\n                /* \"#utility.yul\":3283:3290   */\n              dup6\n                /* \"#utility.yul\":3274:3280   */\n              dup3\n                /* \"#utility.yul\":3263:3272   */\n              dup7\n                /* \"#utility.yul\":3259:3281   */\n              add\n                /* \"#utility.yul\":3240:3291   */\n              tag_164\n              jump\t// in\n            tag_241:\n                /* \"#utility.yul\":3230:3291   */\n              swap2\n              pop\n                /* \"#utility.yul\":3185:3301   */\n              pop\n                /* \"#utility.yul\":2842:3308   */\n              swap3\n              pop\n              swap3\n              swap1\n              pop\n              jump\t// out\n                /* \"#utility.yul\":3314:3639   */\n            tag_68:\n                /* \"#utility.yul\":3371:3377   */\n              0x00\n                /* \"#utility.yul\":3420:3422   */\n              0x20\n                /* \"#utility.yul\":3408:3417   */\n              dup3\n                /* \"#utility.yul\":3399:3406   */\n              dup5\n                /* \"#utility.yul\":3395:3418   */\n              sub\n                /* \"#utility.yul\":3391:3423   */\n              slt\n                /* \"#utility.yul\":3388:3507   */\n              iszero\n              tag_243\n              jumpi\n                /* \"#utility.yul\":3426:3505   */\n              tag_244\n              tag_156\n              jump\t// in\n            tag_244:\n                /* \"#utility.yul\":3388:3507   */\n            tag_243:\n                /* \"#utility.yul\":3546:3547   */\n              0x00\n                /* \"#utility.yul\":3571:3622   */\n              tag_245\n                /* \"#utility.yul\":3614:3621   */\n              dup5\n                /* \"#utility.yul\":3605:3611   */\n              dup3\n                /* \"#utility.yul\":3594:3603   */\n              dup6\n                /* \"#utility.yul\":3590:3612   */\n              add\n                /* \"#utility.yul\":3571:3622   */\n              tag_164\n              jump\t// in\n            tag_245:\n                /* \"#utility.yul\":3561:3622   */\n              swap2\n              pop\n                /* \"#utility.yul\":3517:3632   */\n              pop\n                /* \"#utility.yul\":3314:3639   */\n              swap3\n              swap2\n              pop\n              pop\n              jump\t// out\n                /* \"#utility.yul\":3645:3767   */\n            tag_165:\n                /* \"#utility.yul\":3718:3742   */\n              tag_247\n                /* \"#utility.yul\":3736:3741   */\n              dup2\n                /* \"#utility.yul\":3718:3742   */\n              tag_153\n              jump\t// in\n            tag_247:\n                /* \"#utility.yul\":3711:3716   */\n              dup2\n                /* \"#utility.yul\":3708:3743   */\n              eq\n                /* \"#utility.yul\":3698:3761   */\n              tag_248\n              jumpi\n                /* \"#utility.yul\":3757:3758   */\n              0x00\n                /* \"#utility.yul\":3754:3755   */\n              dup1\n                /* \"#utility.yul\":3747:3759   */\n              revert\n                /* \"#utility.yul\":3698:3761   */\n            tag_248:\n                /* \"#utility.yul\":3645:3767   */\n              pop\n              jump\t// out\n                /* \"#utility.yul\":3773:3912   */\n            tag_166:\n                /* \"#utility.yul\":3819:3824   */\n              0x00\n                /* \"#utility.yul\":3857:3863   */\n              dup2\n                /* \"#utility.yul\":3844:3864   */\n              calldataload\n                /* \"#utility.yul\":3835:3864   */\n              swap1\n              pop\n                /* \"#utility.yul\":3873:3906   */\n              tag_250\n                /* \"#utility.yul\":3900:3905   */\n              dup2\n                /* \"#utility.yul\":3873:3906   */\n              tag_165\n              jump\t// in\n            tag_250:\n                /* \"#utility.yul\":3773:3912   */\n              swap3\n              swap2\n              pop\n              pop\n              jump\t// out\n                /* \"#utility.yul\":3918:4004   */\n            tag_167:\n                /* \"#utility.yul\":3953:3960   */\n              0x00\n                /* \"#utility.yul\":3993:3997   */\n              0xff\n                /* \"#utility.yul\":3986:3991   */\n              dup3\n                /* \"#utility.yul\":3982:3998   */\n              and\n                /* \"#utility.yul\":3971:3998   */\n              swap1\n              pop\n                /* \"#utility.yul\":3918:4004   */\n              swap2\n              swap1\n              pop\n              jump\t// out\n                /* \"#utility.yul\":4010:4128   */\n            tag_168:\n                /* \"#utility.yul\":4081:4103   */\n              tag_253\n                /* \"#utility.yul\":4097:4102   */\n              dup2\n                /* \"#utility.yul\":4081:4103   */\n              tag_167\n              jump\t// in\n            tag_253:\n                /* \"#utility.yul\":4074:4079   */\n              dup2\n                /* \"#utility.yul\":4071:4104   */\n              eq\n                /* \"#utility.yul\":4061:4122   */\n              tag_254\n              jumpi\n                /* \"#utility.yul\":4118:4119   */\n              0x00\n                /* \"#utility.yul\":4115:4116   */\n              dup1\n                /* \"#utility.yul\":4108:4120   */\n              revert\n                /* \"#utility.yul\":4061:4122   */\n            tag_254:\n                /* \"#utility.yul\":4010:4128   */\n              pop\n              jump\t// out\n                /* \"#utility.yul\":4134:4269   */\n            tag_169:\n                /* \"#utility.yul\":4178:4183   */\n              0x00\n                /* \"#utility.yul\":4216:4222   */\n              dup2\n                /* \"#utility.yul\":4203:4223   */\n              calldataload\n                /* \"#utility.yul\":4194:4223   */\n              swap1\n              pop\n                /* \"#utility.yul\":4232:4263   */\n              tag_256\n                /* \"#utility.yul\":4257:4262   */\n              dup2\n                /* \"#utility.yul\":4232:4263   */\n              tag_168\n              jump\t// in\n            tag_256:\n                /* \"#utility.yul\":4134:4269   */\n              swap3\n              swap2\n              pop\n              pop\n              jump\t// out\n                /* \"#utility.yul\":4275:4745   */\n            tag_73:\n                /* \"#utility.yul\":4341:4347   */\n              0x00\n                /* \"#utility.yul\":4349:4355   */\n              dup1\n                /* \"#utility.yul\":4398:4400   */\n              0x40\n                /* \"#utility.yul\":4386:4395   */\n              dup4\n                /* \"#utility.yul\":4377:4384   */\n              dup6\n                /* \"#utility.yul\":4373:4396   */\n              sub\n                /* \"#utility.yul\":4369:4401   */\n              slt\n                /* \"#utility.yul\":4366:4485   */\n              iszero\n              tag_258\n              jumpi\n                /* \"#utility.yul\":4404:4483   */\n              tag_259\n              tag_156\n              jump\t// in\n            tag_259:\n                /* \"#utility.yul\":4366:4485   */\n            tag_258:\n                /* \"#utility.yul\":4524:4525   */\n              0x00\n                /* \"#utility.yul\":4549:4602   */\n              tag_260\n                /* \"#utility.yul\":4594:4601   */\n              dup6\n                /* \"#utility.yul\":4585:4591   */\n              dup3\n                /* \"#utility.yul\":4574:4583   */\n              dup7\n                /* \"#utility.yul\":4570:4592   */\n              add\n                /* \"#utility.yul\":4549:4602   */\n              tag_166\n              jump\t// in\n            tag_260:\n                /* \"#utility.yul\":4539:4602   */\n              swap3\n              pop\n                /* \"#utility.yul\":4495:4612   */\n              pop\n                /* \"#utility.yul\":4651:4653   */\n              0x20\n                /* \"#utility.yul\":4677:4728   */\n              tag_261\n                /* \"#utility.yul\":4720:4727   */\n              dup6\n                /* \"#utility.yul\":4711:4717   */\n              dup3\n                /* \"#utility.yul\":4700:4709   */\n              dup7\n                /* \"#utility.yul\":4696:4718   */\n              add\n                /* \"#utility.yul\":4677:4728   */\n              tag_169\n              jump\t// in\n            tag_261:\n                /* \"#utility.yul\":4667:4728   */\n              swap2\n              pop\n                /* \"#utility.yul\":4622:4738   */\n              pop\n                /* \"#utility.yul\":4275:4745   */\n              swap3\n              pop\n              swap3\n              swap1\n              pop\n              jump\t// out\n                /* \"#utility.yul\":4751:4860   */\n            tag_170:\n                /* \"#utility.yul\":4787:4794   */\n              0x00\n                /* \"#utility.yul\":4827:4853   */\n              0xffffffffffffffffffffffff\n                /* \"#utility.yul\":4820:4825   */\n              dup3\n                /* \"#utility.yul\":4816:4854   */\n              and\n                /* \"#utility.yul\":4805:4854   */\n              swap1\n              pop\n                /* \"#utility.yul\":4751:4860   */\n              swap2\n              swap1\n              pop\n              jump\t// out\n                /* \"#utility.yul\":4866:4981   */\n            tag_171:\n                /* \"#utility.yul\":4951:4974   */\n              tag_264\n                /* \"#utility.yul\":4968:4973   */\n              dup2\n                /* \"#utility.yul\":4951:4974   */\n              tag_170\n              jump\t// in\n            tag_264:\n                /* \"#utility.yul\":4946:4949   */\n              dup3\n                /* \"#utility.yul\":4939:4975   */\n              mstore\n                /* \"#utility.yul\":4866:4981   */\n              pop\n              pop\n              jump\t// out\n                /* \"#utility.yul\":4987:5167   */\n            tag_94:\n                /* \"#utility.yul\":5035:5112   */\n              0x4e487b7100000000000000000000000000000000000000000000000000000000\n                /* \"#utility.yul\":5032:5033   */\n              0x00\n                /* \"#utility.yul\":5025:5113   */\n              mstore\n                /* \"#utility.yul\":5132:5136   */\n              0x21\n                /* \"#utility.yul\":5129:5130   */\n              0x04\n                /* \"#utility.yul\":5122:5137   */\n              mstore\n                /* \"#utility.yul\":5156:5160   */\n              0x24\n                /* \"#utility.yul\":5153:5154   */\n              0x00\n                /* \"#utility.yul\":5146:5161   */\n              revert\n                /* \"#utility.yul\":5173:5292   */\n            tag_172:\n                /* \"#utility.yul\":5260:5261   */\n              0x04\n                /* \"#utility.yul\":5253:5258   */\n              dup2\n                /* \"#utility.yul\":5250:5262   */\n              lt\n                /* \"#utility.yul\":5240:5286   */\n              tag_267\n              jumpi\n                /* \"#utility.yul\":5266:5284   */\n              tag_268\n              tag_94\n              jump\t// in\n            tag_268:\n                /* \"#utility.yul\":5240:5286   */\n            tag_267:\n                /* \"#utility.yul\":5173:5292   */\n              pop\n              jump\t// out\n                /* \"#utility.yul\":5298:5437   */\n            tag_173:\n                /* \"#utility.yul\":5349:5356   */\n              0x00\n                /* \"#utility.yul\":5378:5383   */\n              dup2\n                /* \"#utility.yul\":5367:5383   */\n              swap1\n              pop\n                /* \"#utility.yul\":5384:5431   */\n              tag_270\n                /* \"#utility.yul\":5425:5430   */\n              dup3\n                /* \"#utility.yul\":5384:5431   */\n              tag_172\n              jump\t// in\n            tag_270:\n                /* \"#utility.yul\":5298:5437   */\n              swap2\n              swap1\n              pop\n              jump\t// out\n                /* \"#utility.yul\":5443:5582   */\n            tag_174:\n                /* \"#utility.yul\":5505:5514   */\n              0x00\n                /* \"#utility.yul\":5538:5576   */\n              tag_272\n                /* \"#utility.yul\":5570:5575   */\n              dup3\n                /* \"#utility.yul\":5538:5576   */\n              tag_173\n              jump\t// in\n            tag_272:\n                /* \"#utility.yul\":5525:5576   */\n              swap1\n              pop\n                /* \"#utility.yul\":5443:5582   */\n              swap2\n              swap1\n              pop\n              jump\t// out\n                /* \"#utility.yul\":5588:5743   */\n            tag_175:\n                /* \"#utility.yul\":5687:5736   */\n              tag_274\n                /* \"#utility.yul\":5730:5735   */\n              dup2\n                /* \"#utility.yul\":5687:5736   */\n              tag_174\n              jump\t// in\n            tag_274:\n                /* \"#utility.yul\":5682:5685   */\n              dup3\n                /* \"#utility.yul\":5675:5737   */\n              mstore\n                /* \"#utility.yul\":5588:5743   */\n              pop\n              pop\n              jump\t// out\n                /* \"#utility.yul\":5749:5867   */\n            tag_176:\n                /* \"#utility.yul\":5835:5836   */\n              0x04\n                /* \"#utility.yul\":5828:5833   */\n              dup2\n                /* \"#utility.yul\":5825:5837   */\n              lt\n                /* \"#utility.yul\":5815:5861   */\n              tag_276\n              jumpi\n                /* \"#utility.yul\":5841:5859   */\n              tag_277\n              tag_94\n              jump\t// in\n            tag_277:\n                /* \"#utility.yul\":5815:5861   */\n            tag_276:\n                /* \"#utility.yul\":5749:5867   */\n              pop\n              jump\t// out\n                /* \"#utility.yul\":5873:6010   */\n            tag_177:\n                /* \"#utility.yul\":5923:5930   */\n              0x00\n                /* \"#utility.yul\":5952:5957   */\n              dup2\n                /* \"#utility.yul\":5941:5957   */\n              swap1\n              pop\n                /* \"#utility.yul\":5958:6004   */\n              tag_279\n                /* \"#utility.yul\":5998:6003   */\n              dup3\n                /* \"#utility.yul\":5958:6004   */\n              tag_176\n              jump\t// in\n            tag_279:\n                /* \"#utility.yul\":5873:6010   */\n              swap2\n              swap1\n              pop\n              jump\t// out\n                /* \"#utility.yul\":6016:6153   */\n            tag_178:\n                /* \"#utility.yul\":6077:6086   */\n              0x00\n                /* \"#utility.yul\":6110:6147   */\n              tag_281\n                /* \"#utility.yul\":6141:6146   */\n              dup3\n                /* \"#utility.yul\":6110:6147   */\n              tag_177\n              jump\t// in\n            tag_281:\n                /* \"#utility.yul\":6097:6147   */\n              swap1\n              pop\n                /* \"#utility.yul\":6016:6153   */\n              swap2\n              swap1\n              pop\n              jump\t// out\n                /* \"#utility.yul\":6159:6312   */\n            tag_179:\n                /* \"#utility.yul\":6257:6305   */\n              tag_283\n                /* \"#utility.yul\":6299:6304   */\n              dup2\n                /* \"#utility.yul\":6257:6305   */\n              tag_178\n              jump\t// in\n            tag_283:\n                /* \"#utility.yul\":6252:6255   */\n              dup3\n                /* \"#utility.yul\":6245:6306   */\n              mstore\n                /* \"#utility.yul\":6159:6312   */\n              pop\n              pop\n              jump\t// out\n                /* \"#utility.yul\":6318:6430   */\n            tag_180:\n                /* \"#utility.yul\":6401:6423   */\n              tag_285\n                /* \"#utility.yul\":6417:6422   */\n              dup2\n                /* \"#utility.yul\":6401:6423   */\n              tag_162\n              jump\t// in\n            tag_285:\n                /* \"#utility.yul\":6396:6399   */\n              dup3\n                /* \"#utility.yul\":6389:6424   */\n              mstore\n                /* \"#utility.yul\":6318:6430   */\n              pop\n              pop\n              jump\t// out\n                /* \"#utility.yul\":6436:7023   */\n            tag_79:\n                /* \"#utility.yul\":6630:6634   */\n              0x00\n                /* \"#utility.yul\":6668:6671   */\n              0x80\n                /* \"#utility.yul\":6657:6666   */\n              dup3\n                /* \"#utility.yul\":6653:6672   */\n              add\n                /* \"#utility.yul\":6645:6672   */\n              swap1\n              pop\n                /* \"#utility.yul\":6682:6751   */\n              tag_287\n                /* \"#utility.yul\":6748:6749   */\n              0x00\n                /* \"#utility.yul\":6737:6746   */\n              dup4\n                /* \"#utility.yul\":6733:6750   */\n              add\n                /* \"#utility.yul\":6724:6730   */\n              dup8\n                /* \"#utility.yul\":6682:6751   */\n              tag_171\n              jump\t// in\n            tag_287:\n                /* \"#utility.yul\":6761:6845   */\n              tag_288\n                /* \"#utility.yul\":6841:6843   */\n              0x20\n                /* \"#utility.yul\":6830:6839   */\n              dup4\n                /* \"#utility.yul\":6826:6844   */\n              add\n                /* \"#utility.yul\":6817:6823   */\n              dup7\n                /* \"#utility.yul\":6761:6845   */\n              tag_175\n              jump\t// in\n            tag_288:\n                /* \"#utility.yul\":6855:6938   */\n              tag_289\n                /* \"#utility.yul\":6934:6936   */\n              0x40\n                /* \"#utility.yul\":6923:6932   */\n              dup4\n                /* \"#utility.yul\":6919:6937   */\n              add\n                /* \"#utility.yul\":6910:6916   */\n              dup6\n                /* \"#utility.yul\":6855:6938   */\n              tag_179\n              jump\t// in\n            tag_289:\n                /* \"#utility.yul\":6948:7016   */\n              tag_290\n                /* \"#utility.yul\":7012:7014   */\n              0x60\n                /* \"#utility.yul\":7001:7010   */\n              dup4\n                /* \"#utility.yul\":6997:7015   */\n              add\n                /* \"#utility.yul\":6988:6994   */\n              dup5\n                /* \"#utility.yul\":6948:7016   */\n              tag_180\n              jump\t// in\n            tag_290:\n                /* \"#utility.yul\":6436:7023   */\n              swap6\n              swap5\n              pop\n              pop\n              pop\n              pop\n              pop\n              jump\t// out\n                /* \"#utility.yul\":7029:7198   */\n            tag_181:\n                /* \"#utility.yul\":7113:7124   */\n              0x00\n                /* \"#utility.yul\":7147:7153   */\n              dup3\n                /* \"#utility.yul\":7142:7145   */\n              dup3\n                /* \"#utility.yul\":7135:7154   */\n              mstore\n                /* \"#utility.yul\":7187:7191   */\n              0x20\n                /* \"#utility.yul\":7182:7185   */\n              dup3\n                /* \"#utility.yul\":7178:7192   */\n              add\n                /* \"#utility.yul\":7163:7192   */\n              swap1\n              pop\n                /* \"#utility.yul\":7029:7198   */\n              swap3\n              swap2\n              pop\n              pop\n              jump\t// out\n                /* \"#utility.yul\":7204:7450   */\n            tag_182:\n                /* \"#utility.yul\":7344:7378   */\n              0x5468652063616c6c6572206973206e6f742073656e646572206f722074686520\n                /* \"#utility.yul\":7340:7341   */\n              0x00\n                /* \"#utility.yul\":7332:7338   */\n              dup3\n                /* \"#utility.yul\":7328:7342   */\n              add\n                /* \"#utility.yul\":7321:7379   */\n              mstore\n                /* \"#utility.yul\":7413:7442   */\n              0x726563697069656e7420646566696e65642061732073656e6465720000000000\n                /* \"#utility.yul\":7408:7410   */\n              0x20\n                /* \"#utility.yul\":7400:7406   */\n              dup3\n                /* \"#utility.yul\":7396:7411   */\n              add\n                /* \"#utility.yul\":7389:7443   */\n              mstore\n                /* \"#utility.yul\":7204:7450   */\n              pop\n              jump\t// out\n                /* \"#utility.yul\":7456:7822   */\n            tag_183:\n                /* \"#utility.yul\":7598:7601   */\n              0x00\n                /* \"#utility.yul\":7619:7686   */\n              tag_294\n                /* \"#utility.yul\":7683:7685   */\n              0x3b\n                /* \"#utility.yul\":7678:7681   */\n              dup4\n                /* \"#utility.yul\":7619:7686   */\n              tag_181\n              jump\t// in\n            tag_294:\n                /* \"#utility.yul\":7612:7686   */\n              swap2\n              pop\n                /* \"#utility.yul\":7695:7788   */\n              tag_295\n                /* \"#utility.yul\":7784:7787   */\n              dup3\n                /* \"#utility.yul\":7695:7788   */\n              tag_182\n              jump\t// in\n            tag_295:\n                /* \"#utility.yul\":7813:7815   */\n              0x40\n                /* \"#utility.yul\":7808:7811   */\n              dup3\n                /* \"#utility.yul\":7804:7816   */\n              add\n                /* \"#utility.yul\":7797:7816   */\n              swap1\n              pop\n                /* \"#utility.yul\":7456:7822   */\n              swap2\n              swap1\n              pop\n              jump\t// out\n                /* \"#utility.yul\":7828:8247   */\n            tag_91:\n                /* \"#utility.yul\":7994:7998   */\n              0x00\n                /* \"#utility.yul\":8032:8034   */\n              0x20\n                /* \"#utility.yul\":8021:8030   */\n              dup3\n                /* \"#utility.yul\":8017:8035   */\n              add\n                /* \"#utility.yul\":8009:8035   */\n              swap1\n              pop\n                /* \"#utility.yul\":8081:8090   */\n              dup2\n                /* \"#utility.yul\":8075:8079   */\n              dup2\n                /* \"#utility.yul\":8071:8091   */\n              sub\n                /* \"#utility.yul\":8067:8068   */\n              0x00\n                /* \"#utility.yul\":8056:8065   */\n              dup4\n                /* \"#utility.yul\":8052:8069   */\n              add\n                /* \"#utility.yul\":8045:8092   */\n              mstore\n                /* \"#utility.yul\":8109:8240   */\n              tag_297\n                /* \"#utility.yul\":8235:8239   */\n              dup2\n                /* \"#utility.yul\":8109:8240   */\n              tag_183\n              jump\t// in\n            tag_297:\n                /* \"#utility.yul\":8101:8240   */\n              swap1\n              pop\n                /* \"#utility.yul\":7828:8247   */\n              swap2\n              swap1\n              pop\n              jump\t// out\n                /* \"#utility.yul\":8253:8313   */\n            tag_184:\n                /* \"#utility.yul\":8281:8284   */\n              0x00\n                /* \"#utility.yul\":8302:8307   */\n              dup2\n                /* \"#utility.yul\":8295:8307   */\n              swap1\n              pop\n                /* \"#utility.yul\":8253:8313   */\n              swap2\n              swap1\n              pop\n              jump\t// out\n                /* \"#utility.yul\":8319:8461   */\n            tag_185:\n                /* \"#utility.yul\":8369:8378   */\n              0x00\n                /* \"#utility.yul\":8402:8455   */\n              tag_300\n                /* \"#utility.yul\":8420:8454   */\n              tag_301\n                /* \"#utility.yul\":8429:8453   */\n              tag_302\n                /* \"#utility.yul\":8447:8452   */\n              dup5\n                /* \"#utility.yul\":8429:8453   */\n              tag_150\n              jump\t// in\n            tag_302:\n                /* \"#utility.yul\":8420:8454   */\n              tag_184\n              jump\t// in\n            tag_301:\n                /* \"#utility.yul\":8402:8455   */\n              tag_150\n              jump\t// in\n            tag_300:\n                /* \"#utility.yul\":8389:8455   */\n              swap1\n              pop\n                /* \"#utility.yul\":8319:8461   */\n              swap2\n              swap1\n              pop\n              jump\t// out\n                /* \"#utility.yul\":8467:8593   */\n            tag_186:\n                /* \"#utility.yul\":8517:8526   */\n              0x00\n                /* \"#utility.yul\":8550:8587   */\n              tag_304\n                /* \"#utility.yul\":8581:8586   */\n              dup3\n                /* \"#utility.yul\":8550:8587   */\n              tag_185\n              jump\t// in\n            tag_304:\n                /* \"#utility.yul\":8537:8587   */\n              swap1\n              pop\n                /* \"#utility.yul\":8467:8593   */\n              swap2\n              swap1\n              pop\n              jump\t// out\n                /* \"#utility.yul\":8599:8733   */\n            tag_187:\n                /* \"#utility.yul\":8657:8666   */\n              0x00\n                /* \"#utility.yul\":8690:8727   */\n              tag_306\n                /* \"#utility.yul\":8721:8726   */\n              dup3\n                /* \"#utility.yul\":8690:8727   */\n              tag_186\n              jump\t// in\n            tag_306:\n                /* \"#utility.yul\":8677:8727   */\n              swap1\n              pop\n                /* \"#utility.yul\":8599:8733   */\n              swap2\n              swap1\n              pop\n              jump\t// out\n                /* \"#utility.yul\":8739:8886   */\n            tag_188:\n                /* \"#utility.yul\":8834:8879   */\n              tag_308\n                /* \"#utility.yul\":8873:8878   */\n              dup2\n                /* \"#utility.yul\":8834:8879   */\n              tag_187\n              jump\t// in\n            tag_308:\n                /* \"#utility.yul\":8829:8832   */\n              dup3\n                /* \"#utility.yul\":8822:8880   */\n              mstore\n                /* \"#utility.yul\":8739:8886   */\n              pop\n              pop\n              jump\t// out\n                /* \"#utility.yul\":8892:9240   */\n            tag_96:\n                /* \"#utility.yul\":9021:9025   */\n              0x00\n                /* \"#utility.yul\":9059:9061   */\n              0x40\n                /* \"#utility.yul\":9048:9057   */\n              dup3\n                /* \"#utility.yul\":9044:9062   */\n              add\n                /* \"#utility.yul\":9036:9062   */\n              swap1\n              pop\n                /* \"#utility.yul\":9072:9151   */\n              tag_310\n                /* \"#utility.yul\":9148:9149   */\n              0x00\n                /* \"#utility.yul\":9137:9146   */\n              dup4\n                /* \"#utility.yul\":9133:9150   */\n              add\n                /* \"#utility.yul\":9124:9130   */\n              dup6\n                /* \"#utility.yul\":9072:9151   */\n              tag_188\n              jump\t// in\n            tag_310:\n                /* \"#utility.yul\":9161:9233   */\n              tag_311\n                /* \"#utility.yul\":9229:9231   */\n              0x20\n                /* \"#utility.yul\":9218:9227   */\n              dup4\n                /* \"#utility.yul\":9214:9232   */\n              add\n                /* \"#utility.yul\":9205:9211   */\n              dup5\n                /* \"#utility.yul\":9161:9233   */\n              tag_161\n              jump\t// in\n            tag_311:\n                /* \"#utility.yul\":8892:9240   */\n              swap4\n              swap3\n              pop\n              pop\n              pop\n              jump\t// out\n                /* \"#utility.yul\":9246:9419   */\n            tag_189:\n                /* \"#utility.yul\":9386:9411   */\n              0x5468652063616c6c6572206973206e6f74206275796572000000000000000000\n                /* \"#utility.yul\":9382:9383   */\n              0x00\n                /* \"#utility.yul\":9374:9380   */\n              dup3\n                /* \"#utility.yul\":9370:9384   */\n              add\n                /* \"#utility.yul\":9363:9412   */\n              mstore\n                /* \"#utility.yul\":9246:9419   */\n              pop\n              jump\t// out\n                /* \"#utility.yul\":9425:9791   */\n            tag_190:\n                /* \"#utility.yul\":9567:9570   */\n              0x00\n                /* \"#utility.yul\":9588:9655   */\n              tag_314\n                /* \"#utility.yul\":9652:9654   */\n              0x17\n                /* \"#utility.yul\":9647:9650   */\n              dup4\n                /* \"#utility.yul\":9588:9655   */\n              tag_181\n              jump\t// in\n            tag_314:\n                /* \"#utility.yul\":9581:9655   */\n              swap2\n              pop\n                /* \"#utility.yul\":9664:9757   */\n              tag_315\n                /* \"#utility.yul\":9753:9756   */\n              dup3\n                /* \"#utility.yul\":9664:9757   */\n              tag_189\n              jump\t// in\n            tag_315:\n                /* \"#utility.yul\":9782:9784   */\n              0x20\n                /* \"#utility.yul\":9777:9780   */\n              dup3\n                /* \"#utility.yul\":9773:9785   */\n              add\n                /* \"#utility.yul\":9766:9785   */\n              swap1\n              pop\n                /* \"#utility.yul\":9425:9791   */\n              swap2\n              swap1\n              pop\n              jump\t// out\n                /* \"#utility.yul\":9797:10216   */\n            tag_100:\n                /* \"#utility.yul\":9963:9967   */\n              0x00\n                /* \"#utility.yul\":10001:10003   */\n              0x20\n                /* \"#utility.yul\":9990:9999   */\n              dup3\n                /* \"#utility.yul\":9986:10004   */\n              add\n                /* \"#utility.yul\":9978:10004   */\n              swap1\n              pop\n                /* \"#utility.yul\":10050:10059   */\n              dup2\n                /* \"#utility.yul\":10044:10048   */\n              dup2\n                /* \"#utility.yul\":10040:10060   */\n              sub\n                /* \"#utility.yul\":10036:10037   */\n              0x00\n                /* \"#utility.yul\":10025:10034   */\n              dup4\n                /* \"#utility.yul\":10021:10038   */\n              add\n                /* \"#utility.yul\":10014:10061   */\n              mstore\n                /* \"#utility.yul\":10078:10209   */\n              tag_317\n                /* \"#utility.yul\":10204:10208   */\n              dup2\n                /* \"#utility.yul\":10078:10209   */\n              tag_190\n              jump\t// in\n            tag_317:\n                /* \"#utility.yul\":10070:10209   */\n              swap1\n              pop\n                /* \"#utility.yul\":9797:10216   */\n              swap2\n              swap1\n              pop\n              jump\t// out\n                /* \"#utility.yul\":10222:10449   */\n            tag_191:\n                /* \"#utility.yul\":10362:10396   */\n              0x546865206c696d69742076616c7565732068617320616c726561647920696e69\n                /* \"#utility.yul\":10358:10359   */\n              0x00\n                /* \"#utility.yul\":10350:10356   */\n              dup3\n                /* \"#utility.yul\":10346:10360   */\n              add\n                /* \"#utility.yul\":10339:10397   */\n              mstore\n                /* \"#utility.yul\":10431:10441   */\n              0x7469616c697a6564000000000000000000000000000000000000000000000000\n                /* \"#utility.yul\":10426:10428   */\n              0x20\n                /* \"#utility.yul\":10418:10424   */\n              dup3\n                /* \"#utility.yul\":10414:10429   */\n              add\n                /* \"#utility.yul\":10407:10442   */\n              mstore\n                /* \"#utility.yul\":10222:10449   */\n              pop\n              jump\t// out\n                /* \"#utility.yul\":10455:10821   */\n            tag_192:\n                /* \"#utility.yul\":10597:10600   */\n              0x00\n                /* \"#utility.yul\":10618:10685   */\n              tag_320\n                /* \"#utility.yul\":10682:10684   */\n              0x28\n                /* \"#utility.yul\":10677:10680   */\n              dup4\n                /* \"#utility.yul\":10618:10685   */\n              tag_181\n              jump\t// in\n            tag_320:\n                /* \"#utility.yul\":10611:10685   */\n              swap2\n              pop\n                /* \"#utility.yul\":10694:10787   */\n              tag_321\n                /* \"#utility.yul\":10783:10786   */\n              dup3\n                /* \"#utility.yul\":10694:10787   */\n              tag_191\n              jump\t// in\n            tag_321:\n                /* \"#utility.yul\":10812:10814   */\n              0x40\n                /* \"#utility.yul\":10807:10810   */\n              dup3\n                /* \"#utility.yul\":10803:10815   */\n              add\n                /* \"#utility.yul\":10796:10815   */\n              swap1\n              pop\n                /* \"#utility.yul\":10455:10821   */\n              swap2\n              swap1\n              pop\n              jump\t// out\n                /* \"#utility.yul\":10827:11246   */\n            tag_119:\n                /* \"#utility.yul\":10993:10997   */\n              0x00\n                /* \"#utility.yul\":11031:11033   */\n              0x20\n                /* \"#utility.yul\":11020:11029   */\n              dup3\n                /* \"#utility.yul\":11016:11034   */\n              add\n                /* \"#utility.yul\":11008:11034   */\n              swap1\n              pop\n                /* \"#utility.yul\":11080:11089   */\n              dup2\n                /* \"#utility.yul\":11074:11078   */\n              dup2\n                /* \"#utility.yul\":11070:11090   */\n              sub\n                /* \"#utility.yul\":11066:11067   */\n              0x00\n                /* \"#utility.yul\":11055:11064   */\n              dup4\n                /* \"#utility.yul\":11051:11068   */\n              add\n                /* \"#utility.yul\":11044:11091   */\n              mstore\n                /* \"#utility.yul\":11108:11239   */\n              tag_323\n                /* \"#utility.yul\":11234:11238   */\n              dup2\n                /* \"#utility.yul\":11108:11239   */\n              tag_192\n              jump\t// in\n            tag_323:\n                /* \"#utility.yul\":11100:11239   */\n              swap1\n              pop\n                /* \"#utility.yul\":10827:11246   */\n              swap2\n              swap1\n              pop\n              jump\t// out\n                /* \"#utility.yul\":11252:11426   */\n            tag_193:\n                /* \"#utility.yul\":11392:11418   */\n              0x5468652063616c6c6572206973206e6f742073656e6465720000000000000000\n                /* \"#utility.yul\":11388:11389   */\n              0x00\n                /* \"#utility.yul\":11380:11386   */\n              dup3\n                /* \"#utility.yul\":11376:11390   */\n              add\n                /* \"#utility.yul\":11369:11419   */\n              mstore\n                /* \"#utility.yul\":11252:11426   */\n              pop\n              jump\t// out\n                /* \"#utility.yul\":11432:11798   */\n            tag_194:\n                /* \"#utility.yul\":11574:11577   */\n              0x00\n                /* \"#utility.yul\":11595:11662   */\n              tag_326\n                /* \"#utility.yul\":11659:11661   */\n              0x18\n                /* \"#utility.yul\":11654:11657   */\n              dup4\n                /* \"#utility.yul\":11595:11662   */\n              tag_181\n              jump\t// in\n            tag_326:\n                /* \"#utility.yul\":11588:11662   */\n              swap2\n              pop\n                /* \"#utility.yul\":11671:11764   */\n              tag_327\n                /* \"#utility.yul\":11760:11763   */\n              dup3\n                /* \"#utility.yul\":11671:11764   */\n              tag_193\n              jump\t// in\n            tag_327:\n                /* \"#utility.yul\":11789:11791   */\n              0x20\n                /* \"#utility.yul\":11784:11787   */\n              dup3\n                /* \"#utility.yul\":11780:11792   */\n              add\n                /* \"#utility.yul\":11773:11792   */\n              swap1\n              pop\n                /* \"#utility.yul\":11432:11798   */\n              swap2\n              swap1\n              pop\n              jump\t// out\n                /* \"#utility.yul\":11804:12223   */\n            tag_123:\n                /* \"#utility.yul\":11970:11974   */\n              0x00\n                /* \"#utility.yul\":12008:12010   */\n              0x20\n                /* \"#utility.yul\":11997:12006   */\n              dup3\n                /* \"#utility.yul\":11993:12011   */\n              add\n                /* \"#utility.yul\":11985:12011   */\n              swap1\n              pop\n                /* \"#utility.yul\":12057:12066   */\n              dup2\n                /* \"#utility.yul\":12051:12055   */\n              dup2\n                /* \"#utility.yul\":12047:12067   */\n              sub\n                /* \"#utility.yul\":12043:12044   */\n              0x00\n                /* \"#utility.yul\":12032:12041   */\n              dup4\n                /* \"#utility.yul\":12028:12045   */\n              add\n                /* \"#utility.yul\":12021:12068   */\n              mstore\n                /* \"#utility.yul\":12085:12216   */\n              tag_329\n                /* \"#utility.yul\":12211:12215   */\n              dup2\n                /* \"#utility.yul\":12085:12216   */\n              tag_194\n              jump\t// in\n            tag_329:\n                /* \"#utility.yul\":12077:12216   */\n              swap1\n              pop\n                /* \"#utility.yul\":11804:12223   */\n              swap2\n              swap1\n              pop\n              jump\t// out\n                /* \"#utility.yul\":12229:12457   */\n            tag_195:\n                /* \"#utility.yul\":12369:12403   */\n              0x5265636f7264696e67206c696d69742056616c75652066726f6d207370656369\n                /* \"#utility.yul\":12365:12366   */\n              0x00\n                /* \"#utility.yul\":12357:12363   */\n              dup3\n                /* \"#utility.yul\":12353:12367   */\n              add\n                /* \"#utility.yul\":12346:12404   */\n              mstore\n                /* \"#utility.yul\":12438:12449   */\n              0x6669632070617274790000000000000000000000000000000000000000000000\n                /* \"#utility.yul\":12433:12435   */\n              0x20\n                /* \"#utility.yul\":12425:12431   */\n              dup3\n                /* \"#utility.yul\":12421:12436   */\n              add\n                /* \"#utility.yul\":12414:12450   */\n              mstore\n                /* \"#utility.yul\":12229:12457   */\n              pop\n              jump\t// out\n                /* \"#utility.yul\":12463:12829   */\n            tag_196:\n                /* \"#utility.yul\":12605:12608   */\n              0x00\n                /* \"#utility.yul\":12626:12693   */\n              tag_332\n                /* \"#utility.yul\":12690:12692   */\n              0x29\n                /* \"#utility.yul\":12685:12688   */\n              dup4\n                /* \"#utility.yul\":12626:12693   */\n              tag_181\n              jump\t// in\n            tag_332:\n                /* \"#utility.yul\":12619:12693   */\n              swap2\n              pop\n                /* \"#utility.yul\":12702:12795   */\n              tag_333\n                /* \"#utility.yul\":12791:12794   */\n              dup3\n                /* \"#utility.yul\":12702:12795   */\n              tag_195\n              jump\t// in\n            tag_333:\n                /* \"#utility.yul\":12820:12822   */\n              0x40\n                /* \"#utility.yul\":12815:12818   */\n              dup3\n                /* \"#utility.yul\":12811:12823   */\n              add\n                /* \"#utility.yul\":12804:12823   */\n              swap1\n              pop\n                /* \"#utility.yul\":12463:12829   */\n              swap2\n              swap1\n              pop\n              jump\t// out\n                /* \"#utility.yul\":12835:13482   */\n            tag_127:\n                /* \"#utility.yul\":13061:13065   */\n              0x00\n                /* \"#utility.yul\":13099:13101   */\n              0x60\n                /* \"#utility.yul\":13088:13097   */\n              dup3\n                /* \"#utility.yul\":13084:13102   */\n              add\n                /* \"#utility.yul\":13076:13102   */\n              swap1\n              pop\n                /* \"#utility.yul\":13148:13157   */\n              dup2\n                /* \"#utility.yul\":13142:13146   */\n              dup2\n                /* \"#utility.yul\":13138:13158   */\n              sub\n                /* \"#utility.yul\":13134:13135   */\n              0x00\n                /* \"#utility.yul\":13123:13132   */\n              dup4\n                /* \"#utility.yul\":13119:13136   */\n              add\n                /* \"#utility.yul\":13112:13159   */\n              mstore\n                /* \"#utility.yul\":13176:13307   */\n              tag_335\n                /* \"#utility.yul\":13302:13306   */\n              dup2\n                /* \"#utility.yul\":13176:13307   */\n              tag_196\n              jump\t// in\n            tag_335:\n                /* \"#utility.yul\":13168:13307   */\n              swap1\n              pop\n                /* \"#utility.yul\":13317:13397   */\n              tag_336\n                /* \"#utility.yul\":13393:13395   */\n              0x20\n                /* \"#utility.yul\":13382:13391   */\n              dup4\n                /* \"#utility.yul\":13378:13396   */\n              add\n                /* \"#utility.yul\":13369:13375   */\n              dup6\n                /* \"#utility.yul\":13317:13397   */\n              tag_188\n              jump\t// in\n            tag_336:\n                /* \"#utility.yul\":13407:13475   */\n              tag_337\n                /* \"#utility.yul\":13471:13473   */\n              0x40\n                /* \"#utility.yul\":13460:13469   */\n              dup4\n                /* \"#utility.yul\":13456:13474   */\n              add\n                /* \"#utility.yul\":13447:13453   */\n              dup5\n                /* \"#utility.yul\":13407:13475   */\n              tag_180\n              jump\t// in\n            tag_337:\n                /* \"#utility.yul\":12835:13482   */\n              swap4\n              swap3\n              pop\n              pop\n              pop\n              jump\t// out\n                /* \"#utility.yul\":13488:13668   */\n            tag_197:\n                /* \"#utility.yul\":13536:13613   */\n              0x4e487b7100000000000000000000000000000000000000000000000000000000\n                /* \"#utility.yul\":13533:13534   */\n              0x00\n                /* \"#utility.yul\":13526:13614   */\n              mstore\n                /* \"#utility.yul\":13633:13637   */\n              0x11\n                /* \"#utility.yul\":13630:13631   */\n              0x04\n                /* \"#utility.yul\":13623:13638   */\n              mstore\n                /* \"#utility.yul\":13657:13661   */\n              0x24\n                /* \"#utility.yul\":13654:13655   */\n              0x00\n                /* \"#utility.yul\":13647:13662   */\n              revert\n                /* \"#utility.yul\":13674:13841   */\n            tag_140:\n                /* \"#utility.yul\":13711:13714   */\n              0x00\n                /* \"#utility.yul\":13734:13756   */\n              tag_340\n                /* \"#utility.yul\":13750:13755   */\n              dup3\n                /* \"#utility.yul\":13734:13756   */\n              tag_167\n              jump\t// in\n            tag_340:\n                /* \"#utility.yul\":13725:13756   */\n              swap2\n              pop\n                /* \"#utility.yul\":13778:13782   */\n              0xff\n                /* \"#utility.yul\":13771:13776   */\n              dup3\n                /* \"#utility.yul\":13768:13783   */\n              eq\n                /* \"#utility.yul\":13765:13806   */\n              iszero\n              tag_341\n              jumpi\n                /* \"#utility.yul\":13786:13804   */\n              tag_342\n              tag_197\n              jump\t// in\n            tag_342:\n                /* \"#utility.yul\":13765:13806   */\n            tag_341:\n                /* \"#utility.yul\":13833:13834   */\n              0x01\n                /* \"#utility.yul\":13826:13831   */\n              dup3\n                /* \"#utility.yul\":13822:13835   */\n              add\n                /* \"#utility.yul\":13815:13835   */\n              swap1\n              pop\n                /* \"#utility.yul\":13674:13841   */\n              swap2\n              swap1\n              pop\n              jump\t// out\n                /* \"#utility.yul\":13847:14074   */\n            tag_198:\n                /* \"#utility.yul\":13987:14021   */\n              0x5468652070726f64756374206172726976656420746f20737065636966696320\n                /* \"#utility.yul\":13983:13984   */\n              0x00\n                /* \"#utility.yul\":13975:13981   */\n              dup3\n                /* \"#utility.yul\":13971:13985   */\n              add\n                /* \"#utility.yul\":13964:14022   */\n              mstore\n                /* \"#utility.yul\":14056:14066   */\n              0x72657461696c6572000000000000000000000000000000000000000000000000\n                /* \"#utility.yul\":14051:14053   */\n              0x20\n                /* \"#utility.yul\":14043:14049   */\n              dup3\n                /* \"#utility.yul\":14039:14054   */\n              add\n                /* \"#utility.yul\":14032:14067   */\n              mstore\n                /* \"#utility.yul\":13847:14074   */\n              pop\n              jump\t// out\n                /* \"#utility.yul\":14080:14446   */\n            tag_199:\n                /* \"#utility.yul\":14222:14225   */\n              0x00\n                /* \"#utility.yul\":14243:14310   */\n              tag_345\n                /* \"#utility.yul\":14307:14309   */\n              0x28\n                /* \"#utility.yul\":14302:14305   */\n              dup4\n                /* \"#utility.yul\":14243:14310   */\n              tag_181\n              jump\t// in\n            tag_345:\n                /* \"#utility.yul\":14236:14310   */\n              swap2\n              pop\n                /* \"#utility.yul\":14319:14412   */\n              tag_346\n                /* \"#utility.yul\":14408:14411   */\n              dup3\n                /* \"#utility.yul\":14319:14412   */\n              tag_198\n              jump\t// in\n            tag_346:\n                /* \"#utility.yul\":14437:14439   */\n              0x40\n                /* \"#utility.yul\":14432:14435   */\n              dup3\n                /* \"#utility.yul\":14428:14440   */\n              add\n                /* \"#utility.yul\":14421:14440   */\n              swap1\n              pop\n                /* \"#utility.yul\":14080:14446   */\n              swap2\n              swap1\n              pop\n              jump\t// out\n                /* \"#utility.yul\":14452:14981   */\n            tag_149:\n                /* \"#utility.yul\":14646:14650   */\n              0x00\n                /* \"#utility.yul\":14684:14686   */\n              0x40\n                /* \"#utility.yul\":14673:14682   */\n              dup3\n                /* \"#utility.yul\":14669:14687   */\n              add\n                /* \"#utility.yul\":14661:14687   */\n              swap1\n              pop\n                /* \"#utility.yul\":14733:14742   */\n              dup2\n                /* \"#utility.yul\":14727:14731   */\n              dup2\n                /* \"#utility.yul\":14723:14743   */\n              sub\n                /* \"#utility.yul\":14719:14720   */\n              0x00\n                /* \"#utility.yul\":14708:14717   */\n              dup4\n                /* \"#utility.yul\":14704:14721   */\n              add\n                /* \"#utility.yul\":14697:14744   */\n              mstore\n                /* \"#utility.yul\":14761:14892   */\n              tag_348\n                /* \"#utility.yul\":14887:14891   */\n              dup2\n                /* \"#utility.yul\":14761:14892   */\n              tag_199\n              jump\t// in\n            tag_348:\n                /* \"#utility.yul\":14753:14892   */\n              swap1\n              pop\n                /* \"#utility.yul\":14902:14974   */\n              tag_349\n                /* \"#utility.yul\":14970:14972   */\n              0x20\n                /* \"#utility.yul\":14959:14968   */\n              dup4\n                /* \"#utility.yul\":14955:14973   */\n              add\n                /* \"#utility.yul\":14946:14952   */\n              dup5\n                /* \"#utility.yul\":14902:14974   */\n              tag_161\n              jump\t// in\n            tag_349:\n                /* \"#utility.yul\":14452:14981   */\n              swap3\n              swap2\n              pop\n              pop\n              jump\t// out\n\n            auxdata: 0xa264697066735822122074600170b6f70969fc98f41faf9fccdbbdbdbcd4060dfc09aa1a1c99f8e58e8264736f6c634300080b0033\n        }\n    }\n\n    auxdata: 0xa264697066735822122083727df61ddcc2932f45be9c0900b578b47e89e67ae0b4db8fc5f7de82b1341164736f6c634300080b0033\n}\n","bytecode":{"linkReferences":{},"object":"608060405234801561001057600080fd5b506121c8806100206000396000f3fe60806040523480156200001157600080fd5b5060043610620000525760003560e01c80635b37f20a14620000575780636f3e184c14620000775780638718e33b14620000ad578063a578861d14620000e3575b600080fd5b6200007560048036038101906200006f919062000378565b62000105565b005b6200009560048036038101906200008f919062000378565b62000219565b604051620000a49190620003ef565b60405180910390f35b620000cb6004803603810190620000c5919062000447565b6200024c565b604051620000da9190620003ef565b60405180910390f35b620000ed6200028c565b604051620000fc919062000547565b60405180910390f35b6000338260405162000117906200031c565b620001249291906200057c565b604051809103906000f08015801562000141573d6000803e3d6000fd5b5090506000819080600181540180825580915050600190039060005260206000200160009091909190916101000a81548173ffffffffffffffffffffffffffffffffffffffff021916908373ffffffffffffffffffffffffffffffffffffffff1602179055508060016000846bffffffffffffffffffffffff166bffffffffffffffffffffffff16815260200190815260200160002060006101000a81548173ffffffffffffffffffffffffffffffffffffffff021916908373ffffffffffffffffffffffffffffffffffffffff1602179055505050565b60016020528060005260406000206000915054906101000a900473ffffffffffffffffffffffffffffffffffffffff1681565b600081815481106200025d57600080fd5b906000526020600020016000915054906101000a900473ffffffffffffffffffffffffffffffffffffffff1681565b606060008054806020026020016040519081016040528092919081815260200182805480156200031257602002820191906000526020600020905b8160009054906101000a900473ffffffffffffffffffffffffffffffffffffffff1673ffffffffffffffffffffffffffffffffffffffff1681526020019060010190808311620002c7575b5050505050905090565b611be980620005aa83390190565b600080fd5b60006bffffffffffffffffffffffff82169050919050565b62000352816200032f565b81146200035e57600080fd5b50565b600081359050620003728162000347565b92915050565b6000602082840312156200039157620003906200032a565b5b6000620003a18482850162000361565b91505092915050565b600073ffffffffffffffffffffffffffffffffffffffff82169050919050565b6000620003d782620003aa565b9050919050565b620003e981620003ca565b82525050565b6000602082019050620004066000830184620003de565b92915050565b6000819050919050565b62000421816200040c565b81146200042d57600080fd5b50565b600081359050620004418162000416565b92915050565b60006020828403121562000460576200045f6200032a565b5b6000620004708482850162000430565b91505092915050565b600081519050919050565b600082825260208201905092915050565b6000819050602082019050919050565b620004b081620003ca565b82525050565b6000620004c48383620004a5565b60208301905092915050565b6000602082019050919050565b6000620004ea8262000479565b620004f6818562000484565b9350620005038362000495565b8060005b838110156200053a5781516200051e8882620004b6565b97506200052b83620004d0565b92505060018101905062000507565b5085935050505092915050565b60006020820190508181036000830152620005638184620004dd565b905092915050565b62000576816200032f565b82525050565b6000604082019050620005936000830185620003de565b620005a260208301846200056b565b939250505056fe60806040523480156200001157600080fd5b5060405162001be938038062001be98339818101604052810190620000379190620002d4565b81600160006101000a81548173ffffffffffffffffffffffffffffffffffffffff021916908373ffffffffffffffffffffffffffffffffffffffff16021790555062000089816200009160201b60201c565b50506200034a565b6040518060800160405280826bffffffffffffffffffffffff16815260200160006003811115620000c757620000c66200031b565b5b815260200160006003811115620000e357620000e26200031b565b5b8152602001600060030b8152506000808201518160000160006101000a8154816bffffffffffffffffffffffff02191690836bffffffffffffffffffffffff160217905550602082015181600001600c6101000a81548160ff021916908360038111156200015657620001556200031b565b5b0217905550604082015181600001600d6101000a81548160ff021916908360038111156200018957620001886200031b565b5b0217905550606082015181600001600e6101000a81548163ffffffff021916908360030b63ffffffff160217905550905050600160009054906101000a900473ffffffffffffffffffffffffffffffffffffffff16600260006101000a81548173ffffffffffffffffffffffffffffffffffffffff021916908373ffffffffffffffffffffffffffffffffffffffff16021790555050565b600080fd5b600073ffffffffffffffffffffffffffffffffffffffff82169050919050565b6000620002538262000226565b9050919050565b620002658162000246565b81146200027157600080fd5b50565b60008151905062000285816200025a565b92915050565b60006bffffffffffffffffffffffff82169050919050565b620002ae816200028b565b8114620002ba57600080fd5b50565b600081519050620002ce81620002a3565b92915050565b60008060408385031215620002ee57620002ed62000221565b5b6000620002fe8582860162000274565b92505060206200031185828601620002bd565b9150509250929050565b7f4e487b7100000000000000000000000000000000000000000000000000000000600052602160045260246000fd5b61188f806200035a6000396000f3fe6080604052600436106100dd5760003560e01c80635b9d413e1161007f5780638da5cb5b116100595780638da5cb5b14610255578063cf40d5a614610280578063d02417b1146102a9578063fc72a385146102d2576100dd565b80635b9d413e146101ea5780637150d8ae14610201578063755769e01461022c576100dd565b8063228cb733116100bb578063228cb733146101425780634a1f61251461016d5780634c1249fc14610196578063581e0882146101c1576100dd565b806308551a53146100e25780631a61746e1461010d5780631e25f2df14610117575b600080fd5b3480156100ee57600080fd5b506100f7610300565b60405161010491906110af565b60405180910390f35b610115610326565b005b34801561012357600080fd5b5061012c610382565b60405161013991906110e3565b60405180910390f35b34801561014e57600080fd5b5061015761038a565b60405161016491906110e3565b60405180910390f35b34801561017957600080fd5b50610194600480360381019061018f9190611141565b610390565b005b3480156101a257600080fd5b506101ab61042e565b6040516101b8919061117d565b60405180910390f35b3480156101cd57600080fd5b506101e860048036038101906101e39190611141565b610454565b005b3480156101f657600080fd5b506101ff61062c565b005b34801561020d57600080fd5b50610216610996565b604051610223919061117d565b60405180910390f35b34801561023857600080fd5b50610253600480360381019061024e91906111d1565b6109bc565b005b34801561026157600080fd5b5061026a610ad5565b604051610277919061117d565b60405180910390f35b34801561028c57600080fd5b506102a760048036038101906102a29190611211565b610afb565b005b3480156102b557600080fd5b506102d060048036038101906102cb91906112a3565b610c5f565b005b3480156102de57600080fd5b506102e7610cdf565b6040516102f794939291906113d8565b60405180910390f35b600260009054906101000a900473ffffffffffffffffffffffffffffffffffffffff1681565b600160009054906101000a900473ffffffffffffffffffffffffffffffffffffffff1673ffffffffffffffffffffffffffffffffffffffff163373ffffffffffffffffffffffffffffffffffffffff161461038057600080fd5b565b600047905090565b60055481565b600160009054906101000a900473ffffffffffffffffffffffffffffffffffffffff1673ffffffffffffffffffffffffffffffffffffffff163373ffffffffffffffffffffffffffffffffffffffff16146103ea57600080fd5b80600460006101000a81548173ffffffffffffffffffffffffffffffffffffffff021916908373ffffffffffffffffffffffffffffffffffffffff16021790555050565b600460009054906101000a900473ffffffffffffffffffffffffffffffffffffffff1681565b3373ffffffffffffffffffffffffffffffffffffffff16600260009054906101000a900473ffffffffffffffffffffffffffffffffffffffff1673ffffffffffffffffffffffffffffffffffffffff161480156104ff57508073ffffffffffffffffffffffffffffffffffffffff16600260009054906101000a900473ffffffffffffffffffffffffffffffffffffffff1673ffffffffffffffffffffffffffffffffffffffff1614155b61053e576040517f08c379a0000000000000000000000000000000000000000000000000000000008152600401610535906114a0565b60405180910390fd5b600160008001600c6101000a81548160ff021916908360038111156105665761056561130a565b5b021790555080600360006101000a81548173ffffffffffffffffffffffffffffffffffffffff021916908373ffffffffffffffffffffffffffffffffffffffff1602179055507f4cda03c40a91251de090a894ea66b12aab81e02ae100aa362c7f1800b3fb3af0600260009054906101000a900473ffffffffffffffffffffffffffffffffffffffff16600360009054906101000a900473ffffffffffffffffffffffffffffffffffffffff1660405161062192919061151f565b60405180910390a150565b3373ffffffffffffffffffffffffffffffffffffffff16600360009054906101000a900473ffffffffffffffffffffffffffffffffffffffff1673ffffffffffffffffffffffffffffffffffffffff16146106bc576040517f08c379a00000000000000000000000000000000000000000000000000000000081526004016106b390611594565b60405180910390fd5b600260008001600c6101000a81548160ff021916908360038111156106e4576106e361130a565b5b02179055506106f1610d46565b7fed18e4ff9a34ca798175f13860716b45ab01a68d54e9f4bc73ebd8eb15939b04600260009054906101000a900473ffffffffffffffffffffffffffffffffffffffff16600360009054906101000a900473ffffffffffffffffffffffffffffffffffffffff1660405161076692919061151f565b60405180910390a1600360009054906101000a900473ffffffffffffffffffffffffffffffffffffffff16600260006101000a81548173ffffffffffffffffffffffffffffffffffffffff021916908373ffffffffffffffffffffffffffffffffffffffff1602179055506000600360006101000a81548173ffffffffffffffffffffffffffffffffffffffff021916908373ffffffffffffffffffffffffffffffffffffffff160217905550600160009054906101000a900473ffffffffffffffffffffffffffffffffffffffff1673ffffffffffffffffffffffffffffffffffffffff16600260009054906101000a900473ffffffffffffffffffffffffffffffffffffffff1673ffffffffffffffffffffffffffffffffffffffff16141580156109035750600460009054906101000a900473ffffffffffffffffffffffffffffffffffffffff1673ffffffffffffffffffffffffffffffffffffffff16600260009054906101000a900473ffffffffffffffffffffffffffffffffffffffff1673ffffffffffffffffffffffffffffffffffffffff1614155b15610913576109126001610f08565b5b600460009054906101000a900473ffffffffffffffffffffffffffffffffffffffff1673ffffffffffffffffffffffffffffffffffffffff16600260009054906101000a900473ffffffffffffffffffffffffffffffffffffffff1673ffffffffffffffffffffffffffffffffffffffff16141561099457610993610f37565b5b565b600360009054906101000a900473ffffffffffffffffffffffffffffffffffffffff1681565b600160009054906101000a900473ffffffffffffffffffffffffffffffffffffffff1673ffffffffffffffffffffffffffffffffffffffff163373ffffffffffffffffffffffffffffffffffffffff1614610a1657600080fd5b6000600460149054906101000a900460030b60030b148015610a4a57506000600460189054906101000a900460030b60030b145b610a89576040517f08c379a0000000000000000000000000000000000000000000000000000000008152600401610a8090611626565b60405180910390fd5b81600460146101000a81548163ffffffff021916908360030b63ffffffff16021790555080600460186101000a81548163ffffffff021916908360030b63ffffffff1602179055505050565b600160009054906101000a900473ffffffffffffffffffffffffffffffffffffffff1681565b600260009054906101000a900473ffffffffffffffffffffffffffffffffffffffff1673ffffffffffffffffffffffffffffffffffffffff163373ffffffffffffffffffffffffffffffffffffffff1614610b8b576040517f08c379a0000000000000000000000000000000000000000000000000000000008152600401610b8290611692565b60405180910390fd5b8060008001600e6101000a81548163ffffffff021916908360030b63ffffffff160217905550600460149054906101000a900460030b60030b8160030b131580610bea5750600460189054906101000a900460030b60030b8160030b12155b15610c5c577ff91a4f4e12808473bd39419f8a0d055e6fb5c105ffefcd21ca53c36e387ccfb7600260009054906101000a900473ffffffffffffffffffffffffffffffffffffffff1660008001600e9054906101000a900460030b604051610c53929190611724565b60405180910390a15b50565b600160009054906101000a900473ffffffffffffffffffffffffffffffffffffffff1673ffffffffffffffffffffffffffffffffffffffff163373ffffffffffffffffffffffffffffffffffffffff1614610cb957600080fd5b81600581905550806004601c6101000a81548160ff021916908360ff1602179055505050565b6000806000806000800160009054906101000a90046bffffffffffffffffffffffff1660008001600c9054906101000a900460ff1660008001600d9054906101000a900460ff1660008001600e9054906101000a900460030b935093509350935090919293565b60006004601c9054906101000a900460ff1660ff16118015610d705750610d6b610382565b600554105b8015610dfe57506004601c9054906101000a900460ff1660ff1660066000600260009054906101000a900473ffffffffffffffffffffffffffffffffffffffff1673ffffffffffffffffffffffffffffffffffffffff1673ffffffffffffffffffffffffffffffffffffffff16815260200190815260200160002060009054906101000a900460ff1660ff16105b15610f0657600260009054906101000a900473ffffffffffffffffffffffffffffffffffffffff1673ffffffffffffffffffffffffffffffffffffffff166108fc6005549081150290604051600060405180830381858888f19350505050158015610e6d573d6000803e3d6000fd5b5060066000600260009054906101000a900473ffffffffffffffffffffffffffffffffffffffff1673ffffffffffffffffffffffffffffffffffffffff1673ffffffffffffffffffffffffffffffffffffffff168152602001908152602001600020600081819054906101000a900460ff1680929190610eec9061178f565b91906101000a81548160ff021916908360ff160217905550505b565b8060008001600d6101000a81548160ff02191690836003811115610f2f57610f2e61130a565b5b021790555050565b600360008001600c6101000a81548160ff02191690836003811115610f5f57610f5e61130a565b5b0217905550610f6e6002610f08565b7fdcde1585e07c17affe7826d5641edcbcf609c0fcd6c088d3596f0a53c890775d600460009054906101000a900473ffffffffffffffffffffffffffffffffffffffff16604051610fbf919061182b565b60405180910390a1600460009054906101000a900473ffffffffffffffffffffffffffffffffffffffff16600160006101000a81548173ffffffffffffffffffffffffffffffffffffffff021916908373ffffffffffffffffffffffffffffffffffffffff1602179055506000600460006101000a81548173ffffffffffffffffffffffffffffffffffffffff021916908373ffffffffffffffffffffffffffffffffffffffff160217905550565b600073ffffffffffffffffffffffffffffffffffffffff82169050919050565b60006110998261106e565b9050919050565b6110a98161108e565b82525050565b60006020820190506110c460008301846110a0565b92915050565b6000819050919050565b6110dd816110ca565b82525050565b60006020820190506110f860008301846110d4565b92915050565b600080fd5b600061110e8261106e565b9050919050565b61111e81611103565b811461112957600080fd5b50565b60008135905061113b81611115565b92915050565b600060208284031215611157576111566110fe565b5b60006111658482850161112c565b91505092915050565b61117781611103565b82525050565b6000602082019050611192600083018461116e565b92915050565b60008160030b9050919050565b6111ae81611198565b81146111b957600080fd5b50565b6000813590506111cb816111a5565b92915050565b600080604083850312156111e8576111e76110fe565b5b60006111f6858286016111bc565b9250506020611207858286016111bc565b9150509250929050565b600060208284031215611227576112266110fe565b5b6000611235848285016111bc565b91505092915050565b611247816110ca565b811461125257600080fd5b50565b6000813590506112648161123e565b92915050565b600060ff82169050919050565b6112808161126a565b811461128b57600080fd5b50565b60008135905061129d81611277565b92915050565b600080604083850312156112ba576112b96110fe565b5b60006112c885828601611255565b92505060206112d98582860161128e565b9150509250929050565b60006bffffffffffffffffffffffff82169050919050565b611304816112e3565b82525050565b7f4e487b7100000000000000000000000000000000000000000000000000000000600052602160045260246000fd5b6004811061134a5761134961130a565b5b50565b600081905061135b82611339565b919050565b600061136b8261134d565b9050919050565b61137b81611360565b82525050565b600481106113925761139161130a565b5b50565b60008190506113a382611381565b919050565b60006113b382611395565b9050919050565b6113c3816113a8565b82525050565b6113d281611198565b82525050565b60006080820190506113ed60008301876112fb565b6113fa6020830186611372565b61140760408301856113ba565b61141460608301846113c9565b95945050505050565b600082825260208201905092915050565b7f5468652063616c6c6572206973206e6f742073656e646572206f72207468652060008201527f726563697069656e7420646566696e65642061732073656e6465720000000000602082015250565b600061148a603b8361141d565b91506114958261142e565b604082019050919050565b600060208201905081810360008301526114b98161147d565b9050919050565b6000819050919050565b60006114e56114e06114db8461106e565b6114c0565b61106e565b9050919050565b60006114f7826114ca565b9050919050565b6000611509826114ec565b9050919050565b611519816114fe565b82525050565b60006040820190506115346000830185611510565b611541602083018461116e565b9392505050565b7f5468652063616c6c6572206973206e6f74206275796572000000000000000000600082015250565b600061157e60178361141d565b915061158982611548565b602082019050919050565b600060208201905081810360008301526115ad81611571565b9050919050565b7f546865206c696d69742076616c7565732068617320616c726561647920696e6960008201527f7469616c697a6564000000000000000000000000000000000000000000000000602082015250565b600061161060288361141d565b915061161b826115b4565b604082019050919050565b6000602082019050818103600083015261163f81611603565b9050919050565b7f5468652063616c6c6572206973206e6f742073656e6465720000000000000000600082015250565b600061167c60188361141d565b915061168782611646565b602082019050919050565b600060208201905081810360008301526116ab8161166f565b9050919050565b7f5265636f7264696e67206c696d69742056616c75652066726f6d20737065636960008201527f6669632070617274790000000000000000000000000000000000000000000000602082015250565b600061170e60298361141d565b9150611719826116b2565b604082019050919050565b6000606082019050818103600083015261173d81611701565b905061174c6020830185611510565b61175960408301846113c9565b9392505050565b7f4e487b7100000000000000000000000000000000000000000000000000000000600052601160045260246000fd5b600061179a8261126a565b915060ff8214156117ae576117ad611760565b5b600182019050919050565b7f5468652070726f64756374206172726976656420746f2073706563696669632060008201527f72657461696c6572000000000000000000000000000000000000000000000000602082015250565b600061181560288361141d565b9150611820826117b9565b604082019050919050565b6000604082019050818103600083015261184481611808565b9050611853602083018461116e565b9291505056fea264697066735822122074600170b6f70969fc98f41faf9fccdbbdbdbcd4060dfc09aa1a1c99f8e58e8264736f6c634300080b0033a264697066735822122083727df61ddcc2932f45be9c0900b578b47e89e67ae0b4db8fc5f7de82b1341164736f6c634300080b0033","opcodes":"PUSH1 0x80 PUSH1 0x40 MSTORE CALLVALUE DUP1 ISZERO PUSH2 0x10 JUMPI PUSH1 0x0 DUP1 REVERT JUMPDEST POP PUSH2 0x21C8 DUP1 PUSH2 0x20 PUSH1 0x0 CODECOPY PUSH1 0x0 RETURN INVALID PUSH1 0x80 PUSH1 0x40 MSTORE CALLVALUE DUP1 ISZERO PUSH3 0x11 JUMPI PUSH1 0x0 DUP1 REVERT JUMPDEST POP PUSH1 0x4 CALLDATASIZE LT PUSH3 0x52 JUMPI PUSH1 0x0 CALLDATALOAD PUSH1 0xE0 SHR DUP1 PUSH4 0x5B37F20A EQ PUSH3 0x57 JUMPI DUP1 PUSH4 0x6F3E184C EQ PUSH3 0x77 JUMPI DUP1 PUSH4 0x8718E33B EQ PUSH3 0xAD JUMPI DUP1 PUSH4 0xA578861D EQ PUSH3 0xE3 JUMPI JUMPDEST PUSH1 0x0 DUP1 REVERT JUMPDEST PUSH3 0x75 PUSH1 0x4 DUP1 CALLDATASIZE SUB DUP2 ADD SWAP1 PUSH3 0x6F SWAP2 SWAP1 PUSH3 0x378 JUMP JUMPDEST PUSH3 0x105 JUMP JUMPDEST STOP JUMPDEST PUSH3 0x95 PUSH1 0x4 DUP1 CALLDATASIZE SUB DUP2 ADD SWAP1 PUSH3 0x8F SWAP2 SWAP1 PUSH3 0x378 JUMP JUMPDEST PUSH3 0x219 JUMP JUMPDEST PUSH1 0x40 MLOAD PUSH3 0xA4 SWAP2 SWAP1 PUSH3 0x3EF JUMP JUMPDEST PUSH1 0x40 MLOAD DUP1 SWAP2 SUB SWAP1 RETURN JUMPDEST PUSH3 0xCB PUSH1 0x4 DUP1 CALLDATASIZE SUB DUP2 ADD SWAP1 PUSH3 0xC5 SWAP2 SWAP1 PUSH3 0x447 JUMP JUMPDEST PUSH3 0x24C JUMP JUMPDEST PUSH1 0x40 MLOAD PUSH3 0xDA SWAP2 SWAP1 PUSH3 0x3EF JUMP JUMPDEST PUSH1 0x40 MLOAD DUP1 SWAP2 SUB SWAP1 RETURN JUMPDEST PUSH3 0xED PUSH3 0x28C JUMP JUMPDEST PUSH1 0x40 MLOAD PUSH3 0xFC SWAP2 SWAP1 PUSH3 0x547 JUMP JUMPDEST PUSH1 0x40 MLOAD DUP1 SWAP2 SUB SWAP1 RETURN JUMPDEST PUSH1 0x0 CALLER DUP3 PUSH1 0x40 MLOAD PUSH3 0x117 SWAP1 PUSH3 0x31C JUMP JUMPDEST PUSH3 0x124 SWAP3 SWAP2 SWAP1 PUSH3 0x57C JUMP JUMPDEST PUSH1 0x40 MLOAD DUP1 SWAP2 SUB SWAP1 PUSH1 0x0 CREATE DUP1 ISZERO DUP1 ISZERO PUSH3 0x141 JUMPI RETURNDATASIZE PUSH1 0x0 DUP1 RETURNDATACOPY RETURNDATASIZE PUSH1 0x0 REVERT JUMPDEST POP SWAP1 POP PUSH1 0x0 DUP2 SWAP1 DUP1 PUSH1 0x1 DUP2 SLOAD ADD DUP1 DUP3 SSTORE DUP1 SWAP2 POP POP PUSH1 0x1 SWAP1 SUB SWAP1 PUSH1 0x0 MSTORE PUSH1 0x20 PUSH1 0x0 KECCAK256 ADD PUSH1 0x0 SWAP1 SWAP2 SWAP1 SWAP2 SWAP1 SWAP2 PUSH2 0x100 EXP DUP2 SLOAD DUP2 PUSH20 0xFFFFFFFFFFFFFFFFFFFFFFFFFFFFFFFFFFFFFFFF MUL NOT AND SWAP1 DUP4 PUSH20 0xFFFFFFFFFFFFFFFFFFFFFFFFFFFFFFFFFFFFFFFF AND MUL OR SWAP1 SSTORE POP DUP1 PUSH1 0x1 PUSH1 0x0 DUP5 PUSH12 0xFFFFFFFFFFFFFFFFFFFFFFFF AND PUSH12 0xFFFFFFFFFFFFFFFFFFFFFFFF AND DUP2 MSTORE PUSH1 0x20 ADD SWAP1 DUP2 MSTORE PUSH1 0x20 ADD PUSH1 0x0 KECCAK256 PUSH1 0x0 PUSH2 0x100 EXP DUP2 SLOAD DUP2 PUSH20 0xFFFFFFFFFFFFFFFFFFFFFFFFFFFFFFFFFFFFFFFF MUL NOT AND SWAP1 DUP4 PUSH20 0xFFFFFFFFFFFFFFFFFFFFFFFFFFFFFFFFFFFFFFFF AND MUL OR SWAP1 SSTORE POP POP POP JUMP JUMPDEST PUSH1 0x1 PUSH1 0x20 MSTORE DUP1 PUSH1 0x0 MSTORE PUSH1 0x40 PUSH1 0x0 KECCAK256 PUSH1 0x0 SWAP2 POP SLOAD SWAP1 PUSH2 0x100 EXP SWAP1 DIV PUSH20 0xFFFFFFFFFFFFFFFFFFFFFFFFFFFFFFFFFFFFFFFF AND DUP2 JUMP JUMPDEST PUSH1 0x0 DUP2 DUP2 SLOAD DUP2 LT PUSH3 0x25D JUMPI PUSH1 0x0 DUP1 REVERT JUMPDEST SWAP1 PUSH1 0x0 MSTORE PUSH1 0x20 PUSH1 0x0 KECCAK256 ADD PUSH1 0x0 SWAP2 POP SLOAD SWAP1 PUSH2 0x100 EXP SWAP1 DIV PUSH20 0xFFFFFFFFFFFFFFFFFFFFFFFFFFFFFFFFFFFFFFFF AND DUP2 JUMP JUMPDEST PUSH1 0x60 PUSH1 0x0 DUP1 SLOAD DUP1 PUSH1 0x20 MUL PUSH1 0x20 ADD PUSH1 0x40 MLOAD SWAP1 DUP2 ADD PUSH1 0x40 MSTORE DUP1 SWAP3 SWAP2 SWAP1 DUP2 DUP2 MSTORE PUSH1 0x20 ADD DUP3 DUP1 SLOAD DUP1 ISZERO PUSH3 0x312 JUMPI PUSH1 0x20 MUL DUP3 ADD SWAP2 SWAP1 PUSH1 0x0 MSTORE PUSH1 0x20 PUSH1 0x0 KECCAK256 SWAP1 JUMPDEST DUP2 PUSH1 0x0 SWAP1 SLOAD SWAP1 PUSH2 0x100 EXP SWAP1 DIV PUSH20 0xFFFFFFFFFFFFFFFFFFFFFFFFFFFFFFFFFFFFFFFF AND PUSH20 0xFFFFFFFFFFFFFFFFFFFFFFFFFFFFFFFFFFFFFFFF AND DUP2 MSTORE PUSH1 0x20 ADD SWAP1 PUSH1 0x1 ADD SWAP1 DUP1 DUP4 GT PUSH3 0x2C7 JUMPI JUMPDEST POP POP POP POP POP SWAP1 POP SWAP1 JUMP JUMPDEST PUSH2 0x1BE9 DUP1 PUSH3 0x5AA DUP4 CODECOPY ADD SWAP1 JUMP JUMPDEST PUSH1 0x0 DUP1 REVERT JUMPDEST PUSH1 0x0 PUSH12 0xFFFFFFFFFFFFFFFFFFFFFFFF DUP3 AND SWAP1 POP SWAP2 SWAP1 POP JUMP JUMPDEST PUSH3 0x352 DUP2 PUSH3 0x32F JUMP JUMPDEST DUP2 EQ PUSH3 0x35E JUMPI PUSH1 0x0 DUP1 REVERT JUMPDEST POP JUMP JUMPDEST PUSH1 0x0 DUP2 CALLDATALOAD SWAP1 POP PUSH3 0x372 DUP2 PUSH3 0x347 JUMP JUMPDEST SWAP3 SWAP2 POP POP JUMP JUMPDEST PUSH1 0x0 PUSH1 0x20 DUP3 DUP5 SUB SLT ISZERO PUSH3 0x391 JUMPI PUSH3 0x390 PUSH3 0x32A JUMP JUMPDEST JUMPDEST PUSH1 0x0 PUSH3 0x3A1 DUP5 DUP3 DUP6 ADD PUSH3 0x361 JUMP JUMPDEST SWAP2 POP POP SWAP3 SWAP2 POP POP JUMP JUMPDEST PUSH1 0x0 PUSH20 0xFFFFFFFFFFFFFFFFFFFFFFFFFFFFFFFFFFFFFFFF DUP3 AND SWAP1 POP SWAP2 SWAP1 POP JUMP JUMPDEST PUSH1 0x0 PUSH3 0x3D7 DUP3 PUSH3 0x3AA JUMP JUMPDEST SWAP1 POP SWAP2 SWAP1 POP JUMP JUMPDEST PUSH3 0x3E9 DUP2 PUSH3 0x3CA JUMP JUMPDEST DUP3 MSTORE POP POP JUMP JUMPDEST PUSH1 0x0 PUSH1 0x20 DUP3 ADD SWAP1 POP PUSH3 0x406 PUSH1 0x0 DUP4 ADD DUP5 PUSH3 0x3DE JUMP JUMPDEST SWAP3 SWAP2 POP POP JUMP JUMPDEST PUSH1 0x0 DUP2 SWAP1 POP SWAP2 SWAP1 POP JUMP JUMPDEST PUSH3 0x421 DUP2 PUSH3 0x40C JUMP JUMPDEST DUP2 EQ PUSH3 0x42D JUMPI PUSH1 0x0 DUP1 REVERT JUMPDEST POP JUMP JUMPDEST PUSH1 0x0 DUP2 CALLDATALOAD SWAP1 POP PUSH3 0x441 DUP2 PUSH3 0x416 JUMP JUMPDEST SWAP3 SWAP2 POP POP JUMP JUMPDEST PUSH1 0x0 PUSH1 0x20 DUP3 DUP5 SUB SLT ISZERO PUSH3 0x460 JUMPI PUSH3 0x45F PUSH3 0x32A JUMP JUMPDEST JUMPDEST PUSH1 0x0 PUSH3 0x470 DUP5 DUP3 DUP6 ADD PUSH3 0x430 JUMP JUMPDEST SWAP2 POP POP SWAP3 SWAP2 POP POP JUMP JUMPDEST PUSH1 0x0 DUP2 MLOAD SWAP1 POP SWAP2 SWAP1 POP JUMP JUMPDEST PUSH1 0x0 DUP3 DUP3 MSTORE PUSH1 0x20 DUP3 ADD SWAP1 POP SWAP3 SWAP2 POP POP JUMP JUMPDEST PUSH1 0x0 DUP2 SWAP1 POP PUSH1 0x20 DUP3 ADD SWAP1 POP SWAP2 SWAP1 POP JUMP JUMPDEST PUSH3 0x4B0 DUP2 PUSH3 0x3CA JUMP JUMPDEST DUP3 MSTORE POP POP JUMP JUMPDEST PUSH1 0x0 PUSH3 0x4C4 DUP4 DUP4 PUSH3 0x4A5 JUMP JUMPDEST PUSH1 0x20 DUP4 ADD SWAP1 POP SWAP3 SWAP2 POP POP JUMP JUMPDEST PUSH1 0x0 PUSH1 0x20 DUP3 ADD SWAP1 POP SWAP2 SWAP1 POP JUMP JUMPDEST PUSH1 0x0 PUSH3 0x4EA DUP3 PUSH3 0x479 JUMP JUMPDEST PUSH3 0x4F6 DUP2 DUP6 PUSH3 0x484 JUMP JUMPDEST SWAP4 POP PUSH3 0x503 DUP4 PUSH3 0x495 JUMP JUMPDEST DUP1 PUSH1 0x0 JUMPDEST DUP4 DUP2 LT ISZERO PUSH3 0x53A JUMPI DUP2 MLOAD PUSH3 0x51E DUP9 DUP3 PUSH3 0x4B6 JUMP JUMPDEST SWAP8 POP PUSH3 0x52B DUP4 PUSH3 0x4D0 JUMP JUMPDEST SWAP3 POP POP PUSH1 0x1 DUP2 ADD SWAP1 POP PUSH3 0x507 JUMP JUMPDEST POP DUP6 SWAP4 POP POP POP POP SWAP3 SWAP2 POP POP JUMP JUMPDEST PUSH1 0x0 PUSH1 0x20 DUP3 ADD SWAP1 POP DUP2 DUP2 SUB PUSH1 0x0 DUP4 ADD MSTORE PUSH3 0x563 DUP2 DUP5 PUSH3 0x4DD JUMP JUMPDEST SWAP1 POP SWAP3 SWAP2 POP POP JUMP JUMPDEST PUSH3 0x576 DUP2 PUSH3 0x32F JUMP JUMPDEST DUP3 MSTORE POP POP JUMP JUMPDEST PUSH1 0x0 PUSH1 0x40 DUP3 ADD SWAP1 POP PUSH3 0x593 PUSH1 0x0 DUP4 ADD DUP6 PUSH3 0x3DE JUMP JUMPDEST PUSH3 0x5A2 PUSH1 0x20 DUP4 ADD DUP5 PUSH3 0x56B JUMP JUMPDEST SWAP4 SWAP3 POP POP POP JUMP INVALID PUSH1 0x80 PUSH1 0x40 MSTORE CALLVALUE DUP1 ISZERO PUSH3 0x11 JUMPI PUSH1 0x0 DUP1 REVERT JUMPDEST POP PUSH1 0x40 MLOAD PUSH3 0x1BE9 CODESIZE SUB DUP1 PUSH3 0x1BE9 DUP4 CODECOPY DUP2 DUP2 ADD PUSH1 0x40 MSTORE DUP2 ADD SWAP1 PUSH3 0x37 SWAP2 SWAP1 PUSH3 0x2D4 JUMP JUMPDEST DUP2 PUSH1 0x1 PUSH1 0x0 PUSH2 0x100 EXP DUP2 SLOAD DUP2 PUSH20 0xFFFFFFFFFFFFFFFFFFFFFFFFFFFFFFFFFFFFFFFF MUL NOT AND SWAP1 DUP4 PUSH20 0xFFFFFFFFFFFFFFFFFFFFFFFFFFFFFFFFFFFFFFFF AND MUL OR SWAP1 SSTORE POP PUSH3 0x89 DUP2 PUSH3 0x91 PUSH1 0x20 SHL PUSH1 0x20 SHR JUMP JUMPDEST POP POP PUSH3 0x34A JUMP JUMPDEST PUSH1 0x40 MLOAD DUP1 PUSH1 0x80 ADD PUSH1 0x40 MSTORE DUP1 DUP3 PUSH12 0xFFFFFFFFFFFFFFFFFFFFFFFF AND DUP2 MSTORE PUSH1 0x20 ADD PUSH1 0x0 PUSH1 0x3 DUP2 GT ISZERO PUSH3 0xC7 JUMPI PUSH3 0xC6 PUSH3 0x31B JUMP JUMPDEST JUMPDEST DUP2 MSTORE PUSH1 0x20 ADD PUSH1 0x0 PUSH1 0x3 DUP2 GT ISZERO PUSH3 0xE3 JUMPI PUSH3 0xE2 PUSH3 0x31B JUMP JUMPDEST JUMPDEST DUP2 MSTORE PUSH1 0x20 ADD PUSH1 0x0 PUSH1 0x3 SIGNEXTEND DUP2 MSTORE POP PUSH1 0x0 DUP1 DUP3 ADD MLOAD DUP2 PUSH1 0x0 ADD PUSH1 0x0 PUSH2 0x100 EXP DUP2 SLOAD DUP2 PUSH12 0xFFFFFFFFFFFFFFFFFFFFFFFF MUL NOT AND SWAP1 DUP4 PUSH12 0xFFFFFFFFFFFFFFFFFFFFFFFF AND MUL OR SWAP1 SSTORE POP PUSH1 0x20 DUP3 ADD MLOAD DUP2 PUSH1 0x0 ADD PUSH1 0xC PUSH2 0x100 EXP DUP2 SLOAD DUP2 PUSH1 0xFF MUL NOT AND SWAP1 DUP4 PUSH1 0x3 DUP2 GT ISZERO PUSH3 0x156 JUMPI PUSH3 0x155 PUSH3 0x31B JUMP JUMPDEST JUMPDEST MUL OR SWAP1 SSTORE POP PUSH1 0x40 DUP3 ADD MLOAD DUP2 PUSH1 0x0 ADD PUSH1 0xD PUSH2 0x100 EXP DUP2 SLOAD DUP2 PUSH1 0xFF MUL NOT AND SWAP1 DUP4 PUSH1 0x3 DUP2 GT ISZERO PUSH3 0x189 JUMPI PUSH3 0x188 PUSH3 0x31B JUMP JUMPDEST JUMPDEST MUL OR SWAP1 SSTORE POP PUSH1 0x60 DUP3 ADD MLOAD DUP2 PUSH1 0x0 ADD PUSH1 0xE PUSH2 0x100 EXP DUP2 SLOAD DUP2 PUSH4 0xFFFFFFFF MUL NOT AND SWAP1 DUP4 PUSH1 0x3 SIGNEXTEND PUSH4 0xFFFFFFFF AND MUL OR SWAP1 SSTORE POP SWAP1 POP POP PUSH1 0x1 PUSH1 0x0 SWAP1 SLOAD SWAP1 PUSH2 0x100 EXP SWAP1 DIV PUSH20 0xFFFFFFFFFFFFFFFFFFFFFFFFFFFFFFFFFFFFFFFF AND PUSH1 0x2 PUSH1 0x0 PUSH2 0x100 EXP DUP2 SLOAD DUP2 PUSH20 0xFFFFFFFFFFFFFFFFFFFFFFFFFFFFFFFFFFFFFFFF MUL NOT AND SWAP1 DUP4 PUSH20 0xFFFFFFFFFFFFFFFFFFFFFFFFFFFFFFFFFFFFFFFF AND MUL OR SWAP1 SSTORE POP POP JUMP JUMPDEST PUSH1 0x0 DUP1 REVERT JUMPDEST PUSH1 0x0 PUSH20 0xFFFFFFFFFFFFFFFFFFFFFFFFFFFFFFFFFFFFFFFF DUP3 AND SWAP1 POP SWAP2 SWAP1 POP JUMP JUMPDEST PUSH1 0x0 PUSH3 0x253 DUP3 PUSH3 0x226 JUMP JUMPDEST SWAP1 POP SWAP2 SWAP1 POP JUMP JUMPDEST PUSH3 0x265 DUP2 PUSH3 0x246 JUMP JUMPDEST DUP2 EQ PUSH3 0x271 JUMPI PUSH1 0x0 DUP1 REVERT JUMPDEST POP JUMP JUMPDEST PUSH1 0x0 DUP2 MLOAD SWAP1 POP PUSH3 0x285 DUP2 PUSH3 0x25A JUMP JUMPDEST SWAP3 SWAP2 POP POP JUMP JUMPDEST PUSH1 0x0 PUSH12 0xFFFFFFFFFFFFFFFFFFFFFFFF DUP3 AND SWAP1 POP SWAP2 SWAP1 POP JUMP JUMPDEST PUSH3 0x2AE DUP2 PUSH3 0x28B JUMP JUMPDEST DUP2 EQ PUSH3 0x2BA JUMPI PUSH1 0x0 DUP1 REVERT JUMPDEST POP JUMP JUMPDEST PUSH1 0x0 DUP2 MLOAD SWAP1 POP PUSH3 0x2CE DUP2 PUSH3 0x2A3 JUMP JUMPDEST SWAP3 SWAP2 POP POP JUMP JUMPDEST PUSH1 0x0 DUP1 PUSH1 0x40 DUP4 DUP6 SUB SLT ISZERO PUSH3 0x2EE JUMPI PUSH3 0x2ED PUSH3 0x221 JUMP JUMPDEST JUMPDEST PUSH1 0x0 PUSH3 0x2FE DUP6 DUP3 DUP7 ADD PUSH3 0x274 JUMP JUMPDEST SWAP3 POP POP PUSH1 0x20 PUSH3 0x311 DUP6 DUP3 DUP7 ADD PUSH3 0x2BD JUMP JUMPDEST SWAP2 POP POP SWAP3 POP SWAP3 SWAP1 POP JUMP JUMPDEST PUSH32 0x4E487B7100000000000000000000000000000000000000000000000000000000 PUSH1 0x0 MSTORE PUSH1 0x21 PUSH1 0x4 MSTORE PUSH1 0x24 PUSH1 0x0 REVERT JUMPDEST PUSH2 0x188F DUP1 PUSH3 0x35A PUSH1 0x0 CODECOPY PUSH1 0x0 RETURN INVALID PUSH1 0x80 PUSH1 0x40 MSTORE PUSH1 0x4 CALLDATASIZE LT PUSH2 0xDD JUMPI PUSH1 0x0 CALLDATALOAD PUSH1 0xE0 SHR DUP1 PUSH4 0x5B9D413E GT PUSH2 0x7F JUMPI DUP1 PUSH4 0x8DA5CB5B GT PUSH2 0x59 JUMPI DUP1 PUSH4 0x8DA5CB5B EQ PUSH2 0x255 JUMPI DUP1 PUSH4 0xCF40D5A6 EQ PUSH2 0x280 JUMPI DUP1 PUSH4 0xD02417B1 EQ PUSH2 0x2A9 JUMPI DUP1 PUSH4 0xFC72A385 EQ PUSH2 0x2D2 JUMPI PUSH2 0xDD JUMP JUMPDEST DUP1 PUSH4 0x5B9D413E EQ PUSH2 0x1EA JUMPI DUP1 PUSH4 0x7150D8AE EQ PUSH2 0x201 JUMPI DUP1 PUSH4 0x755769E0 EQ PUSH2 0x22C JUMPI PUSH2 0xDD JUMP JUMPDEST DUP1 PUSH4 0x228CB733 GT PUSH2 0xBB JUMPI DUP1 PUSH4 0x228CB733 EQ PUSH2 0x142 JUMPI DUP1 PUSH4 0x4A1F6125 EQ PUSH2 0x16D JUMPI DUP1 PUSH4 0x4C1249FC EQ PUSH2 0x196 JUMPI DUP1 PUSH4 0x581E0882 EQ PUSH2 0x1C1 JUMPI PUSH2 0xDD JUMP JUMPDEST DUP1 PUSH4 0x8551A53 EQ PUSH2 0xE2 JUMPI DUP1 PUSH4 0x1A61746E EQ PUSH2 0x10D JUMPI DUP1 PUSH4 0x1E25F2DF EQ PUSH2 0x117 JUMPI JUMPDEST PUSH1 0x0 DUP1 REVERT JUMPDEST CALLVALUE DUP1 ISZERO PUSH2 0xEE JUMPI PUSH1 0x0 DUP1 REVERT JUMPDEST POP PUSH2 0xF7 PUSH2 0x300 JUMP JUMPDEST PUSH1 0x40 MLOAD PUSH2 0x104 SWAP2 SWAP1 PUSH2 0x10AF JUMP JUMPDEST PUSH1 0x40 MLOAD DUP1 SWAP2 SUB SWAP1 RETURN JUMPDEST PUSH2 0x115 PUSH2 0x326 JUMP JUMPDEST STOP JUMPDEST CALLVALUE DUP1 ISZERO PUSH2 0x123 JUMPI PUSH1 0x0 DUP1 REVERT JUMPDEST POP PUSH2 0x12C PUSH2 0x382 JUMP JUMPDEST PUSH1 0x40 MLOAD PUSH2 0x139 SWAP2 SWAP1 PUSH2 0x10E3 JUMP JUMPDEST PUSH1 0x40 MLOAD DUP1 SWAP2 SUB SWAP1 RETURN JUMPDEST CALLVALUE DUP1 ISZERO PUSH2 0x14E JUMPI PUSH1 0x0 DUP1 REVERT JUMPDEST POP PUSH2 0x157 PUSH2 0x38A JUMP JUMPDEST PUSH1 0x40 MLOAD PUSH2 0x164 SWAP2 SWAP1 PUSH2 0x10E3 JUMP JUMPDEST PUSH1 0x40 MLOAD DUP1 SWAP2 SUB SWAP1 RETURN JUMPDEST CALLVALUE DUP1 ISZERO PUSH2 0x179 JUMPI PUSH1 0x0 DUP1 REVERT JUMPDEST POP PUSH2 0x194 PUSH1 0x4 DUP1 CALLDATASIZE SUB DUP2 ADD SWAP1 PUSH2 0x18F SWAP2 SWAP1 PUSH2 0x1141 JUMP JUMPDEST PUSH2 0x390 JUMP JUMPDEST STOP JUMPDEST CALLVALUE DUP1 ISZERO PUSH2 0x1A2 JUMPI PUSH1 0x0 DUP1 REVERT JUMPDEST POP PUSH2 0x1AB PUSH2 0x42E JUMP JUMPDEST PUSH1 0x40 MLOAD PUSH2 0x1B8 SWAP2 SWAP1 PUSH2 0x117D JUMP JUMPDEST PUSH1 0x40 MLOAD DUP1 SWAP2 SUB SWAP1 RETURN JUMPDEST CALLVALUE DUP1 ISZERO PUSH2 0x1CD JUMPI PUSH1 0x0 DUP1 REVERT JUMPDEST POP PUSH2 0x1E8 PUSH1 0x4 DUP1 CALLDATASIZE SUB DUP2 ADD SWAP1 PUSH2 0x1E3 SWAP2 SWAP1 PUSH2 0x1141 JUMP JUMPDEST PUSH2 0x454 JUMP JUMPDEST STOP JUMPDEST CALLVALUE DUP1 ISZERO PUSH2 0x1F6 JUMPI PUSH1 0x0 DUP1 REVERT JUMPDEST POP PUSH2 0x1FF PUSH2 0x62C JUMP JUMPDEST STOP JUMPDEST CALLVALUE DUP1 ISZERO PUSH2 0x20D JUMPI PUSH1 0x0 DUP1 REVERT JUMPDEST POP PUSH2 0x216 PUSH2 0x996 JUMP JUMPDEST PUSH1 0x40 MLOAD PUSH2 0x223 SWAP2 SWAP1 PUSH2 0x117D JUMP JUMPDEST PUSH1 0x40 MLOAD DUP1 SWAP2 SUB SWAP1 RETURN JUMPDEST CALLVALUE DUP1 ISZERO PUSH2 0x238 JUMPI PUSH1 0x0 DUP1 REVERT JUMPDEST POP PUSH2 0x253 PUSH1 0x4 DUP1 CALLDATASIZE SUB DUP2 ADD SWAP1 PUSH2 0x24E SWAP2 SWAP1 PUSH2 0x11D1 JUMP JUMPDEST PUSH2 0x9BC JUMP JUMPDEST STOP JUMPDEST CALLVALUE DUP1 ISZERO PUSH2 0x261 JUMPI PUSH1 0x0 DUP1 REVERT JUMPDEST POP PUSH2 0x26A PUSH2 0xAD5 JUMP JUMPDEST PUSH1 0x40 MLOAD PUSH2 0x277 SWAP2 SWAP1 PUSH2 0x117D JUMP JUMPDEST PUSH1 0x40 MLOAD DUP1 SWAP2 SUB SWAP1 RETURN JUMPDEST CALLVALUE DUP1 ISZERO PUSH2 0x28C JUMPI PUSH1 0x0 DUP1 REVERT JUMPDEST POP PUSH2 0x2A7 PUSH1 0x4 DUP1 CALLDATASIZE SUB DUP2 ADD SWAP1 PUSH2 0x2A2 SWAP2 SWAP1 PUSH2 0x1211 JUMP JUMPDEST PUSH2 0xAFB JUMP JUMPDEST STOP JUMPDEST CALLVALUE DUP1 ISZERO PUSH2 0x2B5 JUMPI PUSH1 0x0 DUP1 REVERT JUMPDEST POP PUSH2 0x2D0 PUSH1 0x4 DUP1 CALLDATASIZE SUB DUP2 ADD SWAP1 PUSH2 0x2CB SWAP2 SWAP1 PUSH2 0x12A3 JUMP JUMPDEST PUSH2 0xC5F JUMP JUMPDEST STOP JUMPDEST CALLVALUE DUP1 ISZERO PUSH2 0x2DE JUMPI PUSH1 0x0 DUP1 REVERT JUMPDEST POP PUSH2 0x2E7 PUSH2 0xCDF JUMP JUMPDEST PUSH1 0x40 MLOAD PUSH2 0x2F7 SWAP5 SWAP4 SWAP3 SWAP2 SWAP1 PUSH2 0x13D8 JUMP JUMPDEST PUSH1 0x40 MLOAD DUP1 SWAP2 SUB SWAP1 RETURN JUMPDEST PUSH1 0x2 PUSH1 0x0 SWAP1 SLOAD SWAP1 PUSH2 0x100 EXP SWAP1 DIV PUSH20 0xFFFFFFFFFFFFFFFFFFFFFFFFFFFFFFFFFFFFFFFF AND DUP2 JUMP JUMPDEST PUSH1 0x1 PUSH1 0x0 SWAP1 SLOAD SWAP1 PUSH2 0x100 EXP SWAP1 DIV PUSH20 0xFFFFFFFFFFFFFFFFFFFFFFFFFFFFFFFFFFFFFFFF AND PUSH20 0xFFFFFFFFFFFFFFFFFFFFFFFFFFFFFFFFFFFFFFFF AND CALLER PUSH20 0xFFFFFFFFFFFFFFFFFFFFFFFFFFFFFFFFFFFFFFFF AND EQ PUSH2 0x380 JUMPI PUSH1 0x0 DUP1 REVERT JUMPDEST JUMP JUMPDEST PUSH1 0x0 SELFBALANCE SWAP1 POP SWAP1 JUMP JUMPDEST PUSH1 0x5 SLOAD DUP2 JUMP JUMPDEST PUSH1 0x1 PUSH1 0x0 SWAP1 SLOAD SWAP1 PUSH2 0x100 EXP SWAP1 DIV PUSH20 0xFFFFFFFFFFFFFFFFFFFFFFFFFFFFFFFFFFFFFFFF AND PUSH20 0xFFFFFFFFFFFFFFFFFFFFFFFFFFFFFFFFFFFFFFFF AND CALLER PUSH20 0xFFFFFFFFFFFFFFFFFFFFFFFFFFFFFFFFFFFFFFFF AND EQ PUSH2 0x3EA JUMPI PUSH1 0x0 DUP1 REVERT JUMPDEST DUP1 PUSH1 0x4 PUSH1 0x0 PUSH2 0x100 EXP DUP2 SLOAD DUP2 PUSH20 0xFFFFFFFFFFFFFFFFFFFFFFFFFFFFFFFFFFFFFFFF MUL NOT AND SWAP1 DUP4 PUSH20 0xFFFFFFFFFFFFFFFFFFFFFFFFFFFFFFFFFFFFFFFF AND MUL OR SWAP1 SSTORE POP POP JUMP JUMPDEST PUSH1 0x4 PUSH1 0x0 SWAP1 SLOAD SWAP1 PUSH2 0x100 EXP SWAP1 DIV PUSH20 0xFFFFFFFFFFFFFFFFFFFFFFFFFFFFFFFFFFFFFFFF AND DUP2 JUMP JUMPDEST CALLER PUSH20 0xFFFFFFFFFFFFFFFFFFFFFFFFFFFFFFFFFFFFFFFF AND PUSH1 0x2 PUSH1 0x0 SWAP1 SLOAD SWAP1 PUSH2 0x100 EXP SWAP1 DIV PUSH20 0xFFFFFFFFFFFFFFFFFFFFFFFFFFFFFFFFFFFFFFFF AND PUSH20 0xFFFFFFFFFFFFFFFFFFFFFFFFFFFFFFFFFFFFFFFF AND EQ DUP1 ISZERO PUSH2 0x4FF JUMPI POP DUP1 PUSH20 0xFFFFFFFFFFFFFFFFFFFFFFFFFFFFFFFFFFFFFFFF AND PUSH1 0x2 PUSH1 0x0 SWAP1 SLOAD SWAP1 PUSH2 0x100 EXP SWAP1 DIV PUSH20 0xFFFFFFFFFFFFFFFFFFFFFFFFFFFFFFFFFFFFFFFF AND PUSH20 0xFFFFFFFFFFFFFFFFFFFFFFFFFFFFFFFFFFFFFFFF AND EQ ISZERO JUMPDEST PUSH2 0x53E JUMPI PUSH1 0x40 MLOAD PUSH32 0x8C379A000000000000000000000000000000000000000000000000000000000 DUP2 MSTORE PUSH1 0x4 ADD PUSH2 0x535 SWAP1 PUSH2 0x14A0 JUMP JUMPDEST PUSH1 0x40 MLOAD DUP1 SWAP2 SUB SWAP1 REVERT JUMPDEST PUSH1 0x1 PUSH1 0x0 DUP1 ADD PUSH1 0xC PUSH2 0x100 EXP DUP2 SLOAD DUP2 PUSH1 0xFF MUL NOT AND SWAP1 DUP4 PUSH1 0x3 DUP2 GT ISZERO PUSH2 0x566 JUMPI PUSH2 0x565 PUSH2 0x130A JUMP JUMPDEST JUMPDEST MUL OR SWAP1 SSTORE POP DUP1 PUSH1 0x3 PUSH1 0x0 PUSH2 0x100 EXP DUP2 SLOAD DUP2 PUSH20 0xFFFFFFFFFFFFFFFFFFFFFFFFFFFFFFFFFFFFFFFF MUL NOT AND SWAP1 DUP4 PUSH20 0xFFFFFFFFFFFFFFFFFFFFFFFFFFFFFFFFFFFFFFFF AND MUL OR SWAP1 SSTORE POP PUSH32 0x4CDA03C40A91251DE090A894EA66B12AAB81E02AE100AA362C7F1800B3FB3AF0 PUSH1 0x2 PUSH1 0x0 SWAP1 SLOAD SWAP1 PUSH2 0x100 EXP SWAP1 DIV PUSH20 0xFFFFFFFFFFFFFFFFFFFFFFFFFFFFFFFFFFFFFFFF AND PUSH1 0x3 PUSH1 0x0 SWAP1 SLOAD SWAP1 PUSH2 0x100 EXP SWAP1 DIV PUSH20 0xFFFFFFFFFFFFFFFFFFFFFFFFFFFFFFFFFFFFFFFF AND PUSH1 0x40 MLOAD PUSH2 0x621 SWAP3 SWAP2 SWAP1 PUSH2 0x151F JUMP JUMPDEST PUSH1 0x40 MLOAD DUP1 SWAP2 SUB SWAP1 LOG1 POP JUMP JUMPDEST CALLER PUSH20 0xFFFFFFFFFFFFFFFFFFFFFFFFFFFFFFFFFFFFFFFF AND PUSH1 0x3 PUSH1 0x0 SWAP1 SLOAD SWAP1 PUSH2 0x100 EXP SWAP1 DIV PUSH20 0xFFFFFFFFFFFFFFFFFFFFFFFFFFFFFFFFFFFFFFFF AND PUSH20 0xFFFFFFFFFFFFFFFFFFFFFFFFFFFFFFFFFFFFFFFF AND EQ PUSH2 0x6BC JUMPI PUSH1 0x40 MLOAD PUSH32 0x8C379A000000000000000000000000000000000000000000000000000000000 DUP2 MSTORE PUSH1 0x4 ADD PUSH2 0x6B3 SWAP1 PUSH2 0x1594 JUMP JUMPDEST PUSH1 0x40 MLOAD DUP1 SWAP2 SUB SWAP1 REVERT JUMPDEST PUSH1 0x2 PUSH1 0x0 DUP1 ADD PUSH1 0xC PUSH2 0x100 EXP DUP2 SLOAD DUP2 PUSH1 0xFF MUL NOT AND SWAP1 DUP4 PUSH1 0x3 DUP2 GT ISZERO PUSH2 0x6E4 JUMPI PUSH2 0x6E3 PUSH2 0x130A JUMP JUMPDEST JUMPDEST MUL OR SWAP1 SSTORE POP PUSH2 0x6F1 PUSH2 0xD46 JUMP JUMPDEST PUSH32 0xED18E4FF9A34CA798175F13860716B45AB01A68D54E9F4BC73EBD8EB15939B04 PUSH1 0x2 PUSH1 0x0 SWAP1 SLOAD SWAP1 PUSH2 0x100 EXP SWAP1 DIV PUSH20 0xFFFFFFFFFFFFFFFFFFFFFFFFFFFFFFFFFFFFFFFF AND PUSH1 0x3 PUSH1 0x0 SWAP1 SLOAD SWAP1 PUSH2 0x100 EXP SWAP1 DIV PUSH20 0xFFFFFFFFFFFFFFFFFFFFFFFFFFFFFFFFFFFFFFFF AND PUSH1 0x40 MLOAD PUSH2 0x766 SWAP3 SWAP2 SWAP1 PUSH2 0x151F JUMP JUMPDEST PUSH1 0x40 MLOAD DUP1 SWAP2 SUB SWAP1 LOG1 PUSH1 0x3 PUSH1 0x0 SWAP1 SLOAD SWAP1 PUSH2 0x100 EXP SWAP1 DIV PUSH20 0xFFFFFFFFFFFFFFFFFFFFFFFFFFFFFFFFFFFFFFFF AND PUSH1 0x2 PUSH1 0x0 PUSH2 0x100 EXP DUP2 SLOAD DUP2 PUSH20 0xFFFFFFFFFFFFFFFFFFFFFFFFFFFFFFFFFFFFFFFF MUL NOT AND SWAP1 DUP4 PUSH20 0xFFFFFFFFFFFFFFFFFFFFFFFFFFFFFFFFFFFFFFFF AND MUL OR SWAP1 SSTORE POP PUSH1 0x0 PUSH1 0x3 PUSH1 0x0 PUSH2 0x100 EXP DUP2 SLOAD DUP2 PUSH20 0xFFFFFFFFFFFFFFFFFFFFFFFFFFFFFFFFFFFFFFFF MUL NOT AND SWAP1 DUP4 PUSH20 0xFFFFFFFFFFFFFFFFFFFFFFFFFFFFFFFFFFFFFFFF AND MUL OR SWAP1 SSTORE POP PUSH1 0x1 PUSH1 0x0 SWAP1 SLOAD SWAP1 PUSH2 0x100 EXP SWAP1 DIV PUSH20 0xFFFFFFFFFFFFFFFFFFFFFFFFFFFFFFFFFFFFFFFF AND PUSH20 0xFFFFFFFFFFFFFFFFFFFFFFFFFFFFFFFFFFFFFFFF AND PUSH1 0x2 PUSH1 0x0 SWAP1 SLOAD SWAP1 PUSH2 0x100 EXP SWAP1 DIV PUSH20 0xFFFFFFFFFFFFFFFFFFFFFFFFFFFFFFFFFFFFFFFF AND PUSH20 0xFFFFFFFFFFFFFFFFFFFFFFFFFFFFFFFFFFFFFFFF AND EQ ISZERO DUP1 ISZERO PUSH2 0x903 JUMPI POP PUSH1 0x4 PUSH1 0x0 SWAP1 SLOAD SWAP1 PUSH2 0x100 EXP SWAP1 DIV PUSH20 0xFFFFFFFFFFFFFFFFFFFFFFFFFFFFFFFFFFFFFFFF AND PUSH20 0xFFFFFFFFFFFFFFFFFFFFFFFFFFFFFFFFFFFFFFFF AND PUSH1 0x2 PUSH1 0x0 SWAP1 SLOAD SWAP1 PUSH2 0x100 EXP SWAP1 DIV PUSH20 0xFFFFFFFFFFFFFFFFFFFFFFFFFFFFFFFFFFFFFFFF AND PUSH20 0xFFFFFFFFFFFFFFFFFFFFFFFFFFFFFFFFFFFFFFFF AND EQ ISZERO JUMPDEST ISZERO PUSH2 0x913 JUMPI PUSH2 0x912 PUSH1 0x1 PUSH2 0xF08 JUMP JUMPDEST JUMPDEST PUSH1 0x4 PUSH1 0x0 SWAP1 SLOAD SWAP1 PUSH2 0x100 EXP SWAP1 DIV PUSH20 0xFFFFFFFFFFFFFFFFFFFFFFFFFFFFFFFFFFFFFFFF AND PUSH20 0xFFFFFFFFFFFFFFFFFFFFFFFFFFFFFFFFFFFFFFFF AND PUSH1 0x2 PUSH1 0x0 SWAP1 SLOAD SWAP1 PUSH2 0x100 EXP SWAP1 DIV PUSH20 0xFFFFFFFFFFFFFFFFFFFFFFFFFFFFFFFFFFFFFFFF AND PUSH20 0xFFFFFFFFFFFFFFFFFFFFFFFFFFFFFFFFFFFFFFFF AND EQ ISZERO PUSH2 0x994 JUMPI PUSH2 0x993 PUSH2 0xF37 JUMP JUMPDEST JUMPDEST JUMP JUMPDEST PUSH1 0x3 PUSH1 0x0 SWAP1 SLOAD SWAP1 PUSH2 0x100 EXP SWAP1 DIV PUSH20 0xFFFFFFFFFFFFFFFFFFFFFFFFFFFFFFFFFFFFFFFF AND DUP2 JUMP JUMPDEST PUSH1 0x1 PUSH1 0x0 SWAP1 SLOAD SWAP1 PUSH2 0x100 EXP SWAP1 DIV PUSH20 0xFFFFFFFFFFFFFFFFFFFFFFFFFFFFFFFFFFFFFFFF AND PUSH20 0xFFFFFFFFFFFFFFFFFFFFFFFFFFFFFFFFFFFFFFFF AND CALLER PUSH20 0xFFFFFFFFFFFFFFFFFFFFFFFFFFFFFFFFFFFFFFFF AND EQ PUSH2 0xA16 JUMPI PUSH1 0x0 DUP1 REVERT JUMPDEST PUSH1 0x0 PUSH1 0x4 PUSH1 0x14 SWAP1 SLOAD SWAP1 PUSH2 0x100 EXP SWAP1 DIV PUSH1 0x3 SIGNEXTEND PUSH1 0x3 SIGNEXTEND EQ DUP1 ISZERO PUSH2 0xA4A JUMPI POP PUSH1 0x0 PUSH1 0x4 PUSH1 0x18 SWAP1 SLOAD SWAP1 PUSH2 0x100 EXP SWAP1 DIV PUSH1 0x3 SIGNEXTEND PUSH1 0x3 SIGNEXTEND EQ JUMPDEST PUSH2 0xA89 JUMPI PUSH1 0x40 MLOAD PUSH32 0x8C379A000000000000000000000000000000000000000000000000000000000 DUP2 MSTORE PUSH1 0x4 ADD PUSH2 0xA80 SWAP1 PUSH2 0x1626 JUMP JUMPDEST PUSH1 0x40 MLOAD DUP1 SWAP2 SUB SWAP1 REVERT JUMPDEST DUP2 PUSH1 0x4 PUSH1 0x14 PUSH2 0x100 EXP DUP2 SLOAD DUP2 PUSH4 0xFFFFFFFF MUL NOT AND SWAP1 DUP4 PUSH1 0x3 SIGNEXTEND PUSH4 0xFFFFFFFF AND MUL OR SWAP1 SSTORE POP DUP1 PUSH1 0x4 PUSH1 0x18 PUSH2 0x100 EXP DUP2 SLOAD DUP2 PUSH4 0xFFFFFFFF MUL NOT AND SWAP1 DUP4 PUSH1 0x3 SIGNEXTEND PUSH4 0xFFFFFFFF AND MUL OR SWAP1 SSTORE POP POP POP JUMP JUMPDEST PUSH1 0x1 PUSH1 0x0 SWAP1 SLOAD SWAP1 PUSH2 0x100 EXP SWAP1 DIV PUSH20 0xFFFFFFFFFFFFFFFFFFFFFFFFFFFFFFFFFFFFFFFF AND DUP2 JUMP JUMPDEST PUSH1 0x2 PUSH1 0x0 SWAP1 SLOAD SWAP1 PUSH2 0x100 EXP SWAP1 DIV PUSH20 0xFFFFFFFFFFFFFFFFFFFFFFFFFFFFFFFFFFFFFFFF AND PUSH20 0xFFFFFFFFFFFFFFFFFFFFFFFFFFFFFFFFFFFFFFFF AND CALLER PUSH20 0xFFFFFFFFFFFFFFFFFFFFFFFFFFFFFFFFFFFFFFFF AND EQ PUSH2 0xB8B JUMPI PUSH1 0x40 MLOAD PUSH32 0x8C379A000000000000000000000000000000000000000000000000000000000 DUP2 MSTORE PUSH1 0x4 ADD PUSH2 0xB82 SWAP1 PUSH2 0x1692 JUMP JUMPDEST PUSH1 0x40 MLOAD DUP1 SWAP2 SUB SWAP1 REVERT JUMPDEST DUP1 PUSH1 0x0 DUP1 ADD PUSH1 0xE PUSH2 0x100 EXP DUP2 SLOAD DUP2 PUSH4 0xFFFFFFFF MUL NOT AND SWAP1 DUP4 PUSH1 0x3 SIGNEXTEND PUSH4 0xFFFFFFFF AND MUL OR SWAP1 SSTORE POP PUSH1 0x4 PUSH1 0x14 SWAP1 SLOAD SWAP1 PUSH2 0x100 EXP SWAP1 DIV PUSH1 0x3 SIGNEXTEND PUSH1 0x3 SIGNEXTEND DUP2 PUSH1 0x3 SIGNEXTEND SGT ISZERO DUP1 PUSH2 0xBEA JUMPI POP PUSH1 0x4 PUSH1 0x18 SWAP1 SLOAD SWAP1 PUSH2 0x100 EXP SWAP1 DIV PUSH1 0x3 SIGNEXTEND PUSH1 0x3 SIGNEXTEND DUP2 PUSH1 0x3 SIGNEXTEND SLT ISZERO JUMPDEST ISZERO PUSH2 0xC5C JUMPI PUSH32 0xF91A4F4E12808473BD39419F8A0D055E6FB5C105FFEFCD21CA53C36E387CCFB7 PUSH1 0x2 PUSH1 0x0 SWAP1 SLOAD SWAP1 PUSH2 0x100 EXP SWAP1 DIV PUSH20 0xFFFFFFFFFFFFFFFFFFFFFFFFFFFFFFFFFFFFFFFF AND PUSH1 0x0 DUP1 ADD PUSH1 0xE SWAP1 SLOAD SWAP1 PUSH2 0x100 EXP SWAP1 DIV PUSH1 0x3 SIGNEXTEND PUSH1 0x40 MLOAD PUSH2 0xC53 SWAP3 SWAP2 SWAP1 PUSH2 0x1724 JUMP JUMPDEST PUSH1 0x40 MLOAD DUP1 SWAP2 SUB SWAP1 LOG1 JUMPDEST POP JUMP JUMPDEST PUSH1 0x1 PUSH1 0x0 SWAP1 SLOAD SWAP1 PUSH2 0x100 EXP SWAP1 DIV PUSH20 0xFFFFFFFFFFFFFFFFFFFFFFFFFFFFFFFFFFFFFFFF AND PUSH20 0xFFFFFFFFFFFFFFFFFFFFFFFFFFFFFFFFFFFFFFFF AND CALLER PUSH20 0xFFFFFFFFFFFFFFFFFFFFFFFFFFFFFFFFFFFFFFFF AND EQ PUSH2 0xCB9 JUMPI PUSH1 0x0 DUP1 REVERT JUMPDEST DUP2 PUSH1 0x5 DUP2 SWAP1 SSTORE POP DUP1 PUSH1 0x4 PUSH1 0x1C PUSH2 0x100 EXP DUP2 SLOAD DUP2 PUSH1 0xFF MUL NOT AND SWAP1 DUP4 PUSH1 0xFF AND MUL OR SWAP1 SSTORE POP POP POP JUMP JUMPDEST PUSH1 0x0 DUP1 PUSH1 0x0 DUP1 PUSH1 0x0 DUP1 ADD PUSH1 0x0 SWAP1 SLOAD SWAP1 PUSH2 0x100 EXP SWAP1 DIV PUSH12 0xFFFFFFFFFFFFFFFFFFFFFFFF AND PUSH1 0x0 DUP1 ADD PUSH1 0xC SWAP1 SLOAD SWAP1 PUSH2 0x100 EXP SWAP1 DIV PUSH1 0xFF AND PUSH1 0x0 DUP1 ADD PUSH1 0xD SWAP1 SLOAD SWAP1 PUSH2 0x100 EXP SWAP1 DIV PUSH1 0xFF AND PUSH1 0x0 DUP1 ADD PUSH1 0xE SWAP1 SLOAD SWAP1 PUSH2 0x100 EXP SWAP1 DIV PUSH1 0x3 SIGNEXTEND SWAP4 POP SWAP4 POP SWAP4 POP SWAP4 POP SWAP1 SWAP2 SWAP3 SWAP4 JUMP JUMPDEST PUSH1 0x0 PUSH1 0x4 PUSH1 0x1C SWAP1 SLOAD SWAP1 PUSH2 0x100 EXP SWAP1 DIV PUSH1 0xFF AND PUSH1 0xFF AND GT DUP1 ISZERO PUSH2 0xD70 JUMPI POP PUSH2 0xD6B PUSH2 0x382 JUMP JUMPDEST PUSH1 0x5 SLOAD LT JUMPDEST DUP1 ISZERO PUSH2 0xDFE JUMPI POP PUSH1 0x4 PUSH1 0x1C SWAP1 SLOAD SWAP1 PUSH2 0x100 EXP SWAP1 DIV PUSH1 0xFF AND PUSH1 0xFF AND PUSH1 0x6 PUSH1 0x0 PUSH1 0x2 PUSH1 0x0 SWAP1 SLOAD SWAP1 PUSH2 0x100 EXP SWAP1 DIV PUSH20 0xFFFFFFFFFFFFFFFFFFFFFFFFFFFFFFFFFFFFFFFF AND PUSH20 0xFFFFFFFFFFFFFFFFFFFFFFFFFFFFFFFFFFFFFFFF AND PUSH20 0xFFFFFFFFFFFFFFFFFFFFFFFFFFFFFFFFFFFFFFFF AND DUP2 MSTORE PUSH1 0x20 ADD SWAP1 DUP2 MSTORE PUSH1 0x20 ADD PUSH1 0x0 KECCAK256 PUSH1 0x0 SWAP1 SLOAD SWAP1 PUSH2 0x100 EXP SWAP1 DIV PUSH1 0xFF AND PUSH1 0xFF AND LT JUMPDEST ISZERO PUSH2 0xF06 JUMPI PUSH1 0x2 PUSH1 0x0 SWAP1 SLOAD SWAP1 PUSH2 0x100 EXP SWAP1 DIV PUSH20 0xFFFFFFFFFFFFFFFFFFFFFFFFFFFFFFFFFFFFFFFF AND PUSH20 0xFFFFFFFFFFFFFFFFFFFFFFFFFFFFFFFFFFFFFFFF AND PUSH2 0x8FC PUSH1 0x5 SLOAD SWAP1 DUP2 ISZERO MUL SWAP1 PUSH1 0x40 MLOAD PUSH1 0x0 PUSH1 0x40 MLOAD DUP1 DUP4 SUB DUP2 DUP6 DUP9 DUP9 CALL SWAP4 POP POP POP POP ISZERO DUP1 ISZERO PUSH2 0xE6D JUMPI RETURNDATASIZE PUSH1 0x0 DUP1 RETURNDATACOPY RETURNDATASIZE PUSH1 0x0 REVERT JUMPDEST POP PUSH1 0x6 PUSH1 0x0 PUSH1 0x2 PUSH1 0x0 SWAP1 SLOAD SWAP1 PUSH2 0x100 EXP SWAP1 DIV PUSH20 0xFFFFFFFFFFFFFFFFFFFFFFFFFFFFFFFFFFFFFFFF AND PUSH20 0xFFFFFFFFFFFFFFFFFFFFFFFFFFFFFFFFFFFFFFFF AND PUSH20 0xFFFFFFFFFFFFFFFFFFFFFFFFFFFFFFFFFFFFFFFF AND DUP2 MSTORE PUSH1 0x20 ADD SWAP1 DUP2 MSTORE PUSH1 0x20 ADD PUSH1 0x0 KECCAK256 PUSH1 0x0 DUP2 DUP2 SWAP1 SLOAD SWAP1 PUSH2 0x100 EXP SWAP1 DIV PUSH1 0xFF AND DUP1 SWAP3 SWAP2 SWAP1 PUSH2 0xEEC SWAP1 PUSH2 0x178F JUMP JUMPDEST SWAP2 SWAP1 PUSH2 0x100 EXP DUP2 SLOAD DUP2 PUSH1 0xFF MUL NOT AND SWAP1 DUP4 PUSH1 0xFF AND MUL OR SWAP1 SSTORE POP POP JUMPDEST JUMP JUMPDEST DUP1 PUSH1 0x0 DUP1 ADD PUSH1 0xD PUSH2 0x100 EXP DUP2 SLOAD DUP2 PUSH1 0xFF MUL NOT AND SWAP1 DUP4 PUSH1 0x3 DUP2 GT ISZERO PUSH2 0xF2F JUMPI PUSH2 0xF2E PUSH2 0x130A JUMP JUMPDEST JUMPDEST MUL OR SWAP1 SSTORE POP POP JUMP JUMPDEST PUSH1 0x3 PUSH1 0x0 DUP1 ADD PUSH1 0xC PUSH2 0x100 EXP DUP2 SLOAD DUP2 PUSH1 0xFF MUL NOT AND SWAP1 DUP4 PUSH1 0x3 DUP2 GT ISZERO PUSH2 0xF5F JUMPI PUSH2 0xF5E PUSH2 0x130A JUMP JUMPDEST JUMPDEST MUL OR SWAP1 SSTORE POP PUSH2 0xF6E PUSH1 0x2 PUSH2 0xF08 JUMP JUMPDEST PUSH32 0xDCDE1585E07C17AFFE7826D5641EDCBCF609C0FCD6C088D3596F0A53C890775D PUSH1 0x4 PUSH1 0x0 SWAP1 SLOAD SWAP1 PUSH2 0x100 EXP SWAP1 DIV PUSH20 0xFFFFFFFFFFFFFFFFFFFFFFFFFFFFFFFFFFFFFFFF AND PUSH1 0x40 MLOAD PUSH2 0xFBF SWAP2 SWAP1 PUSH2 0x182B JUMP JUMPDEST PUSH1 0x40 MLOAD DUP1 SWAP2 SUB SWAP1 LOG1 PUSH1 0x4 PUSH1 0x0 SWAP1 SLOAD SWAP1 PUSH2 0x100 EXP SWAP1 DIV PUSH20 0xFFFFFFFFFFFFFFFFFFFFFFFFFFFFFFFFFFFFFFFF AND PUSH1 0x1 PUSH1 0x0 PUSH2 0x100 EXP DUP2 SLOAD DUP2 PUSH20 0xFFFFFFFFFFFFFFFFFFFFFFFFFFFFFFFFFFFFFFFF MUL NOT AND SWAP1 DUP4 PUSH20 0xFFFFFFFFFFFFFFFFFFFFFFFFFFFFFFFFFFFFFFFF AND MUL OR SWAP1 SSTORE POP PUSH1 0x0 PUSH1 0x4 PUSH1 0x0 PUSH2 0x100 EXP DUP2 SLOAD DUP2 PUSH20 0xFFFFFFFFFFFFFFFFFFFFFFFFFFFFFFFFFFFFFFFF MUL NOT AND SWAP1 DUP4 PUSH20 0xFFFFFFFFFFFFFFFFFFFFFFFFFFFFFFFFFFFFFFFF AND MUL OR SWAP1 SSTORE POP JUMP JUMPDEST PUSH1 0x0 PUSH20 0xFFFFFFFFFFFFFFFFFFFFFFFFFFFFFFFFFFFFFFFF DUP3 AND SWAP1 POP SWAP2 SWAP1 POP JUMP JUMPDEST PUSH1 0x0 PUSH2 0x1099 DUP3 PUSH2 0x106E JUMP JUMPDEST SWAP1 POP SWAP2 SWAP1 POP JUMP JUMPDEST PUSH2 0x10A9 DUP2 PUSH2 0x108E JUMP JUMPDEST DUP3 MSTORE POP POP JUMP JUMPDEST PUSH1 0x0 PUSH1 0x20 DUP3 ADD SWAP1 POP PUSH2 0x10C4 PUSH1 0x0 DUP4 ADD DUP5 PUSH2 0x10A0 JUMP JUMPDEST SWAP3 SWAP2 POP POP JUMP JUMPDEST PUSH1 0x0 DUP2 SWAP1 POP SWAP2 SWAP1 POP JUMP JUMPDEST PUSH2 0x10DD DUP2 PUSH2 0x10CA JUMP JUMPDEST DUP3 MSTORE POP POP JUMP JUMPDEST PUSH1 0x0 PUSH1 0x20 DUP3 ADD SWAP1 POP PUSH2 0x10F8 PUSH1 0x0 DUP4 ADD DUP5 PUSH2 0x10D4 JUMP JUMPDEST SWAP3 SWAP2 POP POP JUMP JUMPDEST PUSH1 0x0 DUP1 REVERT JUMPDEST PUSH1 0x0 PUSH2 0x110E DUP3 PUSH2 0x106E JUMP JUMPDEST SWAP1 POP SWAP2 SWAP1 POP JUMP JUMPDEST PUSH2 0x111E DUP2 PUSH2 0x1103 JUMP JUMPDEST DUP2 EQ PUSH2 0x1129 JUMPI PUSH1 0x0 DUP1 REVERT JUMPDEST POP JUMP JUMPDEST PUSH1 0x0 DUP2 CALLDATALOAD SWAP1 POP PUSH2 0x113B DUP2 PUSH2 0x1115 JUMP JUMPDEST SWAP3 SWAP2 POP POP JUMP JUMPDEST PUSH1 0x0 PUSH1 0x20 DUP3 DUP5 SUB SLT ISZERO PUSH2 0x1157 JUMPI PUSH2 0x1156 PUSH2 0x10FE JUMP JUMPDEST JUMPDEST PUSH1 0x0 PUSH2 0x1165 DUP5 DUP3 DUP6 ADD PUSH2 0x112C JUMP JUMPDEST SWAP2 POP POP SWAP3 SWAP2 POP POP JUMP JUMPDEST PUSH2 0x1177 DUP2 PUSH2 0x1103 JUMP JUMPDEST DUP3 MSTORE POP POP JUMP JUMPDEST PUSH1 0x0 PUSH1 0x20 DUP3 ADD SWAP1 POP PUSH2 0x1192 PUSH1 0x0 DUP4 ADD DUP5 PUSH2 0x116E JUMP JUMPDEST SWAP3 SWAP2 POP POP JUMP JUMPDEST PUSH1 0x0 DUP2 PUSH1 0x3 SIGNEXTEND SWAP1 POP SWAP2 SWAP1 POP JUMP JUMPDEST PUSH2 0x11AE DUP2 PUSH2 0x1198 JUMP JUMPDEST DUP2 EQ PUSH2 0x11B9 JUMPI PUSH1 0x0 DUP1 REVERT JUMPDEST POP JUMP JUMPDEST PUSH1 0x0 DUP2 CALLDATALOAD SWAP1 POP PUSH2 0x11CB DUP2 PUSH2 0x11A5 JUMP JUMPDEST SWAP3 SWAP2 POP POP JUMP JUMPDEST PUSH1 0x0 DUP1 PUSH1 0x40 DUP4 DUP6 SUB SLT ISZERO PUSH2 0x11E8 JUMPI PUSH2 0x11E7 PUSH2 0x10FE JUMP JUMPDEST JUMPDEST PUSH1 0x0 PUSH2 0x11F6 DUP6 DUP3 DUP7 ADD PUSH2 0x11BC JUMP JUMPDEST SWAP3 POP POP PUSH1 0x20 PUSH2 0x1207 DUP6 DUP3 DUP7 ADD PUSH2 0x11BC JUMP JUMPDEST SWAP2 POP POP SWAP3 POP SWAP3 SWAP1 POP JUMP JUMPDEST PUSH1 0x0 PUSH1 0x20 DUP3 DUP5 SUB SLT ISZERO PUSH2 0x1227 JUMPI PUSH2 0x1226 PUSH2 0x10FE JUMP JUMPDEST JUMPDEST PUSH1 0x0 PUSH2 0x1235 DUP5 DUP3 DUP6 ADD PUSH2 0x11BC JUMP JUMPDEST SWAP2 POP POP SWAP3 SWAP2 POP POP JUMP JUMPDEST PUSH2 0x1247 DUP2 PUSH2 0x10CA JUMP JUMPDEST DUP2 EQ PUSH2 0x1252 JUMPI PUSH1 0x0 DUP1 REVERT JUMPDEST POP JUMP JUMPDEST PUSH1 0x0 DUP2 CALLDATALOAD SWAP1 POP PUSH2 0x1264 DUP2 PUSH2 0x123E JUMP JUMPDEST SWAP3 SWAP2 POP POP JUMP JUMPDEST PUSH1 0x0 PUSH1 0xFF DUP3 AND SWAP1 POP SWAP2 SWAP1 POP JUMP JUMPDEST PUSH2 0x1280 DUP2 PUSH2 0x126A JUMP JUMPDEST DUP2 EQ PUSH2 0x128B JUMPI PUSH1 0x0 DUP1 REVERT JUMPDEST POP JUMP JUMPDEST PUSH1 0x0 DUP2 CALLDATALOAD SWAP1 POP PUSH2 0x129D DUP2 PUSH2 0x1277 JUMP JUMPDEST SWAP3 SWAP2 POP POP JUMP JUMPDEST PUSH1 0x0 DUP1 PUSH1 0x40 DUP4 DUP6 SUB SLT ISZERO PUSH2 0x12BA JUMPI PUSH2 0x12B9 PUSH2 0x10FE JUMP JUMPDEST JUMPDEST PUSH1 0x0 PUSH2 0x12C8 DUP6 DUP3 DUP7 ADD PUSH2 0x1255 JUMP JUMPDEST SWAP3 POP POP PUSH1 0x20 PUSH2 0x12D9 DUP6 DUP3 DUP7 ADD PUSH2 0x128E JUMP JUMPDEST SWAP2 POP POP SWAP3 POP SWAP3 SWAP1 POP JUMP JUMPDEST PUSH1 0x0 PUSH12 0xFFFFFFFFFFFFFFFFFFFFFFFF DUP3 AND SWAP1 POP SWAP2 SWAP1 POP JUMP JUMPDEST PUSH2 0x1304 DUP2 PUSH2 0x12E3 JUMP JUMPDEST DUP3 MSTORE POP POP JUMP JUMPDEST PUSH32 0x4E487B7100000000000000000000000000000000000000000000000000000000 PUSH1 0x0 MSTORE PUSH1 0x21 PUSH1 0x4 MSTORE PUSH1 0x24 PUSH1 0x0 REVERT JUMPDEST PUSH1 0x4 DUP2 LT PUSH2 0x134A JUMPI PUSH2 0x1349 PUSH2 0x130A JUMP JUMPDEST JUMPDEST POP JUMP JUMPDEST PUSH1 0x0 DUP2 SWAP1 POP PUSH2 0x135B DUP3 PUSH2 0x1339 JUMP JUMPDEST SWAP2 SWAP1 POP JUMP JUMPDEST PUSH1 0x0 PUSH2 0x136B DUP3 PUSH2 0x134D JUMP JUMPDEST SWAP1 POP SWAP2 SWAP1 POP JUMP JUMPDEST PUSH2 0x137B DUP2 PUSH2 0x1360 JUMP JUMPDEST DUP3 MSTORE POP POP JUMP JUMPDEST PUSH1 0x4 DUP2 LT PUSH2 0x1392 JUMPI PUSH2 0x1391 PUSH2 0x130A JUMP JUMPDEST JUMPDEST POP JUMP JUMPDEST PUSH1 0x0 DUP2 SWAP1 POP PUSH2 0x13A3 DUP3 PUSH2 0x1381 JUMP JUMPDEST SWAP2 SWAP1 POP JUMP JUMPDEST PUSH1 0x0 PUSH2 0x13B3 DUP3 PUSH2 0x1395 JUMP JUMPDEST SWAP1 POP SWAP2 SWAP1 POP JUMP JUMPDEST PUSH2 0x13C3 DUP2 PUSH2 0x13A8 JUMP JUMPDEST DUP3 MSTORE POP POP JUMP JUMPDEST PUSH2 0x13D2 DUP2 PUSH2 0x1198 JUMP JUMPDEST DUP3 MSTORE POP POP JUMP JUMPDEST PUSH1 0x0 PUSH1 0x80 DUP3 ADD SWAP1 POP PUSH2 0x13ED PUSH1 0x0 DUP4 ADD DUP8 PUSH2 0x12FB JUMP JUMPDEST PUSH2 0x13FA PUSH1 0x20 DUP4 ADD DUP7 PUSH2 0x1372 JUMP JUMPDEST PUSH2 0x1407 PUSH1 0x40 DUP4 ADD DUP6 PUSH2 0x13BA JUMP JUMPDEST PUSH2 0x1414 PUSH1 0x60 DUP4 ADD DUP5 PUSH2 0x13C9 JUMP JUMPDEST SWAP6 SWAP5 POP POP POP POP POP JUMP JUMPDEST PUSH1 0x0 DUP3 DUP3 MSTORE PUSH1 0x20 DUP3 ADD SWAP1 POP SWAP3 SWAP2 POP POP JUMP JUMPDEST PUSH32 0x5468652063616C6C6572206973206E6F742073656E646572206F722074686520 PUSH1 0x0 DUP3 ADD MSTORE PUSH32 0x726563697069656E7420646566696E65642061732073656E6465720000000000 PUSH1 0x20 DUP3 ADD MSTORE POP JUMP JUMPDEST PUSH1 0x0 PUSH2 0x148A PUSH1 0x3B DUP4 PUSH2 0x141D JUMP JUMPDEST SWAP2 POP PUSH2 0x1495 DUP3 PUSH2 0x142E JUMP JUMPDEST PUSH1 0x40 DUP3 ADD SWAP1 POP SWAP2 SWAP1 POP JUMP JUMPDEST PUSH1 0x0 PUSH1 0x20 DUP3 ADD SWAP1 POP DUP2 DUP2 SUB PUSH1 0x0 DUP4 ADD MSTORE PUSH2 0x14B9 DUP2 PUSH2 0x147D JUMP JUMPDEST SWAP1 POP SWAP2 SWAP1 POP JUMP JUMPDEST PUSH1 0x0 DUP2 SWAP1 POP SWAP2 SWAP1 POP JUMP JUMPDEST PUSH1 0x0 PUSH2 0x14E5 PUSH2 0x14E0 PUSH2 0x14DB DUP5 PUSH2 0x106E JUMP JUMPDEST PUSH2 0x14C0 JUMP JUMPDEST PUSH2 0x106E JUMP JUMPDEST SWAP1 POP SWAP2 SWAP1 POP JUMP JUMPDEST PUSH1 0x0 PUSH2 0x14F7 DUP3 PUSH2 0x14CA JUMP JUMPDEST SWAP1 POP SWAP2 SWAP1 POP JUMP JUMPDEST PUSH1 0x0 PUSH2 0x1509 DUP3 PUSH2 0x14EC JUMP JUMPDEST SWAP1 POP SWAP2 SWAP1 POP JUMP JUMPDEST PUSH2 0x1519 DUP2 PUSH2 0x14FE JUMP JUMPDEST DUP3 MSTORE POP POP JUMP JUMPDEST PUSH1 0x0 PUSH1 0x40 DUP3 ADD SWAP1 POP PUSH2 0x1534 PUSH1 0x0 DUP4 ADD DUP6 PUSH2 0x1510 JUMP JUMPDEST PUSH2 0x1541 PUSH1 0x20 DUP4 ADD DUP5 PUSH2 0x116E JUMP JUMPDEST SWAP4 SWAP3 POP POP POP JUMP JUMPDEST PUSH32 0x5468652063616C6C6572206973206E6F74206275796572000000000000000000 PUSH1 0x0 DUP3 ADD MSTORE POP JUMP JUMPDEST PUSH1 0x0 PUSH2 0x157E PUSH1 0x17 DUP4 PUSH2 0x141D JUMP JUMPDEST SWAP2 POP PUSH2 0x1589 DUP3 PUSH2 0x1548 JUMP JUMPDEST PUSH1 0x20 DUP3 ADD SWAP1 POP SWAP2 SWAP1 POP JUMP JUMPDEST PUSH1 0x0 PUSH1 0x20 DUP3 ADD SWAP1 POP DUP2 DUP2 SUB PUSH1 0x0 DUP4 ADD MSTORE PUSH2 0x15AD DUP2 PUSH2 0x1571 JUMP JUMPDEST SWAP1 POP SWAP2 SWAP1 POP JUMP JUMPDEST PUSH32 0x546865206C696D69742076616C7565732068617320616C726561647920696E69 PUSH1 0x0 DUP3 ADD MSTORE PUSH32 0x7469616C697A6564000000000000000000000000000000000000000000000000 PUSH1 0x20 DUP3 ADD MSTORE POP JUMP JUMPDEST PUSH1 0x0 PUSH2 0x1610 PUSH1 0x28 DUP4 PUSH2 0x141D JUMP JUMPDEST SWAP2 POP PUSH2 0x161B DUP3 PUSH2 0x15B4 JUMP JUMPDEST PUSH1 0x40 DUP3 ADD SWAP1 POP SWAP2 SWAP1 POP JUMP JUMPDEST PUSH1 0x0 PUSH1 0x20 DUP3 ADD SWAP1 POP DUP2 DUP2 SUB PUSH1 0x0 DUP4 ADD MSTORE PUSH2 0x163F DUP2 PUSH2 0x1603 JUMP JUMPDEST SWAP1 POP SWAP2 SWAP1 POP JUMP JUMPDEST PUSH32 0x5468652063616C6C6572206973206E6F742073656E6465720000000000000000 PUSH1 0x0 DUP3 ADD MSTORE POP JUMP JUMPDEST PUSH1 0x0 PUSH2 0x167C PUSH1 0x18 DUP4 PUSH2 0x141D JUMP JUMPDEST SWAP2 POP PUSH2 0x1687 DUP3 PUSH2 0x1646 JUMP JUMPDEST PUSH1 0x20 DUP3 ADD SWAP1 POP SWAP2 SWAP1 POP JUMP JUMPDEST PUSH1 0x0 PUSH1 0x20 DUP3 ADD SWAP1 POP DUP2 DUP2 SUB PUSH1 0x0 DUP4 ADD MSTORE PUSH2 0x16AB DUP2 PUSH2 0x166F JUMP JUMPDEST SWAP1 POP SWAP2 SWAP1 POP JUMP JUMPDEST PUSH32 0x5265636F7264696E67206C696D69742056616C75652066726F6D207370656369 PUSH1 0x0 DUP3 ADD MSTORE PUSH32 0x6669632070617274790000000000000000000000000000000000000000000000 PUSH1 0x20 DUP3 ADD MSTORE POP JUMP JUMPDEST PUSH1 0x0 PUSH2 0x170E PUSH1 0x29 DUP4 PUSH2 0x141D JUMP JUMPDEST SWAP2 POP PUSH2 0x1719 DUP3 PUSH2 0x16B2 JUMP JUMPDEST PUSH1 0x40 DUP3 ADD SWAP1 POP SWAP2 SWAP1 POP JUMP JUMPDEST PUSH1 0x0 PUSH1 0x60 DUP3 ADD SWAP1 POP DUP2 DUP2 SUB PUSH1 0x0 DUP4 ADD MSTORE PUSH2 0x173D DUP2 PUSH2 0x1701 JUMP JUMPDEST SWAP1 POP PUSH2 0x174C PUSH1 0x20 DUP4 ADD DUP6 PUSH2 0x1510 JUMP JUMPDEST PUSH2 0x1759 PUSH1 0x40 DUP4 ADD DUP5 PUSH2 0x13C9 JUMP JUMPDEST SWAP4 SWAP3 POP POP POP JUMP JUMPDEST PUSH32 0x4E487B7100000000000000000000000000000000000000000000000000000000 PUSH1 0x0 MSTORE PUSH1 0x11 PUSH1 0x4 MSTORE PUSH1 0x24 PUSH1 0x0 REVERT JUMPDEST PUSH1 0x0 PUSH2 0x179A DUP3 PUSH2 0x126A JUMP JUMPDEST SWAP2 POP PUSH1 0xFF DUP3 EQ ISZERO PUSH2 0x17AE JUMPI PUSH2 0x17AD PUSH2 0x1760 JUMP JUMPDEST JUMPDEST PUSH1 0x1 DUP3 ADD SWAP1 POP SWAP2 SWAP1 POP JUMP JUMPDEST PUSH32 0x5468652070726F64756374206172726976656420746F20737065636966696320 PUSH1 0x0 DUP3 ADD MSTORE PUSH32 0x72657461696C6572000000000000000000000000000000000000000000000000 PUSH1 0x20 DUP3 ADD MSTORE POP JUMP JUMPDEST PUSH1 0x0 PUSH2 0x1815 PUSH1 0x28 DUP4 PUSH2 0x141D JUMP JUMPDEST SWAP2 POP PUSH2 0x1820 DUP3 PUSH2 0x17B9 JUMP JUMPDEST PUSH1 0x40 DUP3 ADD SWAP1 POP SWAP2 SWAP1 POP JUMP JUMPDEST PUSH1 0x0 PUSH1 0x40 DUP3 ADD SWAP1 POP DUP2 DUP2 SUB PUSH1 0x0 DUP4 ADD MSTORE PUSH2 0x1844 DUP2 PUSH2 0x1808 JUMP JUMPDEST SWAP1 POP PUSH2 0x1853 PUSH1 0x20 DUP4 ADD DUP5 PUSH2 0x116E JUMP JUMPDEST SWAP3 SWAP2 POP POP JUMP INVALID LOG2 PUSH5 0x6970667358 0x22 SLT KECCAK256 PUSH21 0x600170B6F70969FC98F41FAF9FCCDBBDBDBCD4060D 0xFC MULMOD 0xAA BYTE SHR SWAP10 0xF8 0xE5 DUP15 DUP3 PUSH5 0x736F6C6343 STOP ADDMOD SIGNEXTEND STOP CALLER LOG2 PUSH5 0x6970667358 0x22 SLT KECCAK256 DUP4 PUSH19 0x7DF61DDCC2932F45BE9C0900B578B47E89E67A 0xE0 0xB4 0xDB DUP16 0xC5 0xF7 0xDE DUP3 0xB1 CALLVALUE GT PUSH5 0x736F6C6343 STOP ADDMOD SIGNEXTEND STOP CALLER "},"gasEstimates":{"creation":{"codeDepositCost":"1729600","executionCost":"1820","totalCost":"1731420"},"external":{"createProduct(uint96)":"infinite","depolyedProducts(uint256)":"4978","getDeployedProducts()":"infinite","productsAddress(uint96)":"2845"}},"methodIdentifiers":{"createProduct(uint96)":"5b37f20a","depolyedProducts(uint256)":"8718e33b","getDeployedProducts()":"a578861d","productsAddress(uint96)":"6f3e184c"}},"storageLayout":{"storage":[{"astId":25,"contract":"Product.sol:ProductFactory","label":"depolyedProducts","offset":0,"slot":"0","type":"t_array(t_address)dyn_storage"},{"astId":29,"contract":"Product.sol:ProductFactory","label":"productsAddress","offset":0,"slot":"1","type":"t_mapping(t_uint96,t_address)"}],"types":{"t_address":{"encoding":"inplace","label":"address","numberOfBytes":"20"},"t_array(t_address)dyn_storage":{"base":"t_address","encoding":"dynamic_array","label":"address[]","numberOfBytes":"32"},"t_mapping(t_uint96,t_address)":{"encoding":"mapping","key":"t_uint96","label":"mapping(uint96 => address)","numberOfBytes":"32","value":"t_address"},"t_uint96":{"encoding":"inplace","label":"uint96","numberOfBytes":"12"}}},"userdoc":{"kind":"user","methods":{},"version":1}}